{"abi":[{"inputs":[{"internalType":"address","name":"_stakeholder","type":"address"}],"stateMutability":"nonpayable","type":"constructor"},{"inputs":[{"internalType":"string","name":"_name","type":"string"},{"internalType":"uint256","name":"_quantity","type":"uint256"},{"internalType":"string","name":"_globalID","type":"string"}],"name":"addProduct","outputs":[],"stateMutability":"nonpayable","type":"function"},{"inputs":[{"internalType":"uint256","name":"productID","type":"uint256"},{"internalType":"string","name":"_name","type":"string"},{"internalType":"uint256","name":"supply","type":"uint256"},{"internalType":"string","name":"_location","type":"string"},{"internalType":"uint256","name":"_temperature","type":"uint256"}],"name":"addStakeholderToProduct","outputs":[],"stateMutability":"nonpayable","type":"function"},{"inputs":[{"internalType":"uint256","name":"productID","type":"uint256"}],"name":"finishPasteurization","outputs":[],"stateMutability":"nonpayable","type":"function"},{"inputs":[{"internalType":"uint256","name":"productID","type":"uint256"}],"name":"getCurrStatus","outputs":[{"internalType":"uint256","name":"","type":"uint256"}],"stateMutability":"view","type":"function"},{"inputs":[{"internalType":"uint256","name":"productID","type":"uint256"}],"name":"getProduct","outputs":[{"internalType":"uint256","name":"","type":"uint256"},{"internalType":"string","name":"","type":"string"},{"internalType":"uint256","name":"","type":"uint256"},{"internalType":"string","name":"","type":"string"},{"components":[{"internalType":"uint256","name":"id","type":"uint256"},{"internalType":"string","name":"name","type":"string"},{"internalType":"uint256","name":"timestamp","type":"uint256"},{"internalType":"uint256","name":"quantitySupply","type":"uint256"},{"internalType":"string","name":"location","type":"string"},{"internalType":"uint256","name":"temperature","type":"uint256"}],"internalType":"struct Stakeholders.StakeholderDetails[]","name":"","type":"tuple[]"}],"stateMutability":"view","type":"function"},{"inputs":[{"internalType":"uint256","name":"productID","type":"uint256"}],"name":"getProductQuantity","outputs":[{"internalType":"uint256","name":"","type":"uint256"}],"stateMutability":"view","type":"function"}],"devdoc":{"kind":"dev","methods":{},"version":1},"evm":{"assembly":"    /* \"products.sol\":1923:6716  contract Product is Stakeholders,Processes {... */\n  mstore(0x40, 0x80)\n    /* \"products.sol\":2734:2842  constructor(address _stakeholder) {... */\n  callvalue\n  dup1\n  iszero\n  tag_1\n  jumpi\n  0x00\n  dup1\n  revert\ntag_1:\n  pop\n  mload(0x40)\n  sub(codesize, bytecodeSize)\n  dup1\n  bytecodeSize\n  dup4\n  codecopy\n  dup2\n  dup2\n  add\n  0x40\n  mstore\n  dup2\n  add\n  swap1\n  tag_2\n  swap2\n  swap1\n  tag_3\n  jump\t// in\ntag_2:\n    /* \"products.sol\":1398:1429  Process(1,\"Raw Material\",false) */\n  mload(0x40)\n  dup1\n  0x60\n  add\n  0x40\n  mstore\n  dup1\n    /* \"products.sol\":1406:1407  1 */\n  0x01\n    /* \"products.sol\":1398:1429  Process(1,\"Raw Material\",false) */\n  dup2\n  mstore\n  0x20\n  add\n  mload(0x40)\n  dup1\n  0x40\n  add\n  0x40\n  mstore\n  dup1\n  0x0c\n  dup2\n  mstore\n  0x20\n  add\n  0x526177204d6174657269616c0000000000000000000000000000000000000000\n  dup2\n  mstore\n  pop\n  dup2\n  mstore\n  0x20\n  add\n    /* \"products.sol\":1423:1428  false */\n  0x00\n    /* \"products.sol\":1398:1429  Process(1,\"Raw Material\",false) */\n  iszero\n  iszero\n  dup2\n  mstore\n  pop\n    /* \"products.sol\":1379:1394  process_details */\n  0x02\n    /* \"products.sol\":1379:1397  process_details[1] */\n  0x00\n    /* \"products.sol\":1395:1396  1 */\n  0x01\n    /* \"products.sol\":1379:1397  process_details[1] */\n  dup2\n  mstore\n  0x20\n  add\n  swap1\n  dup2\n  mstore\n  0x20\n  add\n  0x00\n  keccak256\n    /* \"products.sol\":1379:1429  process_details[1]=Process(1,\"Raw Material\",false) */\n  0x00\n  dup3\n  add\n  mload\n  dup2\n  0x00\n  add\n  sstore\n  0x20\n  dup3\n  add\n  mload\n  dup2\n  0x01\n  add\n  swap1\n  dup1\n  mload\n  swap1\n  0x20\n  add\n  swap1\n  tag_7\n  swap3\n  swap2\n  swap1\n  tag_8\n  jump\t// in\ntag_7:\n  pop\n  0x40\n  dup3\n  add\n  mload\n  dup2\n  0x02\n  add\n  exp(0x0100, 0x00)\n  dup2\n  sload\n  dup2\n  0xff\n  mul\n  not\n  and\n  swap1\n  dup4\n  iszero\n  iszero\n  mul\n  or\n  swap1\n  sstore\n  pop\n  swap1\n  pop\n  pop\n    /* \"products.sol\":1459:1492  Process(2,\"Pasteurization\",false) */\n  mload(0x40)\n  dup1\n  0x60\n  add\n  0x40\n  mstore\n  dup1\n    /* \"products.sol\":1467:1468  2 */\n  0x02\n    /* \"products.sol\":1459:1492  Process(2,\"Pasteurization\",false) */\n  dup2\n  mstore\n  0x20\n  add\n  mload(0x40)\n  dup1\n  0x40\n  add\n  0x40\n  mstore\n  dup1\n  0x0e\n  dup2\n  mstore\n  0x20\n  add\n  0x50617374657572697a6174696f6e000000000000000000000000000000000000\n  dup2\n  mstore\n  pop\n  dup2\n  mstore\n  0x20\n  add\n    /* \"products.sol\":1486:1491  false */\n  0x00\n    /* \"products.sol\":1459:1492  Process(2,\"Pasteurization\",false) */\n  iszero\n  iszero\n  dup2\n  mstore\n  pop\n    /* \"products.sol\":1440:1455  process_details */\n  0x02\n    /* \"products.sol\":1440:1458  process_details[2] */\n  0x00\n    /* \"products.sol\":1456:1457  2 */\n  0x02\n    /* \"products.sol\":1440:1458  process_details[2] */\n  dup2\n  mstore\n  0x20\n  add\n  swap1\n  dup2\n  mstore\n  0x20\n  add\n  0x00\n  keccak256\n    /* \"products.sol\":1440:1492  process_details[2]=Process(2,\"Pasteurization\",false) */\n  0x00\n  dup3\n  add\n  mload\n  dup2\n  0x00\n  add\n  sstore\n  0x20\n  dup3\n  add\n  mload\n  dup2\n  0x01\n  add\n  swap1\n  dup1\n  mload\n  swap1\n  0x20\n  add\n  swap1\n  tag_9\n  swap3\n  swap2\n  swap1\n  tag_8\n  jump\t// in\ntag_9:\n  pop\n  0x40\n  dup3\n  add\n  mload\n  dup2\n  0x02\n  add\n  exp(0x0100, 0x00)\n  dup2\n  sload\n  dup2\n  0xff\n  mul\n  not\n  and\n  swap1\n  dup4\n  iszero\n  iszero\n  mul\n  or\n  swap1\n  sstore\n  pop\n  swap1\n  pop\n  pop\n    /* \"products.sol\":1522:1556  Process(3,\"Out of Delivery\",false) */\n  mload(0x40)\n  dup1\n  0x60\n  add\n  0x40\n  mstore\n  dup1\n    /* \"products.sol\":1530:1531  3 */\n  0x03\n    /* \"products.sol\":1522:1556  Process(3,\"Out of Delivery\",false) */\n  dup2\n  mstore\n  0x20\n  add\n  mload(0x40)\n  dup1\n  0x40\n  add\n  0x40\n  mstore\n  dup1\n  0x0f\n  dup2\n  mstore\n  0x20\n  add\n  0x4f7574206f662044656c69766572790000000000000000000000000000000000\n  dup2\n  mstore\n  pop\n  dup2\n  mstore\n  0x20\n  add\n    /* \"products.sol\":1550:1555  false */\n  0x00\n    /* \"products.sol\":1522:1556  Process(3,\"Out of Delivery\",false) */\n  iszero\n  iszero\n  dup2\n  mstore\n  pop\n    /* \"products.sol\":1503:1518  process_details */\n  0x02\n    /* \"products.sol\":1503:1521  process_details[3] */\n  0x00\n    /* \"products.sol\":1519:1520  3 */\n  0x03\n    /* \"products.sol\":1503:1521  process_details[3] */\n  dup2\n  mstore\n  0x20\n  add\n  swap1\n  dup2\n  mstore\n  0x20\n  add\n  0x00\n  keccak256\n    /* \"products.sol\":1503:1556  process_details[3]=Process(3,\"Out of Delivery\",false) */\n  0x00\n  dup3\n  add\n  mload\n  dup2\n  0x00\n  add\n  sstore\n  0x20\n  dup3\n  add\n  mload\n  dup2\n  0x01\n  add\n  swap1\n  dup1\n  mload\n  swap1\n  0x20\n  add\n  swap1\n  tag_10\n  swap3\n  swap2\n  swap1\n  tag_8\n  jump\t// in\ntag_10:\n  pop\n  0x40\n  dup3\n  add\n  mload\n  dup2\n  0x02\n  add\n  exp(0x0100, 0x00)\n  dup2\n  sload\n  dup2\n  0xff\n  mul\n  not\n  and\n  swap1\n  dup4\n  iszero\n  iszero\n  mul\n  or\n  swap1\n  sstore\n  pop\n  swap1\n  pop\n  pop\n    /* \"products.sol\":2787:2797  msg.sender */\n  caller\n    /* \"products.sol\":2779:2784  admin */\n  0x06\n  0x00\n    /* \"products.sol\":2779:2797  admin = msg.sender */\n  0x0100\n  exp\n  dup2\n  sload\n  dup2\n  0xffffffffffffffffffffffffffffffffffffffff\n  mul\n  not\n  and\n  swap1\n  dup4\n  0xffffffffffffffffffffffffffffffffffffffff\n  and\n  mul\n  or\n  swap1\n  sstore\n  pop\n    /* \"products.sol\":2822:2834  _stakeholder */\n  dup1\n    /* \"products.sol\":2808:2819  stakeholder */\n  0x05\n  0x00\n    /* \"products.sol\":2808:2834  stakeholder = _stakeholder */\n  0x0100\n  exp\n  dup2\n  sload\n  dup2\n  0xffffffffffffffffffffffffffffffffffffffff\n  mul\n  not\n  and\n  swap1\n  dup4\n  0xffffffffffffffffffffffffffffffffffffffff\n  and\n  mul\n  or\n  swap1\n  sstore\n  pop\n    /* \"products.sol\":2734:2842  constructor(address _stakeholder) {... */\n  pop\n    /* \"products.sol\":1923:6716  contract Product is Stakeholders,Processes {... */\n  jump(tag_12)\ntag_8:\n  dup3\n  dup1\n  sload\n  tag_13\n  swap1\n  tag_14\n  jump\t// in\ntag_13:\n  swap1\n  0x00\n  mstore\n  keccak256(0x00, 0x20)\n  swap1\n  0x1f\n  add\n  0x20\n  swap1\n  div\n  dup2\n  add\n  swap3\n  dup3\n  tag_16\n  jumpi\n  0x00\n  dup6\n  sstore\n  jump(tag_15)\ntag_16:\n  dup3\n  0x1f\n  lt\n  tag_17\n  jumpi\n  dup1\n  mload\n  not(0xff)\n  and\n  dup4\n  dup1\n  add\n  or\n  dup6\n  sstore\n  jump(tag_15)\ntag_17:\n  dup3\n  dup1\n  add\n  0x01\n  add\n  dup6\n  sstore\n  dup3\n  iszero\n  tag_15\n  jumpi\n  swap2\n  dup3\n  add\ntag_18:\n  dup3\n  dup2\n  gt\n  iszero\n  tag_19\n  jumpi\n  dup3\n  mload\n  dup3\n  sstore\n  swap2\n  0x20\n  add\n  swap2\n  swap1\n  0x01\n  add\n  swap1\n  jump(tag_18)\ntag_19:\ntag_15:\n  pop\n  swap1\n  pop\n  tag_20\n  swap2\n  swap1\n  tag_21\n  jump\t// in\ntag_20:\n  pop\n  swap1\n  jump\t// out\ntag_21:\ntag_22:\n  dup1\n  dup3\n  gt\n  iszero\n  tag_23\n  jumpi\n  0x00\n  dup2\n  0x00\n  swap1\n  sstore\n  pop\n  0x01\n  add\n  jump(tag_22)\ntag_23:\n  pop\n  swap1\n  jump\t// out\n    /* \"#utility.yul\":88:205   */\ntag_25:\n    /* \"#utility.yul\":197:198   */\n  0x00\n    /* \"#utility.yul\":194:195   */\n  dup1\n    /* \"#utility.yul\":187:199   */\n  revert\n    /* \"#utility.yul\":334:460   */\ntag_27:\n    /* \"#utility.yul\":371:378   */\n  0x00\n    /* \"#utility.yul\":411:453   */\n  0xffffffffffffffffffffffffffffffffffffffff\n    /* \"#utility.yul\":404:409   */\n  dup3\n    /* \"#utility.yul\":400:454   */\n  and\n    /* \"#utility.yul\":389:454   */\n  swap1\n  pop\n    /* \"#utility.yul\":334:460   */\n  swap2\n  swap1\n  pop\n  jump\t// out\n    /* \"#utility.yul\":466:562   */\ntag_28:\n    /* \"#utility.yul\":503:510   */\n  0x00\n    /* \"#utility.yul\":532:556   */\n  tag_38\n    /* \"#utility.yul\":550:555   */\n  dup3\n    /* \"#utility.yul\":532:556   */\n  tag_27\n  jump\t// in\ntag_38:\n    /* \"#utility.yul\":521:556   */\n  swap1\n  pop\n    /* \"#utility.yul\":466:562   */\n  swap2\n  swap1\n  pop\n  jump\t// out\n    /* \"#utility.yul\":568:690   */\ntag_29:\n    /* \"#utility.yul\":641:665   */\n  tag_40\n    /* \"#utility.yul\":659:664   */\n  dup2\n    /* \"#utility.yul\":641:665   */\n  tag_28\n  jump\t// in\ntag_40:\n    /* \"#utility.yul\":634:639   */\n  dup2\n    /* \"#utility.yul\":631:666   */\n  eq\n    /* \"#utility.yul\":621:684   */\n  tag_41\n  jumpi\n    /* \"#utility.yul\":680:681   */\n  0x00\n    /* \"#utility.yul\":677:678   */\n  dup1\n    /* \"#utility.yul\":670:682   */\n  revert\n    /* \"#utility.yul\":621:684   */\ntag_41:\n    /* \"#utility.yul\":568:690   */\n  pop\n  jump\t// out\n    /* \"#utility.yul\":696:839   */\ntag_30:\n    /* \"#utility.yul\":753:758   */\n  0x00\n    /* \"#utility.yul\":784:790   */\n  dup2\n    /* \"#utility.yul\":778:791   */\n  mload\n    /* \"#utility.yul\":769:791   */\n  swap1\n  pop\n    /* \"#utility.yul\":800:833   */\n  tag_43\n    /* \"#utility.yul\":827:832   */\n  dup2\n    /* \"#utility.yul\":800:833   */\n  tag_29\n  jump\t// in\ntag_43:\n    /* \"#utility.yul\":696:839   */\n  swap3\n  swap2\n  pop\n  pop\n  jump\t// out\n    /* \"#utility.yul\":845:1196   */\ntag_3:\n    /* \"#utility.yul\":915:921   */\n  0x00\n    /* \"#utility.yul\":964:966   */\n  0x20\n    /* \"#utility.yul\":952:961   */\n  dup3\n    /* \"#utility.yul\":943:950   */\n  dup5\n    /* \"#utility.yul\":939:962   */\n  sub\n    /* \"#utility.yul\":935:967   */\n  slt\n    /* \"#utility.yul\":932:1051   */\n  iszero\n  tag_45\n  jumpi\n    /* \"#utility.yul\":970:1049   */\n  tag_46\n  tag_25\n  jump\t// in\ntag_46:\n    /* \"#utility.yul\":932:1051   */\ntag_45:\n    /* \"#utility.yul\":1090:1091   */\n  0x00\n    /* \"#utility.yul\":1115:1179   */\n  tag_47\n    /* \"#utility.yul\":1171:1178   */\n  dup5\n    /* \"#utility.yul\":1162:1168   */\n  dup3\n    /* \"#utility.yul\":1151:1160   */\n  dup6\n    /* \"#utility.yul\":1147:1169   */\n  add\n    /* \"#utility.yul\":1115:1179   */\n  tag_30\n  jump\t// in\ntag_47:\n    /* \"#utility.yul\":1105:1179   */\n  swap2\n  pop\n    /* \"#utility.yul\":1061:1189   */\n  pop\n    /* \"#utility.yul\":845:1196   */\n  swap3\n  swap2\n  pop\n  pop\n  jump\t// out\n    /* \"#utility.yul\":1202:1382   */\ntag_31:\n    /* \"#utility.yul\":1250:1327   */\n  0x4e487b7100000000000000000000000000000000000000000000000000000000\n    /* \"#utility.yul\":1247:1248   */\n  0x00\n    /* \"#utility.yul\":1240:1328   */\n  mstore\n    /* \"#utility.yul\":1347:1351   */\n  0x22\n    /* \"#utility.yul\":1344:1345   */\n  0x04\n    /* \"#utility.yul\":1337:1352   */\n  mstore\n    /* \"#utility.yul\":1371:1375   */\n  0x24\n    /* \"#utility.yul\":1368:1369   */\n  0x00\n    /* \"#utility.yul\":1361:1376   */\n  revert\n    /* \"#utility.yul\":1388:1708   */\ntag_14:\n    /* \"#utility.yul\":1432:1438   */\n  0x00\n    /* \"#utility.yul\":1469:1470   */\n  0x02\n    /* \"#utility.yul\":1463:1467   */\n  dup3\n    /* \"#utility.yul\":1459:1471   */\n  div\n    /* \"#utility.yul\":1449:1471   */\n  swap1\n  pop\n    /* \"#utility.yul\":1516:1517   */\n  0x01\n    /* \"#utility.yul\":1510:1514   */\n  dup3\n    /* \"#utility.yul\":1506:1518   */\n  and\n    /* \"#utility.yul\":1537:1555   */\n  dup1\n    /* \"#utility.yul\":1527:1608   */\n  tag_50\n  jumpi\n    /* \"#utility.yul\":1593:1597   */\n  0x7f\n    /* \"#utility.yul\":1585:1591   */\n  dup3\n    /* \"#utility.yul\":1581:1598   */\n  and\n    /* \"#utility.yul\":1571:1598   */\n  swap2\n  pop\n    /* \"#utility.yul\":1527:1608   */\ntag_50:\n    /* \"#utility.yul\":1655:1657   */\n  0x20\n    /* \"#utility.yul\":1647:1653   */\n  dup3\n    /* \"#utility.yul\":1644:1658   */\n  lt\n    /* \"#utility.yul\":1624:1642   */\n  dup2\n    /* \"#utility.yul\":1621:1659   */\n  sub\n    /* \"#utility.yul\":1618:1702   */\n  tag_51\n  jumpi\n    /* \"#utility.yul\":1674:1692   */\n  tag_52\n  tag_31\n  jump\t// in\ntag_52:\n    /* \"#utility.yul\":1618:1702   */\ntag_51:\n    /* \"#utility.yul\":1439:1708   */\n  pop\n    /* \"#utility.yul\":1388:1708   */\n  swap2\n  swap1\n  pop\n  jump\t// out\n    /* \"products.sol\":1923:6716  contract Product is Stakeholders,Processes {... */\ntag_12:\n  dataSize(sub_0)\n  dup1\n  dataOffset(sub_0)\n  0x00\n  codecopy\n  0x00\n  return\nstop\n\nsub_0: assembly {\n        /* \"products.sol\":1923:6716  contract Product is Stakeholders,Processes {... */\n      mstore(0x40, 0x80)\n      callvalue\n      dup1\n      iszero\n      tag_1\n      jumpi\n      0x00\n      dup1\n      revert\n    tag_1:\n      pop\n      jumpi(tag_2, lt(calldatasize, 0x04))\n      shr(0xe0, calldataload(0x00))\n      dup1\n      0x044373ee\n      eq\n      tag_3\n      jumpi\n      dup1\n      0x8f29695a\n      eq\n      tag_4\n      jumpi\n      dup1\n      0xaa82e6d5\n      eq\n      tag_5\n      jumpi\n      dup1\n      0xb9db15b4\n      eq\n      tag_6\n      jumpi\n      dup1\n      0xdb34d123\n      eq\n      tag_7\n      jumpi\n      dup1\n      0xe225b6ec\n      eq\n      tag_8\n      jumpi\n    tag_2:\n      0x00\n      dup1\n      revert\n        /* \"products.sol\":4427:5166  function addStakeholderToProduct(uint productID,string memory _name, uint supply, string memory _location, uint _temperature) public isAdminOrStakeholder isValidProductID(productID) isSupplyAcceptable(productID,supply){... */\n    tag_3:\n      tag_9\n      0x04\n      dup1\n      calldatasize\n      sub\n      dup2\n      add\n      swap1\n      tag_10\n      swap2\n      swap1\n      tag_11\n      jump\t// in\n    tag_10:\n      tag_12\n      jump\t// in\n    tag_9:\n      stop\n        /* \"products.sol\":3730:4417  function addProduct(string memory _name, uint _quantity, string memory _globalID) public isAdminOrStakeholder {... */\n    tag_4:\n      tag_13\n      0x04\n      dup1\n      calldatasize\n      sub\n      dup2\n      add\n      swap1\n      tag_14\n      swap2\n      swap1\n      tag_15\n      jump\t// in\n    tag_14:\n      tag_16\n      jump\t// in\n    tag_13:\n      stop\n        /* \"products.sol\":6400:6707  function finishPasteurization(uint productID) public isAdminOrStakeholder isValidProductID(productID) {... */\n    tag_5:\n      tag_17\n      0x04\n      dup1\n      calldatasize\n      sub\n      dup2\n      add\n      swap1\n      tag_18\n      swap2\n      swap1\n      tag_19\n      jump\t// in\n    tag_18:\n      tag_20\n      jump\t// in\n    tag_17:\n      stop\n        /* \"products.sol\":5650:6057  function getProduct(uint productID) public view isAdminOrStakeholder isValidProductID(productID) returns(uint, string memory,  uint, string memory, StakeholderDetails[] memory){... */\n    tag_6:\n      tag_21\n      0x04\n      dup1\n      calldatasize\n      sub\n      dup2\n      add\n      swap1\n      tag_22\n      swap2\n      swap1\n      tag_19\n      jump\t// in\n    tag_22:\n      tag_23\n      jump\t// in\n    tag_21:\n      mload(0x40)\n      tag_24\n      swap6\n      swap5\n      swap4\n      swap3\n      swap2\n      swap1\n      tag_25\n      jump\t// in\n    tag_24:\n      mload(0x40)\n      dup1\n      swap2\n      sub\n      swap1\n      return\n        /* \"products.sol\":5463:5642  function getProductQuantity(uint productID) public view isAdminOrStakeholder isValidProductID(productID) returns(uint){... */\n    tag_7:\n      tag_26\n      0x04\n      dup1\n      calldatasize\n      sub\n      dup2\n      add\n      swap1\n      tag_27\n      swap2\n      swap1\n      tag_19\n      jump\t// in\n    tag_27:\n      tag_28\n      jump\t// in\n    tag_26:\n      mload(0x40)\n      tag_29\n      swap2\n      swap1\n      tag_30\n      jump\t// in\n    tag_29:\n      mload(0x40)\n      dup1\n      swap2\n      sub\n      swap1\n      return\n        /* \"products.sol\":6169:6392  function getCurrStatus(uint productID) public view isValidProductID(productID) returns(uint) {... */\n    tag_8:\n      tag_31\n      0x04\n      dup1\n      calldatasize\n      sub\n      dup2\n      add\n      swap1\n      tag_32\n      swap2\n      swap1\n      tag_19\n      jump\t// in\n    tag_32:\n      tag_33\n      jump\t// in\n    tag_31:\n      mload(0x40)\n      tag_34\n      swap2\n      swap1\n      tag_30\n      jump\t// in\n    tag_34:\n      mload(0x40)\n      dup1\n      swap2\n      sub\n      swap1\n      return\n        /* \"products.sol\":4427:5166  function addStakeholderToProduct(uint productID,string memory _name, uint supply, string memory _location, uint _temperature) public isAdminOrStakeholder isValidProductID(productID) isSupplyAcceptable(productID,supply){... */\n    tag_12:\n        /* \"products.sol\":3274:3279  admin */\n      0x06\n      0x00\n      swap1\n      sload\n      swap1\n      0x0100\n      exp\n      swap1\n      div\n      0xffffffffffffffffffffffffffffffffffffffff\n      and\n        /* \"products.sol\":3260:3279  msg.sender == admin */\n      0xffffffffffffffffffffffffffffffffffffffff\n      and\n        /* \"products.sol\":3260:3270  msg.sender */\n      caller\n        /* \"products.sol\":3260:3279  msg.sender == admin */\n      0xffffffffffffffffffffffffffffffffffffffff\n      and\n      eq\n        /* \"products.sol\":3260:3308  msg.sender == admin || msg.sender == stakeholder */\n      dup1\n      tag_36\n      jumpi\n      pop\n        /* \"products.sol\":3297:3308  stakeholder */\n      0x05\n      0x00\n      swap1\n      sload\n      swap1\n      0x0100\n      exp\n      swap1\n      div\n      0xffffffffffffffffffffffffffffffffffffffff\n      and\n        /* \"products.sol\":3283:3308  msg.sender == stakeholder */\n      0xffffffffffffffffffffffffffffffffffffffff\n      and\n        /* \"products.sol\":3283:3293  msg.sender */\n      caller\n        /* \"products.sol\":3283:3308  msg.sender == stakeholder */\n      0xffffffffffffffffffffffffffffffffffffffff\n      and\n      eq\n        /* \"products.sol\":3260:3308  msg.sender == admin || msg.sender == stakeholder */\n    tag_36:\n        /* \"products.sol\":3252:3309  require(msg.sender == admin || msg.sender == stakeholder) */\n      tag_37\n      jumpi\n      0x00\n      dup1\n      revert\n    tag_37:\n        /* \"products.sol\":4598:4607  productID */\n      dup5\n        /* \"products.sol\":3457:3458  0 */\n      0x00\n        /* \"products.sol\":3444:3454  _productID */\n      dup2\n        /* \"products.sol\":3444:3458  _productID > 0 */\n      gt\n        /* \"products.sol\":3444:3488  _productID > 0 && _productID <= productCount */\n      dup1\n      iszero\n      tag_39\n      jumpi\n      pop\n        /* \"products.sol\":3476:3488  productCount */\n      sload(0x04)\n        /* \"products.sol\":3462:3472  _productID */\n      dup2\n        /* \"products.sol\":3462:3488  _productID <= productCount */\n      gt\n      iszero\n        /* \"products.sol\":3444:3488  _productID > 0 && _productID <= productCount */\n    tag_39:\n        /* \"products.sol\":3436:3489  require(_productID > 0 && _productID <= productCount) */\n      tag_40\n      jumpi\n      0x00\n      dup1\n      revert\n    tag_40:\n        /* \"products.sol\":4628:4637  productID */\n      dup6\n        /* \"products.sol\":4638:4644  supply */\n      dup5\n        /* \"products.sol\":3602:3617  product_details */\n      0x03\n        /* \"products.sol\":3602:3628  product_details[productID] */\n      0x00\n        /* \"products.sol\":3618:3627  productID */\n      dup4\n        /* \"products.sol\":3602:3628  product_details[productID] */\n      dup2\n      mstore\n      0x20\n      add\n      swap1\n      dup2\n      mstore\n      0x20\n      add\n      0x00\n      keccak256\n        /* \"products.sol\":3602:3637  product_details[productID].quantity */\n      0x02\n      add\n      sload\n        /* \"products.sol\":3592:3598  supply */\n      dup2\n        /* \"products.sol\":3592:3637  supply <= product_details[productID].quantity */\n      gt\n      iszero\n        /* \"products.sol\":3584:3638  require(supply <= product_details[productID].quantity) */\n      tag_42\n      jumpi\n      0x00\n      dup1\n      revert\n    tag_42:\n        /* \"products.sol\":4656:4707  addStakeholder(_name,supply,_location,_temperature) */\n      tag_44\n        /* \"products.sol\":4671:4676  _name */\n      dup8\n        /* \"products.sol\":4677:4683  supply */\n      dup8\n        /* \"products.sol\":4684:4693  _location */\n      dup8\n        /* \"products.sol\":4694:4706  _temperature */\n      dup8\n        /* \"products.sol\":4656:4670  addStakeholder */\n      tag_45\n        /* \"products.sol\":4656:4707  addStakeholder(_name,supply,_location,_temperature) */\n      jump\t// in\n    tag_44:\n        /* \"products.sol\":4718:4736  uint stakeholderId */\n      0x00\n        /* \"products.sol\":4739:4764  getNumberOfStakeholders() */\n      tag_46\n        /* \"products.sol\":4739:4762  getNumberOfStakeholders */\n      tag_47\n        /* \"products.sol\":4739:4764  getNumberOfStakeholders() */\n      jump\t// in\n    tag_46:\n        /* \"products.sol\":4718:4764  uint stakeholderId = getNumberOfStakeholders() */\n      swap1\n      pop\n        /* \"products.sol\":4775:4813  ProductDetails storage existingProduct */\n      0x00\n        /* \"products.sol\":4816:4831  product_details */\n      0x03\n        /* \"products.sol\":4816:4842  product_details[productID] */\n      0x00\n        /* \"products.sol\":4832:4841  productID */\n      dup12\n        /* \"products.sol\":4816:4842  product_details[productID] */\n      dup2\n      mstore\n      0x20\n      add\n      swap1\n      dup2\n      mstore\n      0x20\n      add\n      0x00\n      keccak256\n        /* \"products.sol\":4775:4842  ProductDetails storage existingProduct = product_details[productID] */\n      swap1\n      pop\n        /* \"products.sol\":4853:4868  existingProduct */\n      dup1\n        /* \"products.sol\":4853:4884  existingProduct.stakeholderList */\n      0x09\n      add\n        /* \"products.sol\":4890:4926  getStakeholderDetails(stakeholderId) */\n      tag_48\n        /* \"products.sol\":4912:4925  stakeholderId */\n      dup4\n        /* \"products.sol\":4890:4911  getStakeholderDetails */\n      tag_49\n        /* \"products.sol\":4890:4926  getStakeholderDetails(stakeholderId) */\n      jump\t// in\n    tag_48:\n        /* \"products.sol\":4853:4927  existingProduct.stakeholderList.push(getStakeholderDetails(stakeholderId)) */\n      swap1\n      dup1\n      0x01\n      dup2\n      sload\n      add\n      dup1\n      dup3\n      sstore\n      dup1\n      swap2\n      pop\n      pop\n      0x01\n      swap1\n      sub\n      swap1\n      0x00\n      mstore\n      keccak256(0x00, 0x20)\n      swap1\n      0x06\n      mul\n      add\n      0x00\n      swap1\n      swap2\n      swap1\n      swap2\n      swap1\n      swap2\n      pop\n      0x00\n      dup3\n      add\n      mload\n      dup2\n      0x00\n      add\n      sstore\n      0x20\n      dup3\n      add\n      mload\n      dup2\n      0x01\n      add\n      swap1\n      dup1\n      mload\n      swap1\n      0x20\n      add\n      swap1\n      tag_51\n      swap3\n      swap2\n      swap1\n      tag_52\n      jump\t// in\n    tag_51:\n      pop\n      0x40\n      dup3\n      add\n      mload\n      dup2\n      0x02\n      add\n      sstore\n      0x60\n      dup3\n      add\n      mload\n      dup2\n      0x03\n      add\n      sstore\n      0x80\n      dup3\n      add\n      mload\n      dup2\n      0x04\n      add\n      swap1\n      dup1\n      mload\n      swap1\n      0x20\n      add\n      swap1\n      tag_53\n      swap3\n      swap2\n      swap1\n      tag_52\n      jump\t// in\n    tag_53:\n      pop\n      0xa0\n      dup3\n      add\n      mload\n      dup2\n      0x05\n      add\n      sstore\n      pop\n      pop\n        /* \"products.sol\":4966:4972  supply */\n      dup8\n        /* \"products.sol\":4938:4953  existingProduct */\n      dup2\n        /* \"products.sol\":4938:4962  existingProduct.quantity */\n      0x02\n      add\n      0x00\n        /* \"products.sol\":4938:4972  existingProduct.quantity -= supply */\n      dup3\n      dup3\n      sload\n      tag_54\n      swap2\n      swap1\n      tag_55\n      jump\t// in\n    tag_54:\n      swap3\n      pop\n      pop\n      dup2\n      swap1\n      sstore\n      pop\n        /* \"products.sol\":5016:5017  0 */\n      0x00\n        /* \"products.sol\":4988:5003  existingProduct */\n      dup2\n        /* \"products.sol\":4988:5012  existingProduct.quantity */\n      0x02\n      add\n      sload\n        /* \"products.sol\":4988:5017  existingProduct.quantity == 0 */\n      sub\n        /* \"products.sol\":4985:5157  if(existingProduct.quantity == 0){... */\n      tag_56\n      jumpi\n        /* \"products.sol\":5033:5048  existingProduct */\n      dup1\n        /* \"products.sol\":5033:5059  existingProduct.currStatus */\n      0x0b\n      add\n      0x00\n        /* \"products.sol\":5033:5061  existingProduct.currStatus++ */\n      dup2\n      sload\n      dup1\n      swap3\n      swap2\n      swap1\n      tag_57\n      swap1\n      tag_58\n      jump\t// in\n    tag_57:\n      swap2\n      swap1\n      pop\n      sstore\n      pop\n        /* \"products.sol\":5141:5145  true */\n      0x01\n        /* \"products.sol\":5076:5091  existingProduct */\n      dup2\n        /* \"products.sol\":5076:5103  existingProduct.processList */\n      0x0a\n      add\n        /* \"products.sol\":5076:5131  existingProduct.processList[existingProduct.currStatus] */\n      0x00\n        /* \"products.sol\":5104:5119  existingProduct */\n      dup4\n        /* \"products.sol\":5104:5130  existingProduct.currStatus */\n      0x0b\n      add\n      sload\n        /* \"products.sol\":5076:5131  existingProduct.processList[existingProduct.currStatus] */\n      dup2\n      mstore\n      0x20\n      add\n      swap1\n      dup2\n      mstore\n      0x20\n      add\n      0x00\n      keccak256\n        /* \"products.sol\":5076:5138  existingProduct.processList[existingProduct.currStatus].active */\n      0x02\n      add\n      0x00\n        /* \"products.sol\":5076:5145  existingProduct.processList[existingProduct.currStatus].active = true */\n      0x0100\n      exp\n      dup2\n      sload\n      dup2\n      0xff\n      mul\n      not\n      and\n      swap1\n      dup4\n      iszero\n      iszero\n      mul\n      or\n      swap1\n      sstore\n      pop\n        /* \"products.sol\":4985:5157  if(existingProduct.quantity == 0){... */\n    tag_56:\n        /* \"products.sol\":4645:5166  {... */\n      pop\n      pop\n        /* \"products.sol\":3500:3501  _ */\n      pop\n      pop\n        /* \"products.sol\":3320:3321  _ */\n      pop\n        /* \"products.sol\":4427:5166  function addStakeholderToProduct(uint productID,string memory _name, uint supply, string memory _location, uint _temperature) public isAdminOrStakeholder isValidProductID(productID) isSupplyAcceptable(productID,supply){... */\n      pop\n      pop\n      pop\n      pop\n      pop\n      jump\t// out\n        /* \"products.sol\":3730:4417  function addProduct(string memory _name, uint _quantity, string memory _globalID) public isAdminOrStakeholder {... */\n    tag_16:\n        /* \"products.sol\":3274:3279  admin */\n      0x06\n      0x00\n      swap1\n      sload\n      swap1\n      0x0100\n      exp\n      swap1\n      div\n      0xffffffffffffffffffffffffffffffffffffffff\n      and\n        /* \"products.sol\":3260:3279  msg.sender == admin */\n      0xffffffffffffffffffffffffffffffffffffffff\n      and\n        /* \"products.sol\":3260:3270  msg.sender */\n      caller\n        /* \"products.sol\":3260:3279  msg.sender == admin */\n      0xffffffffffffffffffffffffffffffffffffffff\n      and\n      eq\n        /* \"products.sol\":3260:3308  msg.sender == admin || msg.sender == stakeholder */\n      dup1\n      tag_60\n      jumpi\n      pop\n        /* \"products.sol\":3297:3308  stakeholder */\n      0x05\n      0x00\n      swap1\n      sload\n      swap1\n      0x0100\n      exp\n      swap1\n      div\n      0xffffffffffffffffffffffffffffffffffffffff\n      and\n        /* \"products.sol\":3283:3308  msg.sender == stakeholder */\n      0xffffffffffffffffffffffffffffffffffffffff\n      and\n        /* \"products.sol\":3283:3293  msg.sender */\n      caller\n        /* \"products.sol\":3283:3308  msg.sender == stakeholder */\n      0xffffffffffffffffffffffffffffffffffffffff\n      and\n      eq\n        /* \"products.sol\":3260:3308  msg.sender == admin || msg.sender == stakeholder */\n    tag_60:\n        /* \"products.sol\":3252:3309  require(msg.sender == admin || msg.sender == stakeholder) */\n      tag_61\n      jumpi\n      0x00\n      dup1\n      revert\n    tag_61:\n        /* \"products.sol\":3851:3884  ProductDetails storage newProduct */\n      0x00\n        /* \"products.sol\":3887:3902  product_details */\n      0x03\n        /* \"products.sol\":3887:3918  product_details[++productCount] */\n      0x00\n        /* \"products.sol\":3905:3917  productCount */\n      0x04\n      0x00\n        /* \"products.sol\":3903:3917  ++productCount */\n      dup2\n      sload\n      tag_63\n      swap1\n      tag_58\n      jump\t// in\n    tag_63:\n      swap2\n      swap1\n      pop\n      dup2\n      swap1\n      sstore\n        /* \"products.sol\":3887:3918  product_details[++productCount] */\n      dup2\n      mstore\n      0x20\n      add\n      swap1\n      dup2\n      mstore\n      0x20\n      add\n      0x00\n      keccak256\n        /* \"products.sol\":3851:3918  ProductDetails storage newProduct = product_details[++productCount] */\n      swap1\n      pop\n        /* \"products.sol\":3945:3957  productCount */\n      sload(0x04)\n        /* \"products.sol\":3929:3939  newProduct */\n      dup2\n        /* \"products.sol\":3929:3942  newProduct.ID */\n      0x00\n      add\n        /* \"products.sol\":3929:3957  newProduct.ID = productCount */\n      dup2\n      swap1\n      sstore\n      pop\n        /* \"products.sol\":3986:3991  _name */\n      dup4\n        /* \"products.sol\":3968:3978  newProduct */\n      dup2\n        /* \"products.sol\":3968:3983  newProduct.name */\n      0x01\n      add\n        /* \"products.sol\":3968:3991  newProduct.name = _name */\n      swap1\n      dup1\n      mload\n      swap1\n      0x20\n      add\n      swap1\n      tag_64\n      swap3\n      swap2\n      swap1\n      tag_52\n      jump\t// in\n    tag_64:\n      pop\n        /* \"products.sol\":4024:4033  _quantity */\n      dup3\n        /* \"products.sol\":4002:4012  newProduct */\n      dup2\n        /* \"products.sol\":4002:4021  newProduct.quantity */\n      0x02\n      add\n        /* \"products.sol\":4002:4033  newProduct.quantity = _quantity */\n      dup2\n      swap1\n      sstore\n      pop\n        /* \"products.sol\":4066:4075  _globalID */\n      dup2\n        /* \"products.sol\":4044:4054  newProduct */\n      dup2\n        /* \"products.sol\":4044:4063  newProduct.globalID */\n      0x03\n      add\n        /* \"products.sol\":4044:4075  newProduct.globalID = _globalID */\n      swap1\n      dup1\n      mload\n      swap1\n      0x20\n      add\n      swap1\n      tag_65\n      swap3\n      swap2\n      swap1\n      tag_52\n      jump\t// in\n    tag_65:\n      pop\n        /* \"products.sol\":4116:4117  0 */\n      0x00\n        /* \"products.sol\":4086:4096  newProduct */\n      dup2\n        /* \"products.sol\":4086:4113  newProduct.stakeholderCount */\n      0x08\n      add\n        /* \"products.sol\":4086:4117  newProduct.stakeholderCount = 0 */\n      dup2\n      swap1\n      sstore\n      pop\n        /* \"products.sol\":4194:4201  uint id */\n      0x00\n        /* \"products.sol\":4202:4203  1 */\n      0x01\n        /* \"products.sol\":4194:4203  uint id=1 */\n      swap1\n      pop\n        /* \"products.sol\":4190:4292  for(uint id=1; id<=3; id++){... */\n    tag_66:\n        /* \"products.sol\":4209:4210  3 */\n      0x03\n        /* \"products.sol\":4205:4207  id */\n      dup2\n        /* \"products.sol\":4205:4210  id<=3 */\n      gt\n        /* \"products.sol\":4190:4292  for(uint id=1; id<=3; id++){... */\n      tag_67\n      jumpi\n        /* \"products.sol\":4261:4276  process_details */\n      0x02\n        /* \"products.sol\":4261:4280  process_details[id] */\n      0x00\n        /* \"products.sol\":4277:4279  id */\n      dup3\n        /* \"products.sol\":4261:4280  process_details[id] */\n      dup2\n      mstore\n      0x20\n      add\n      swap1\n      dup2\n      mstore\n      0x20\n      add\n      0x00\n      keccak256\n        /* \"products.sol\":4232:4242  newProduct */\n      dup3\n        /* \"products.sol\":4232:4254  newProduct.processList */\n      0x0a\n      add\n        /* \"products.sol\":4232:4258  newProduct.processList[id] */\n      0x00\n        /* \"products.sol\":4255:4257  id */\n      dup4\n        /* \"products.sol\":4232:4258  newProduct.processList[id] */\n      dup2\n      mstore\n      0x20\n      add\n      swap1\n      dup2\n      mstore\n      0x20\n      add\n      0x00\n      keccak256\n        /* \"products.sol\":4232:4280  newProduct.processList[id] = process_details[id] */\n      0x00\n      dup3\n      add\n      sload\n      dup2\n      0x00\n      add\n      sstore\n      0x01\n      dup3\n      add\n      dup2\n      0x01\n      add\n      swap1\n      dup1\n      sload\n      tag_69\n      swap1\n      tag_70\n      jump\t// in\n    tag_69:\n      tag_71\n      swap3\n      swap2\n      swap1\n      tag_72\n      jump\t// in\n    tag_71:\n      pop\n      0x02\n      dup3\n      add\n      0x00\n      swap1\n      sload\n      swap1\n      0x0100\n      exp\n      swap1\n      div\n      0xff\n      and\n      dup2\n      0x02\n      add\n      exp(0x0100, 0x00)\n      dup2\n      sload\n      dup2\n      0xff\n      mul\n      not\n      and\n      swap1\n      dup4\n      iszero\n      iszero\n      mul\n      or\n      swap1\n      sstore\n      pop\n      swap1\n      pop\n      pop\n        /* \"products.sol\":4212:4216  id++ */\n      dup1\n      dup1\n      tag_73\n      swap1\n      tag_58\n      jump\t// in\n    tag_73:\n      swap2\n      pop\n      pop\n        /* \"products.sol\":4190:4292  for(uint id=1; id<=3; id++){... */\n      jump(tag_66)\n    tag_67:\n      pop\n        /* \"products.sol\":4328:4329  1 */\n      0x01\n        /* \"products.sol\":4304:4314  newProduct */\n      dup2\n        /* \"products.sol\":4304:4325  newProduct.currStatus */\n      0x0b\n      add\n        /* \"products.sol\":4304:4329  newProduct.currStatus = 1 */\n      dup2\n      swap1\n      sstore\n      pop\n        /* \"products.sol\":4395:4399  true */\n      0x01\n        /* \"products.sol\":4340:4350  newProduct */\n      dup2\n        /* \"products.sol\":4340:4362  newProduct.processList */\n      0x0a\n      add\n        /* \"products.sol\":4340:4385  newProduct.processList[newProduct.currStatus] */\n      0x00\n        /* \"products.sol\":4363:4373  newProduct */\n      dup4\n        /* \"products.sol\":4363:4384  newProduct.currStatus */\n      0x0b\n      add\n      sload\n        /* \"products.sol\":4340:4385  newProduct.processList[newProduct.currStatus] */\n      dup2\n      mstore\n      0x20\n      add\n      swap1\n      dup2\n      mstore\n      0x20\n      add\n      0x00\n      keccak256\n        /* \"products.sol\":4340:4392  newProduct.processList[newProduct.currStatus].active */\n      0x02\n      add\n      0x00\n        /* \"products.sol\":4340:4399  newProduct.processList[newProduct.currStatus].active = true */\n      0x0100\n      exp\n      dup2\n      sload\n      dup2\n      0xff\n      mul\n      not\n      and\n      swap1\n      dup4\n      iszero\n      iszero\n      mul\n      or\n      swap1\n      sstore\n      pop\n        /* \"products.sol\":3840:4417  {... */\n      pop\n        /* \"products.sol\":3730:4417  function addProduct(string memory _name, uint _quantity, string memory _globalID) public isAdminOrStakeholder {... */\n      pop\n      pop\n      pop\n      jump\t// out\n        /* \"products.sol\":6400:6707  function finishPasteurization(uint productID) public isAdminOrStakeholder isValidProductID(productID) {... */\n    tag_20:\n        /* \"products.sol\":3274:3279  admin */\n      0x06\n      0x00\n      swap1\n      sload\n      swap1\n      0x0100\n      exp\n      swap1\n      div\n      0xffffffffffffffffffffffffffffffffffffffff\n      and\n        /* \"products.sol\":3260:3279  msg.sender == admin */\n      0xffffffffffffffffffffffffffffffffffffffff\n      and\n        /* \"products.sol\":3260:3270  msg.sender */\n      caller\n        /* \"products.sol\":3260:3279  msg.sender == admin */\n      0xffffffffffffffffffffffffffffffffffffffff\n      and\n      eq\n        /* \"products.sol\":3260:3308  msg.sender == admin || msg.sender == stakeholder */\n      dup1\n      tag_75\n      jumpi\n      pop\n        /* \"products.sol\":3297:3308  stakeholder */\n      0x05\n      0x00\n      swap1\n      sload\n      swap1\n      0x0100\n      exp\n      swap1\n      div\n      0xffffffffffffffffffffffffffffffffffffffff\n      and\n        /* \"products.sol\":3283:3308  msg.sender == stakeholder */\n      0xffffffffffffffffffffffffffffffffffffffff\n      and\n        /* \"products.sol\":3283:3293  msg.sender */\n      caller\n        /* \"products.sol\":3283:3308  msg.sender == stakeholder */\n      0xffffffffffffffffffffffffffffffffffffffff\n      and\n      eq\n        /* \"products.sol\":3260:3308  msg.sender == admin || msg.sender == stakeholder */\n    tag_75:\n        /* \"products.sol\":3252:3309  require(msg.sender == admin || msg.sender == stakeholder) */\n      tag_76\n      jumpi\n      0x00\n      dup1\n      revert\n    tag_76:\n        /* \"products.sol\":6491:6500  productID */\n      dup1\n        /* \"products.sol\":3457:3458  0 */\n      0x00\n        /* \"products.sol\":3444:3454  _productID */\n      dup2\n        /* \"products.sol\":3444:3458  _productID > 0 */\n      gt\n        /* \"products.sol\":3444:3488  _productID > 0 && _productID <= productCount */\n      dup1\n      iszero\n      tag_78\n      jumpi\n      pop\n        /* \"products.sol\":3476:3488  productCount */\n      sload(0x04)\n        /* \"products.sol\":3462:3472  _productID */\n      dup2\n        /* \"products.sol\":3462:3488  _productID <= productCount */\n      gt\n      iszero\n        /* \"products.sol\":3444:3488  _productID > 0 && _productID <= productCount */\n    tag_78:\n        /* \"products.sol\":3436:3489  require(_productID > 0 && _productID <= productCount) */\n      tag_79\n      jumpi\n      0x00\n      dup1\n      revert\n    tag_79:\n        /* \"products.sol\":6513:6551  ProductDetails storage existingProduct */\n      0x00\n        /* \"products.sol\":6554:6569  product_details */\n      0x03\n        /* \"products.sol\":6554:6580  product_details[productID] */\n      0x00\n        /* \"products.sol\":6570:6579  productID */\n      dup5\n        /* \"products.sol\":6554:6580  product_details[productID] */\n      dup2\n      mstore\n      0x20\n      add\n      swap1\n      dup2\n      mstore\n      0x20\n      add\n      0x00\n      keccak256\n        /* \"products.sol\":6513:6580  ProductDetails storage existingProduct = product_details[productID] */\n      swap1\n      pop\n        /* \"products.sol\":6591:6606  existingProduct */\n      dup1\n        /* \"products.sol\":6591:6617  existingProduct.currStatus */\n      0x0b\n      add\n      0x00\n        /* \"products.sol\":6591:6619  existingProduct.currStatus++ */\n      dup2\n      sload\n      dup1\n      swap3\n      swap2\n      swap1\n      tag_81\n      swap1\n      tag_58\n      jump\t// in\n    tag_81:\n      swap2\n      swap1\n      pop\n      sstore\n      pop\n        /* \"products.sol\":6695:6699  true */\n      0x01\n        /* \"products.sol\":6630:6645  existingProduct */\n      dup2\n        /* \"products.sol\":6630:6657  existingProduct.processList */\n      0x0a\n      add\n        /* \"products.sol\":6630:6685  existingProduct.processList[existingProduct.currStatus] */\n      0x00\n        /* \"products.sol\":6658:6673  existingProduct */\n      dup4\n        /* \"products.sol\":6658:6684  existingProduct.currStatus */\n      0x0b\n      add\n      sload\n        /* \"products.sol\":6630:6685  existingProduct.processList[existingProduct.currStatus] */\n      dup2\n      mstore\n      0x20\n      add\n      swap1\n      dup2\n      mstore\n      0x20\n      add\n      0x00\n      keccak256\n        /* \"products.sol\":6630:6692  existingProduct.processList[existingProduct.currStatus].active */\n      0x02\n      add\n      0x00\n        /* \"products.sol\":6630:6699  existingProduct.processList[existingProduct.currStatus].active = true */\n      0x0100\n      exp\n      dup2\n      sload\n      dup2\n      0xff\n      mul\n      not\n      and\n      swap1\n      dup4\n      iszero\n      iszero\n      mul\n      or\n      swap1\n      sstore\n      pop\n        /* \"products.sol\":6502:6707  {... */\n      pop\n        /* \"products.sol\":3320:3321  _ */\n      pop\n        /* \"products.sol\":6400:6707  function finishPasteurization(uint productID) public isAdminOrStakeholder isValidProductID(productID) {... */\n      pop\n      jump\t// out\n        /* \"products.sol\":5650:6057  function getProduct(uint productID) public view isAdminOrStakeholder isValidProductID(productID) returns(uint, string memory,  uint, string memory, StakeholderDetails[] memory){... */\n    tag_23:\n        /* \"products.sol\":5755:5759  uint */\n      0x00\n        /* \"products.sol\":5761:5774  string memory */\n      0x60\n        /* \"products.sol\":5777:5781  uint */\n      0x00\n        /* \"products.sol\":5783:5796  string memory */\n      0x60\n        /* \"products.sol\":5798:5825  StakeholderDetails[] memory */\n      dup1\n        /* \"products.sol\":3274:3279  admin */\n      0x06\n      0x00\n      swap1\n      sload\n      swap1\n      0x0100\n      exp\n      swap1\n      div\n      0xffffffffffffffffffffffffffffffffffffffff\n      and\n        /* \"products.sol\":3260:3279  msg.sender == admin */\n      0xffffffffffffffffffffffffffffffffffffffff\n      and\n        /* \"products.sol\":3260:3270  msg.sender */\n      caller\n        /* \"products.sol\":3260:3279  msg.sender == admin */\n      0xffffffffffffffffffffffffffffffffffffffff\n      and\n      eq\n        /* \"products.sol\":3260:3308  msg.sender == admin || msg.sender == stakeholder */\n      dup1\n      tag_83\n      jumpi\n      pop\n        /* \"products.sol\":3297:3308  stakeholder */\n      0x05\n      0x00\n      swap1\n      sload\n      swap1\n      0x0100\n      exp\n      swap1\n      div\n      0xffffffffffffffffffffffffffffffffffffffff\n      and\n        /* \"products.sol\":3283:3308  msg.sender == stakeholder */\n      0xffffffffffffffffffffffffffffffffffffffff\n      and\n        /* \"products.sol\":3283:3293  msg.sender */\n      caller\n        /* \"products.sol\":3283:3308  msg.sender == stakeholder */\n      0xffffffffffffffffffffffffffffffffffffffff\n      and\n      eq\n        /* \"products.sol\":3260:3308  msg.sender == admin || msg.sender == stakeholder */\n    tag_83:\n        /* \"products.sol\":3252:3309  require(msg.sender == admin || msg.sender == stakeholder) */\n      tag_84\n      jumpi\n      0x00\n      dup1\n      revert\n    tag_84:\n        /* \"products.sol\":5736:5745  productID */\n      dup6\n        /* \"products.sol\":3457:3458  0 */\n      0x00\n        /* \"products.sol\":3444:3454  _productID */\n      dup2\n        /* \"products.sol\":3444:3458  _productID > 0 */\n      gt\n        /* \"products.sol\":3444:3488  _productID > 0 && _productID <= productCount */\n      dup1\n      iszero\n      tag_86\n      jumpi\n      pop\n        /* \"products.sol\":3476:3488  productCount */\n      sload(0x04)\n        /* \"products.sol\":3462:3472  _productID */\n      dup2\n        /* \"products.sol\":3462:3488  _productID <= productCount */\n      gt\n      iszero\n        /* \"products.sol\":3444:3488  _productID > 0 && _productID <= productCount */\n    tag_86:\n        /* \"products.sol\":3436:3489  require(_productID > 0 && _productID <= productCount) */\n      tag_87\n      jumpi\n      0x00\n      dup1\n      revert\n    tag_87:\n        /* \"products.sol\":5837:5875  ProductDetails storage existingProduct */\n      0x00\n        /* \"products.sol\":5878:5893  product_details */\n      0x03\n        /* \"products.sol\":5878:5904  product_details[productID] */\n      0x00\n        /* \"products.sol\":5894:5903  productID */\n      dup10\n        /* \"products.sol\":5878:5904  product_details[productID] */\n      dup2\n      mstore\n      0x20\n      add\n      swap1\n      dup2\n      mstore\n      0x20\n      add\n      0x00\n      keccak256\n        /* \"products.sol\":5837:5904  ProductDetails storage existingProduct = product_details[productID] */\n      swap1\n      pop\n        /* \"products.sol\":5923:5938  existingProduct */\n      dup1\n        /* \"products.sol\":5923:5941  existingProduct.ID */\n      0x00\n      add\n      sload\n        /* \"products.sol\":5943:5958  existingProduct */\n      dup2\n        /* \"products.sol\":5943:5963  existingProduct.name */\n      0x01\n      add\n        /* \"products.sol\":5965:5980  existingProduct */\n      dup3\n        /* \"products.sol\":5965:5989  existingProduct.quantity */\n      0x02\n      add\n      sload\n        /* \"products.sol\":5991:6006  existingProduct */\n      dup4\n        /* \"products.sol\":5991:6015  existingProduct.globalID */\n      0x03\n      add\n        /* \"products.sol\":6016:6048  getProductStakeholder(productID) */\n      tag_89\n        /* \"products.sol\":6038:6047  productID */\n      dup13\n        /* \"products.sol\":6016:6037  getProductStakeholder */\n      tag_90\n        /* \"products.sol\":6016:6048  getProductStakeholder(productID) */\n      jump\t// in\n    tag_89:\n        /* \"products.sol\":5915:6049  return (existingProduct.ID, existingProduct.name, existingProduct.quantity, existingProduct.globalID,getProductStakeholder(productID)) */\n      dup4\n      dup1\n      sload\n      tag_91\n      swap1\n      tag_70\n      jump\t// in\n    tag_91:\n      dup1\n      0x1f\n      add\n      0x20\n      dup1\n      swap2\n      div\n      mul\n      0x20\n      add\n      mload(0x40)\n      swap1\n      dup2\n      add\n      0x40\n      mstore\n      dup1\n      swap3\n      swap2\n      swap1\n      dup2\n      dup2\n      mstore\n      0x20\n      add\n      dup3\n      dup1\n      sload\n      tag_92\n      swap1\n      tag_70\n      jump\t// in\n    tag_92:\n      dup1\n      iszero\n      tag_93\n      jumpi\n      dup1\n      0x1f\n      lt\n      tag_94\n      jumpi\n      0x0100\n      dup1\n      dup4\n      sload\n      div\n      mul\n      dup4\n      mstore\n      swap2\n      0x20\n      add\n      swap2\n      jump(tag_93)\n    tag_94:\n      dup3\n      add\n      swap2\n      swap1\n      0x00\n      mstore\n      keccak256(0x00, 0x20)\n      swap1\n    tag_95:\n      dup2\n      sload\n      dup2\n      mstore\n      swap1\n      0x01\n      add\n      swap1\n      0x20\n      add\n      dup1\n      dup4\n      gt\n      tag_95\n      jumpi\n      dup3\n      swap1\n      sub\n      0x1f\n      and\n      dup3\n      add\n      swap2\n    tag_93:\n      pop\n      pop\n      pop\n      pop\n      pop\n      swap4\n      pop\n      dup2\n      dup1\n      sload\n      tag_96\n      swap1\n      tag_70\n      jump\t// in\n    tag_96:\n      dup1\n      0x1f\n      add\n      0x20\n      dup1\n      swap2\n      div\n      mul\n      0x20\n      add\n      mload(0x40)\n      swap1\n      dup2\n      add\n      0x40\n      mstore\n      dup1\n      swap3\n      swap2\n      swap1\n      dup2\n      dup2\n      mstore\n      0x20\n      add\n      dup3\n      dup1\n      sload\n      tag_97\n      swap1\n      tag_70\n      jump\t// in\n    tag_97:\n      dup1\n      iszero\n      tag_98\n      jumpi\n      dup1\n      0x1f\n      lt\n      tag_99\n      jumpi\n      0x0100\n      dup1\n      dup4\n      sload\n      div\n      mul\n      dup4\n      mstore\n      swap2\n      0x20\n      add\n      swap2\n      jump(tag_98)\n    tag_99:\n      dup3\n      add\n      swap2\n      swap1\n      0x00\n      mstore\n      keccak256(0x00, 0x20)\n      swap1\n    tag_100:\n      dup2\n      sload\n      dup2\n      mstore\n      swap1\n      0x01\n      add\n      swap1\n      0x20\n      add\n      dup1\n      dup4\n      gt\n      tag_100\n      jumpi\n      dup3\n      swap1\n      sub\n      0x1f\n      and\n      dup3\n      add\n      swap2\n    tag_98:\n      pop\n      pop\n      pop\n      pop\n      pop\n      swap2\n      pop\n      swap7\n      pop\n      swap7\n      pop\n      swap7\n      pop\n      swap7\n      pop\n      swap7\n      pop\n      pop\n        /* \"products.sol\":3320:3321  _ */\n      pop\n        /* \"products.sol\":5650:6057  function getProduct(uint productID) public view isAdminOrStakeholder isValidProductID(productID) returns(uint, string memory,  uint, string memory, StakeholderDetails[] memory){... */\n      swap2\n      swap4\n      swap6\n      swap1\n      swap3\n      swap5\n      pop\n      jump\t// out\n        /* \"products.sol\":5463:5642  function getProductQuantity(uint productID) public view isAdminOrStakeholder isValidProductID(productID) returns(uint){... */\n    tag_28:\n        /* \"products.sol\":5576:5580  uint */\n      0x00\n        /* \"products.sol\":3274:3279  admin */\n      0x06\n      0x00\n      swap1\n      sload\n      swap1\n      0x0100\n      exp\n      swap1\n      div\n      0xffffffffffffffffffffffffffffffffffffffff\n      and\n        /* \"products.sol\":3260:3279  msg.sender == admin */\n      0xffffffffffffffffffffffffffffffffffffffff\n      and\n        /* \"products.sol\":3260:3270  msg.sender */\n      caller\n        /* \"products.sol\":3260:3279  msg.sender == admin */\n      0xffffffffffffffffffffffffffffffffffffffff\n      and\n      eq\n        /* \"products.sol\":3260:3308  msg.sender == admin || msg.sender == stakeholder */\n      dup1\n      tag_102\n      jumpi\n      pop\n        /* \"products.sol\":3297:3308  stakeholder */\n      0x05\n      0x00\n      swap1\n      sload\n      swap1\n      0x0100\n      exp\n      swap1\n      div\n      0xffffffffffffffffffffffffffffffffffffffff\n      and\n        /* \"products.sol\":3283:3308  msg.sender == stakeholder */\n      0xffffffffffffffffffffffffffffffffffffffff\n      and\n        /* \"products.sol\":3283:3293  msg.sender */\n      caller\n        /* \"products.sol\":3283:3308  msg.sender == stakeholder */\n      0xffffffffffffffffffffffffffffffffffffffff\n      and\n      eq\n        /* \"products.sol\":3260:3308  msg.sender == admin || msg.sender == stakeholder */\n    tag_102:\n        /* \"products.sol\":3252:3309  require(msg.sender == admin || msg.sender == stakeholder) */\n      tag_103\n      jumpi\n      0x00\n      dup1\n      revert\n    tag_103:\n        /* \"products.sol\":5557:5566  productID */\n      dup2\n        /* \"products.sol\":3457:3458  0 */\n      0x00\n        /* \"products.sol\":3444:3454  _productID */\n      dup2\n        /* \"products.sol\":3444:3458  _productID > 0 */\n      gt\n        /* \"products.sol\":3444:3488  _productID > 0 && _productID <= productCount */\n      dup1\n      iszero\n      tag_105\n      jumpi\n      pop\n        /* \"products.sol\":3476:3488  productCount */\n      sload(0x04)\n        /* \"products.sol\":3462:3472  _productID */\n      dup2\n        /* \"products.sol\":3462:3488  _productID <= productCount */\n      gt\n      iszero\n        /* \"products.sol\":3444:3488  _productID > 0 && _productID <= productCount */\n    tag_105:\n        /* \"products.sol\":3436:3489  require(_productID > 0 && _productID <= productCount) */\n      tag_106\n      jumpi\n      0x00\n      dup1\n      revert\n    tag_106:\n        /* \"products.sol\":5599:5614  product_details */\n      0x03\n        /* \"products.sol\":5599:5625  product_details[productID] */\n      0x00\n        /* \"products.sol\":5615:5624  productID */\n      dup5\n        /* \"products.sol\":5599:5625  product_details[productID] */\n      dup2\n      mstore\n      0x20\n      add\n      swap1\n      dup2\n      mstore\n      0x20\n      add\n      0x00\n      keccak256\n        /* \"products.sol\":5599:5634  product_details[productID].quantity */\n      0x02\n      add\n      sload\n        /* \"products.sol\":5592:5634  return product_details[productID].quantity */\n      swap2\n      pop\n        /* \"products.sol\":3320:3321  _ */\n      pop\n        /* \"products.sol\":5463:5642  function getProductQuantity(uint productID) public view isAdminOrStakeholder isValidProductID(productID) returns(uint){... */\n      swap2\n      swap1\n      pop\n      jump\t// out\n        /* \"products.sol\":6169:6392  function getCurrStatus(uint productID) public view isValidProductID(productID) returns(uint) {... */\n    tag_33:\n        /* \"products.sol\":6256:6260  uint */\n      0x00\n        /* \"products.sol\":6237:6246  productID */\n      dup2\n        /* \"products.sol\":3457:3458  0 */\n      0x00\n        /* \"products.sol\":3444:3454  _productID */\n      dup2\n        /* \"products.sol\":3444:3458  _productID > 0 */\n      gt\n        /* \"products.sol\":3444:3488  _productID > 0 && _productID <= productCount */\n      dup1\n      iszero\n      tag_109\n      jumpi\n      pop\n        /* \"products.sol\":3476:3488  productCount */\n      sload(0x04)\n        /* \"products.sol\":3462:3472  _productID */\n      dup2\n        /* \"products.sol\":3462:3488  _productID <= productCount */\n      gt\n      iszero\n        /* \"products.sol\":3444:3488  _productID > 0 && _productID <= productCount */\n    tag_109:\n        /* \"products.sol\":3436:3489  require(_productID > 0 && _productID <= productCount) */\n      tag_110\n      jumpi\n      0x00\n      dup1\n      revert\n    tag_110:\n        /* \"products.sol\":6273:6311  ProductDetails storage existingProduct */\n      0x00\n        /* \"products.sol\":6314:6329  product_details */\n      0x03\n        /* \"products.sol\":6314:6340  product_details[productID] */\n      0x00\n        /* \"products.sol\":6330:6339  productID */\n      dup6\n        /* \"products.sol\":6314:6340  product_details[productID] */\n      dup2\n      mstore\n      0x20\n      add\n      swap1\n      dup2\n      mstore\n      0x20\n      add\n      0x00\n      keccak256\n        /* \"products.sol\":6273:6340  ProductDetails storage existingProduct = product_details[productID] */\n      swap1\n      pop\n        /* \"products.sol\":6358:6373  existingProduct */\n      dup1\n        /* \"products.sol\":6358:6384  existingProduct.currStatus */\n      0x0b\n      add\n      sload\n        /* \"products.sol\":6351:6384  return existingProduct.currStatus */\n      swap3\n      pop\n      pop\n        /* \"products.sol\":6169:6392  function getCurrStatus(uint productID) public view isValidProductID(productID) returns(uint) {... */\n      pop\n      swap2\n      swap1\n      pop\n      jump\t// out\n        /* \"products.sol\":388:886  function addStakeholder(string memory _name, uint supply, string memory _location, uint _temperature) internal {... */\n    tag_45:\n        /* \"products.sol\":510:551  StakeholderDetails storage newStakeholder */\n      0x00\n        /* \"products.sol\":554:573  stakeholder_details */\n      dup1\n        /* \"products.sol\":554:593  stakeholder_details[++stakeholderCount] */\n      0x00\n        /* \"products.sol\":576:592  stakeholderCount */\n      0x01\n      0x00\n        /* \"products.sol\":574:592  ++stakeholderCount */\n      dup2\n      sload\n      tag_113\n      swap1\n      tag_58\n      jump\t// in\n    tag_113:\n      swap2\n      swap1\n      pop\n      dup2\n      swap1\n      sstore\n        /* \"products.sol\":554:593  stakeholder_details[++stakeholderCount] */\n      dup2\n      mstore\n      0x20\n      add\n      swap1\n      dup2\n      mstore\n      0x20\n      add\n      0x00\n      keccak256\n        /* \"products.sol\":510:593  StakeholderDetails storage newStakeholder = stakeholder_details[++stakeholderCount] */\n      swap1\n      pop\n        /* \"products.sol\":624:640  stakeholderCount */\n      sload(0x01)\n        /* \"products.sol\":604:618  newStakeholder */\n      dup2\n        /* \"products.sol\":604:621  newStakeholder.id */\n      0x00\n      add\n        /* \"products.sol\":604:640  newStakeholder.id = stakeholderCount */\n      dup2\n      swap1\n      sstore\n      pop\n        /* \"products.sol\":673:678  _name */\n      dup5\n        /* \"products.sol\":651:665  newStakeholder */\n      dup2\n        /* \"products.sol\":651:670  newStakeholder.name */\n      0x01\n      add\n        /* \"products.sol\":651:678  newStakeholder.name = _name */\n      swap1\n      dup1\n      mload\n      swap1\n      0x20\n      add\n      swap1\n      tag_114\n      swap3\n      swap2\n      swap1\n      tag_52\n      jump\t// in\n    tag_114:\n      pop\n        /* \"products.sol\":716:731  block.timestamp */\n      timestamp\n        /* \"products.sol\":689:703  newStakeholder */\n      dup2\n        /* \"products.sol\":689:713  newStakeholder.timestamp */\n      0x02\n      add\n        /* \"products.sol\":689:731  newStakeholder.timestamp = block.timestamp */\n      dup2\n      swap1\n      sstore\n      pop\n        /* \"products.sol\":774:780  supply */\n      dup4\n        /* \"products.sol\":742:756  newStakeholder */\n      dup2\n        /* \"products.sol\":742:771  newStakeholder.quantitySupply */\n      0x03\n      add\n        /* \"products.sol\":742:780  newStakeholder.quantitySupply = supply */\n      dup2\n      swap1\n      sstore\n      pop\n        /* \"products.sol\":817:826  _location */\n      dup3\n        /* \"products.sol\":791:805  newStakeholder */\n      dup2\n        /* \"products.sol\":791:814  newStakeholder.location */\n      0x04\n      add\n        /* \"products.sol\":791:826  newStakeholder.location = _location */\n      swap1\n      dup1\n      mload\n      swap1\n      0x20\n      add\n      swap1\n      tag_115\n      swap3\n      swap2\n      swap1\n      tag_52\n      jump\t// in\n    tag_115:\n      pop\n        /* \"products.sol\":866:878  _temperature */\n      dup2\n        /* \"products.sol\":837:851  newStakeholder */\n      dup2\n        /* \"products.sol\":837:863  newStakeholder.temperature */\n      0x05\n      add\n        /* \"products.sol\":837:878  newStakeholder.temperature = _temperature */\n      dup2\n      swap1\n      sstore\n      pop\n        /* \"products.sol\":499:886  {... */\n      pop\n        /* \"products.sol\":388:886  function addStakeholder(string memory _name, uint supply, string memory _location, uint _temperature) internal {... */\n      pop\n      pop\n      pop\n      pop\n      jump\t// out\n        /* \"products.sol\":1063:1169  function getNumberOfStakeholders() internal view returns (uint) {... */\n    tag_47:\n        /* \"products.sol\":1121:1125  uint */\n      0x00\n        /* \"products.sol\":1145:1161  stakeholderCount */\n      sload(0x01)\n        /* \"products.sol\":1138:1161  return stakeholderCount */\n      swap1\n      pop\n        /* \"products.sol\":1063:1169  function getNumberOfStakeholders() internal view returns (uint) {... */\n      swap1\n      jump\t// out\n        /* \"products.sol\":894:1055  function getStakeholderDetails(uint stakeholderID) internal view returns (StakeholderDetails memory) {... */\n    tag_49:\n        /* \"products.sol\":968:993  StakeholderDetails memory */\n      tag_117\n      tag_118\n      jump\t// in\n    tag_117:\n        /* \"products.sol\":1013:1032  stakeholder_details */\n      0x00\n        /* \"products.sol\":1013:1047  stakeholder_details[stakeholderID] */\n      dup1\n        /* \"products.sol\":1033:1046  stakeholderID */\n      dup4\n        /* \"products.sol\":1013:1047  stakeholder_details[stakeholderID] */\n      dup2\n      mstore\n      0x20\n      add\n      swap1\n      dup2\n      mstore\n      0x20\n      add\n      0x00\n      keccak256\n        /* \"products.sol\":1006:1047  return stakeholder_details[stakeholderID] */\n      mload(0x40)\n      dup1\n      0xc0\n      add\n      0x40\n      mstore\n      swap1\n      dup2\n      0x00\n      dup3\n      add\n      sload\n      dup2\n      mstore\n      0x20\n      add\n      0x01\n      dup3\n      add\n      dup1\n      sload\n      tag_120\n      swap1\n      tag_70\n      jump\t// in\n    tag_120:\n      dup1\n      0x1f\n      add\n      0x20\n      dup1\n      swap2\n      div\n      mul\n      0x20\n      add\n      mload(0x40)\n      swap1\n      dup2\n      add\n      0x40\n      mstore\n      dup1\n      swap3\n      swap2\n      swap1\n      dup2\n      dup2\n      mstore\n      0x20\n      add\n      dup3\n      dup1\n      sload\n      tag_121\n      swap1\n      tag_70\n      jump\t// in\n    tag_121:\n      dup1\n      iszero\n      tag_122\n      jumpi\n      dup1\n      0x1f\n      lt\n      tag_123\n      jumpi\n      0x0100\n      dup1\n      dup4\n      sload\n      div\n      mul\n      dup4\n      mstore\n      swap2\n      0x20\n      add\n      swap2\n      jump(tag_122)\n    tag_123:\n      dup3\n      add\n      swap2\n      swap1\n      0x00\n      mstore\n      keccak256(0x00, 0x20)\n      swap1\n    tag_124:\n      dup2\n      sload\n      dup2\n      mstore\n      swap1\n      0x01\n      add\n      swap1\n      0x20\n      add\n      dup1\n      dup4\n      gt\n      tag_124\n      jumpi\n      dup3\n      swap1\n      sub\n      0x1f\n      and\n      dup3\n      add\n      swap2\n    tag_122:\n      pop\n      pop\n      pop\n      pop\n      pop\n      dup2\n      mstore\n      0x20\n      add\n      0x02\n      dup3\n      add\n      sload\n      dup2\n      mstore\n      0x20\n      add\n      0x03\n      dup3\n      add\n      sload\n      dup2\n      mstore\n      0x20\n      add\n      0x04\n      dup3\n      add\n      dup1\n      sload\n      tag_125\n      swap1\n      tag_70\n      jump\t// in\n    tag_125:\n      dup1\n      0x1f\n      add\n      0x20\n      dup1\n      swap2\n      div\n      mul\n      0x20\n      add\n      mload(0x40)\n      swap1\n      dup2\n      add\n      0x40\n      mstore\n      dup1\n      swap3\n      swap2\n      swap1\n      dup2\n      dup2\n      mstore\n      0x20\n      add\n      dup3\n      dup1\n      sload\n      tag_126\n      swap1\n      tag_70\n      jump\t// in\n    tag_126:\n      dup1\n      iszero\n      tag_127\n      jumpi\n      dup1\n      0x1f\n      lt\n      tag_128\n      jumpi\n      0x0100\n      dup1\n      dup4\n      sload\n      div\n      mul\n      dup4\n      mstore\n      swap2\n      0x20\n      add\n      swap2\n      jump(tag_127)\n    tag_128:\n      dup3\n      add\n      swap2\n      swap1\n      0x00\n      mstore\n      keccak256(0x00, 0x20)\n      swap1\n    tag_129:\n      dup2\n      sload\n      dup2\n      mstore\n      swap1\n      0x01\n      add\n      swap1\n      0x20\n      add\n      dup1\n      dup4\n      gt\n      tag_129\n      jumpi\n      dup3\n      swap1\n      sub\n      0x1f\n      and\n      dup3\n      add\n      swap2\n    tag_127:\n      pop\n      pop\n      pop\n      pop\n      pop\n      dup2\n      mstore\n      0x20\n      add\n      0x05\n      dup3\n      add\n      sload\n      dup2\n      mstore\n      pop\n      pop\n      swap1\n      pop\n        /* \"products.sol\":894:1055  function getStakeholderDetails(uint stakeholderID) internal view returns (StakeholderDetails memory) {... */\n      swap2\n      swap1\n      pop\n      jump\t// out\n        /* \"products.sol\":5174:5455  function getProductStakeholder(uint productID) private view isAdminOrStakeholder isValidProductID(productID) returns (StakeholderDetails[] memory){... */\n    tag_90:\n        /* \"products.sol\":5292:5319  StakeholderDetails[] memory */\n      0x60\n        /* \"products.sol\":3274:3279  admin */\n      0x06\n      0x00\n      swap1\n      sload\n      swap1\n      0x0100\n      exp\n      swap1\n      div\n      0xffffffffffffffffffffffffffffffffffffffff\n      and\n        /* \"products.sol\":3260:3279  msg.sender == admin */\n      0xffffffffffffffffffffffffffffffffffffffff\n      and\n        /* \"products.sol\":3260:3270  msg.sender */\n      caller\n        /* \"products.sol\":3260:3279  msg.sender == admin */\n      0xffffffffffffffffffffffffffffffffffffffff\n      and\n      eq\n        /* \"products.sol\":3260:3308  msg.sender == admin || msg.sender == stakeholder */\n      dup1\n      tag_131\n      jumpi\n      pop\n        /* \"products.sol\":3297:3308  stakeholder */\n      0x05\n      0x00\n      swap1\n      sload\n      swap1\n      0x0100\n      exp\n      swap1\n      div\n      0xffffffffffffffffffffffffffffffffffffffff\n      and\n        /* \"products.sol\":3283:3308  msg.sender == stakeholder */\n      0xffffffffffffffffffffffffffffffffffffffff\n      and\n        /* \"products.sol\":3283:3293  msg.sender */\n      caller\n        /* \"products.sol\":3283:3308  msg.sender == stakeholder */\n      0xffffffffffffffffffffffffffffffffffffffff\n      and\n      eq\n        /* \"products.sol\":3260:3308  msg.sender == admin || msg.sender == stakeholder */\n    tag_131:\n        /* \"products.sol\":3252:3309  require(msg.sender == admin || msg.sender == stakeholder) */\n      tag_132\n      jumpi\n      0x00\n      dup1\n      revert\n    tag_132:\n        /* \"products.sol\":5272:5281  productID */\n      dup2\n        /* \"products.sol\":3457:3458  0 */\n      0x00\n        /* \"products.sol\":3444:3454  _productID */\n      dup2\n        /* \"products.sol\":3444:3458  _productID > 0 */\n      gt\n        /* \"products.sol\":3444:3488  _productID > 0 && _productID <= productCount */\n      dup1\n      iszero\n      tag_134\n      jumpi\n      pop\n        /* \"products.sol\":3476:3488  productCount */\n      sload(0x04)\n        /* \"products.sol\":3462:3472  _productID */\n      dup2\n        /* \"products.sol\":3462:3488  _productID <= productCount */\n      gt\n      iszero\n        /* \"products.sol\":3444:3488  _productID > 0 && _productID <= productCount */\n    tag_134:\n        /* \"products.sol\":3436:3489  require(_productID > 0 && _productID <= productCount) */\n      tag_135\n      jumpi\n      0x00\n      dup1\n      revert\n    tag_135:\n        /* \"products.sol\":5331:5369  ProductDetails storage existingProduct */\n      0x00\n        /* \"products.sol\":5372:5387  product_details */\n      0x03\n        /* \"products.sol\":5372:5398  product_details[productID] */\n      0x00\n        /* \"products.sol\":5388:5397  productID */\n      dup6\n        /* \"products.sol\":5372:5398  product_details[productID] */\n      dup2\n      mstore\n      0x20\n      add\n      swap1\n      dup2\n      mstore\n      0x20\n      add\n      0x00\n      keccak256\n        /* \"products.sol\":5331:5398  ProductDetails storage existingProduct = product_details[productID] */\n      swap1\n      pop\n        /* \"products.sol\":5416:5431  existingProduct */\n      dup1\n        /* \"products.sol\":5416:5447  existingProduct.stakeholderList */\n      0x09\n      add\n        /* \"products.sol\":5409:5447  return existingProduct.stakeholderList */\n      dup1\n      sload\n      dup1\n      0x20\n      mul\n      0x20\n      add\n      mload(0x40)\n      swap1\n      dup2\n      add\n      0x40\n      mstore\n      dup1\n      swap3\n      swap2\n      swap1\n      dup2\n      dup2\n      mstore\n      0x20\n      add\n      0x00\n      swap1\n    tag_137:\n      dup3\n      dup3\n      lt\n      iszero\n      tag_138\n      jumpi\n      dup4\n      dup3\n      swap1\n      0x00\n      mstore\n      keccak256(0x00, 0x20)\n      swap1\n      0x06\n      mul\n      add\n      mload(0x40)\n      dup1\n      0xc0\n      add\n      0x40\n      mstore\n      swap1\n      dup2\n      0x00\n      dup3\n      add\n      sload\n      dup2\n      mstore\n      0x20\n      add\n      0x01\n      dup3\n      add\n      dup1\n      sload\n      tag_140\n      swap1\n      tag_70\n      jump\t// in\n    tag_140:\n      dup1\n      0x1f\n      add\n      0x20\n      dup1\n      swap2\n      div\n      mul\n      0x20\n      add\n      mload(0x40)\n      swap1\n      dup2\n      add\n      0x40\n      mstore\n      dup1\n      swap3\n      swap2\n      swap1\n      dup2\n      dup2\n      mstore\n      0x20\n      add\n      dup3\n      dup1\n      sload\n      tag_141\n      swap1\n      tag_70\n      jump\t// in\n    tag_141:\n      dup1\n      iszero\n      tag_142\n      jumpi\n      dup1\n      0x1f\n      lt\n      tag_143\n      jumpi\n      0x0100\n      dup1\n      dup4\n      sload\n      div\n      mul\n      dup4\n      mstore\n      swap2\n      0x20\n      add\n      swap2\n      jump(tag_142)\n    tag_143:\n      dup3\n      add\n      swap2\n      swap1\n      0x00\n      mstore\n      keccak256(0x00, 0x20)\n      swap1\n    tag_144:\n      dup2\n      sload\n      dup2\n      mstore\n      swap1\n      0x01\n      add\n      swap1\n      0x20\n      add\n      dup1\n      dup4\n      gt\n      tag_144\n      jumpi\n      dup3\n      swap1\n      sub\n      0x1f\n      and\n      dup3\n      add\n      swap2\n    tag_142:\n      pop\n      pop\n      pop\n      pop\n      pop\n      dup2\n      mstore\n      0x20\n      add\n      0x02\n      dup3\n      add\n      sload\n      dup2\n      mstore\n      0x20\n      add\n      0x03\n      dup3\n      add\n      sload\n      dup2\n      mstore\n      0x20\n      add\n      0x04\n      dup3\n      add\n      dup1\n      sload\n      tag_145\n      swap1\n      tag_70\n      jump\t// in\n    tag_145:\n      dup1\n      0x1f\n      add\n      0x20\n      dup1\n      swap2\n      div\n      mul\n      0x20\n      add\n      mload(0x40)\n      swap1\n      dup2\n      add\n      0x40\n      mstore\n      dup1\n      swap3\n      swap2\n      swap1\n      dup2\n      dup2\n      mstore\n      0x20\n      add\n      dup3\n      dup1\n      sload\n      tag_146\n      swap1\n      tag_70\n      jump\t// in\n    tag_146:\n      dup1\n      iszero\n      tag_147\n      jumpi\n      dup1\n      0x1f\n      lt\n      tag_148\n      jumpi\n      0x0100\n      dup1\n      dup4\n      sload\n      div\n      mul\n      dup4\n      mstore\n      swap2\n      0x20\n      add\n      swap2\n      jump(tag_147)\n    tag_148:\n      dup3\n      add\n      swap2\n      swap1\n      0x00\n      mstore\n      keccak256(0x00, 0x20)\n      swap1\n    tag_149:\n      dup2\n      sload\n      dup2\n      mstore\n      swap1\n      0x01\n      add\n      swap1\n      0x20\n      add\n      dup1\n      dup4\n      gt\n      tag_149\n      jumpi\n      dup3\n      swap1\n      sub\n      0x1f\n      and\n      dup3\n      add\n      swap2\n    tag_147:\n      pop\n      pop\n      pop\n      pop\n      pop\n      dup2\n      mstore\n      0x20\n      add\n      0x05\n      dup3\n      add\n      sload\n      dup2\n      mstore\n      pop\n      pop\n      dup2\n      mstore\n      0x20\n      add\n      swap1\n      0x01\n      add\n      swap1\n      jump(tag_137)\n    tag_138:\n      pop\n      pop\n      pop\n      pop\n      swap3\n      pop\n      pop\n        /* \"products.sol\":3320:3321  _ */\n      pop\n        /* \"products.sol\":5174:5455  function getProductStakeholder(uint productID) private view isAdminOrStakeholder isValidProductID(productID) returns (StakeholderDetails[] memory){... */\n      swap2\n      swap1\n      pop\n      jump\t// out\n    tag_52:\n      dup3\n      dup1\n      sload\n      tag_150\n      swap1\n      tag_70\n      jump\t// in\n    tag_150:\n      swap1\n      0x00\n      mstore\n      keccak256(0x00, 0x20)\n      swap1\n      0x1f\n      add\n      0x20\n      swap1\n      div\n      dup2\n      add\n      swap3\n      dup3\n      tag_152\n      jumpi\n      0x00\n      dup6\n      sstore\n      jump(tag_151)\n    tag_152:\n      dup3\n      0x1f\n      lt\n      tag_153\n      jumpi\n      dup1\n      mload\n      not(0xff)\n      and\n      dup4\n      dup1\n      add\n      or\n      dup6\n      sstore\n      jump(tag_151)\n    tag_153:\n      dup3\n      dup1\n      add\n      0x01\n      add\n      dup6\n      sstore\n      dup3\n      iszero\n      tag_151\n      jumpi\n      swap2\n      dup3\n      add\n    tag_154:\n      dup3\n      dup2\n      gt\n      iszero\n      tag_155\n      jumpi\n      dup3\n      mload\n      dup3\n      sstore\n      swap2\n      0x20\n      add\n      swap2\n      swap1\n      0x01\n      add\n      swap1\n      jump(tag_154)\n    tag_155:\n    tag_151:\n      pop\n      swap1\n      pop\n      tag_156\n      swap2\n      swap1\n      tag_157\n      jump\t// in\n    tag_156:\n      pop\n      swap1\n      jump\t// out\n    tag_72:\n      dup3\n      dup1\n      sload\n      tag_158\n      swap1\n      tag_70\n      jump\t// in\n    tag_158:\n      swap1\n      0x00\n      mstore\n      keccak256(0x00, 0x20)\n      swap1\n      0x1f\n      add\n      0x20\n      swap1\n      div\n      dup2\n      add\n      swap3\n      dup3\n      tag_160\n      jumpi\n      0x00\n      dup6\n      sstore\n      jump(tag_159)\n    tag_160:\n      dup3\n      0x1f\n      lt\n      tag_161\n      jumpi\n      dup1\n      sload\n      dup6\n      sstore\n      jump(tag_159)\n    tag_161:\n      dup3\n      dup1\n      add\n      0x01\n      add\n      dup6\n      sstore\n      dup3\n      iszero\n      tag_159\n      jumpi\n      0x00\n      mstore\n      keccak256(0x00, 0x20)\n      swap2\n      0x1f\n      add\n      0x20\n      swap1\n      div\n      dup3\n      add\n    tag_162:\n      dup3\n      dup2\n      gt\n      iszero\n      tag_163\n      jumpi\n      dup3\n      sload\n      dup3\n      sstore\n      swap2\n      0x01\n      add\n      swap2\n      swap1\n      0x01\n      add\n      swap1\n      jump(tag_162)\n    tag_163:\n    tag_159:\n      pop\n      swap1\n      pop\n      tag_164\n      swap2\n      swap1\n      tag_157\n      jump\t// in\n    tag_164:\n      pop\n      swap1\n      jump\t// out\n    tag_118:\n      mload(0x40)\n      dup1\n      0xc0\n      add\n      0x40\n      mstore\n      dup1\n      0x00\n      dup2\n      mstore\n      0x20\n      add\n      0x60\n      dup2\n      mstore\n      0x20\n      add\n      0x00\n      dup2\n      mstore\n      0x20\n      add\n      0x00\n      dup2\n      mstore\n      0x20\n      add\n      0x60\n      dup2\n      mstore\n      0x20\n      add\n      0x00\n      dup2\n      mstore\n      pop\n      swap1\n      jump\t// out\n    tag_157:\n    tag_165:\n      dup1\n      dup3\n      gt\n      iszero\n      tag_166\n      jumpi\n      0x00\n      dup2\n      0x00\n      swap1\n      sstore\n      pop\n      0x01\n      add\n      jump(tag_165)\n    tag_166:\n      pop\n      swap1\n      jump\t// out\n        /* \"#utility.yul\":7:82   */\n    tag_167:\n        /* \"#utility.yul\":40:46   */\n      0x00\n        /* \"#utility.yul\":73:75   */\n      0x40\n        /* \"#utility.yul\":67:76   */\n      mload\n        /* \"#utility.yul\":57:76   */\n      swap1\n      pop\n        /* \"#utility.yul\":7:82   */\n      swap1\n      jump\t// out\n        /* \"#utility.yul\":88:205   */\n    tag_168:\n        /* \"#utility.yul\":197:198   */\n      0x00\n        /* \"#utility.yul\":194:195   */\n      dup1\n        /* \"#utility.yul\":187:199   */\n      revert\n        /* \"#utility.yul\":211:328   */\n    tag_169:\n        /* \"#utility.yul\":320:321   */\n      0x00\n        /* \"#utility.yul\":317:318   */\n      dup1\n        /* \"#utility.yul\":310:322   */\n      revert\n        /* \"#utility.yul\":334:411   */\n    tag_170:\n        /* \"#utility.yul\":371:378   */\n      0x00\n        /* \"#utility.yul\":400:405   */\n      dup2\n        /* \"#utility.yul\":389:405   */\n      swap1\n      pop\n        /* \"#utility.yul\":334:411   */\n      swap2\n      swap1\n      pop\n      jump\t// out\n        /* \"#utility.yul\":417:539   */\n    tag_171:\n        /* \"#utility.yul\":490:514   */\n      tag_206\n        /* \"#utility.yul\":508:513   */\n      dup2\n        /* \"#utility.yul\":490:514   */\n      tag_170\n      jump\t// in\n    tag_206:\n        /* \"#utility.yul\":483:488   */\n      dup2\n        /* \"#utility.yul\":480:515   */\n      eq\n        /* \"#utility.yul\":470:533   */\n      tag_207\n      jumpi\n        /* \"#utility.yul\":529:530   */\n      0x00\n        /* \"#utility.yul\":526:527   */\n      dup1\n        /* \"#utility.yul\":519:531   */\n      revert\n        /* \"#utility.yul\":470:533   */\n    tag_207:\n        /* \"#utility.yul\":417:539   */\n      pop\n      jump\t// out\n        /* \"#utility.yul\":545:684   */\n    tag_172:\n        /* \"#utility.yul\":591:596   */\n      0x00\n        /* \"#utility.yul\":629:635   */\n      dup2\n        /* \"#utility.yul\":616:636   */\n      calldataload\n        /* \"#utility.yul\":607:636   */\n      swap1\n      pop\n        /* \"#utility.yul\":645:678   */\n      tag_209\n        /* \"#utility.yul\":672:677   */\n      dup2\n        /* \"#utility.yul\":645:678   */\n      tag_171\n      jump\t// in\n    tag_209:\n        /* \"#utility.yul\":545:684   */\n      swap3\n      swap2\n      pop\n      pop\n      jump\t// out\n        /* \"#utility.yul\":690:807   */\n    tag_173:\n        /* \"#utility.yul\":799:800   */\n      0x00\n        /* \"#utility.yul\":796:797   */\n      dup1\n        /* \"#utility.yul\":789:801   */\n      revert\n        /* \"#utility.yul\":813:930   */\n    tag_174:\n        /* \"#utility.yul\":922:923   */\n      0x00\n        /* \"#utility.yul\":919:920   */\n      dup1\n        /* \"#utility.yul\":912:924   */\n      revert\n        /* \"#utility.yul\":936:1038   */\n    tag_175:\n        /* \"#utility.yul\":977:983   */\n      0x00\n        /* \"#utility.yul\":1028:1030   */\n      0x1f\n        /* \"#utility.yul\":1024:1031   */\n      not\n        /* \"#utility.yul\":1019:1021   */\n      0x1f\n        /* \"#utility.yul\":1012:1017   */\n      dup4\n        /* \"#utility.yul\":1008:1022   */\n      add\n        /* \"#utility.yul\":1004:1032   */\n      and\n        /* \"#utility.yul\":994:1032   */\n      swap1\n      pop\n        /* \"#utility.yul\":936:1038   */\n      swap2\n      swap1\n      pop\n      jump\t// out\n        /* \"#utility.yul\":1044:1224   */\n    tag_176:\n        /* \"#utility.yul\":1092:1169   */\n      0x4e487b7100000000000000000000000000000000000000000000000000000000\n        /* \"#utility.yul\":1089:1090   */\n      0x00\n        /* \"#utility.yul\":1082:1170   */\n      mstore\n        /* \"#utility.yul\":1189:1193   */\n      0x41\n        /* \"#utility.yul\":1186:1187   */\n      0x04\n        /* \"#utility.yul\":1179:1194   */\n      mstore\n        /* \"#utility.yul\":1213:1217   */\n      0x24\n        /* \"#utility.yul\":1210:1211   */\n      0x00\n        /* \"#utility.yul\":1203:1218   */\n      revert\n        /* \"#utility.yul\":1230:1511   */\n    tag_177:\n        /* \"#utility.yul\":1313:1340   */\n      tag_215\n        /* \"#utility.yul\":1335:1339   */\n      dup3\n        /* \"#utility.yul\":1313:1340   */\n      tag_175\n      jump\t// in\n    tag_215:\n        /* \"#utility.yul\":1305:1311   */\n      dup2\n        /* \"#utility.yul\":1301:1341   */\n      add\n        /* \"#utility.yul\":1443:1449   */\n      dup2\n        /* \"#utility.yul\":1431:1441   */\n      dup2\n        /* \"#utility.yul\":1428:1450   */\n      lt\n        /* \"#utility.yul\":1407:1425   */\n      0xffffffffffffffff\n        /* \"#utility.yul\":1395:1405   */\n      dup3\n        /* \"#utility.yul\":1392:1426   */\n      gt\n        /* \"#utility.yul\":1389:1451   */\n      or\n        /* \"#utility.yul\":1386:1474   */\n      iszero\n      tag_216\n      jumpi\n        /* \"#utility.yul\":1454:1472   */\n      tag_217\n      tag_176\n      jump\t// in\n    tag_217:\n        /* \"#utility.yul\":1386:1474   */\n    tag_216:\n        /* \"#utility.yul\":1494:1504   */\n      dup1\n        /* \"#utility.yul\":1490:1492   */\n      0x40\n        /* \"#utility.yul\":1483:1505   */\n      mstore\n        /* \"#utility.yul\":1273:1511   */\n      pop\n        /* \"#utility.yul\":1230:1511   */\n      pop\n      pop\n      jump\t// out\n        /* \"#utility.yul\":1517:1646   */\n    tag_178:\n        /* \"#utility.yul\":1551:1557   */\n      0x00\n        /* \"#utility.yul\":1578:1598   */\n      tag_219\n      tag_167\n      jump\t// in\n    tag_219:\n        /* \"#utility.yul\":1568:1598   */\n      swap1\n      pop\n        /* \"#utility.yul\":1607:1640   */\n      tag_220\n        /* \"#utility.yul\":1635:1639   */\n      dup3\n        /* \"#utility.yul\":1627:1633   */\n      dup3\n        /* \"#utility.yul\":1607:1640   */\n      tag_177\n      jump\t// in\n    tag_220:\n        /* \"#utility.yul\":1517:1646   */\n      swap2\n      swap1\n      pop\n      jump\t// out\n        /* \"#utility.yul\":1652:1960   */\n    tag_179:\n        /* \"#utility.yul\":1714:1718   */\n      0x00\n        /* \"#utility.yul\":1804:1822   */\n      0xffffffffffffffff\n        /* \"#utility.yul\":1796:1802   */\n      dup3\n        /* \"#utility.yul\":1793:1823   */\n      gt\n        /* \"#utility.yul\":1790:1846   */\n      iszero\n      tag_222\n      jumpi\n        /* \"#utility.yul\":1826:1844   */\n      tag_223\n      tag_176\n      jump\t// in\n    tag_223:\n        /* \"#utility.yul\":1790:1846   */\n    tag_222:\n        /* \"#utility.yul\":1864:1893   */\n      tag_224\n        /* \"#utility.yul\":1886:1892   */\n      dup3\n        /* \"#utility.yul\":1864:1893   */\n      tag_175\n      jump\t// in\n    tag_224:\n        /* \"#utility.yul\":1856:1893   */\n      swap1\n      pop\n        /* \"#utility.yul\":1948:1952   */\n      0x20\n        /* \"#utility.yul\":1942:1946   */\n      dup2\n        /* \"#utility.yul\":1938:1953   */\n      add\n        /* \"#utility.yul\":1930:1953   */\n      swap1\n      pop\n        /* \"#utility.yul\":1652:1960   */\n      swap2\n      swap1\n      pop\n      jump\t// out\n        /* \"#utility.yul\":1966:2120   */\n    tag_180:\n        /* \"#utility.yul\":2050:2056   */\n      dup3\n        /* \"#utility.yul\":2045:2048   */\n      dup2\n        /* \"#utility.yul\":2040:2043   */\n      dup4\n        /* \"#utility.yul\":2027:2057   */\n      calldatacopy\n        /* \"#utility.yul\":2112:2113   */\n      0x00\n        /* \"#utility.yul\":2103:2109   */\n      dup4\n        /* \"#utility.yul\":2098:2101   */\n      dup4\n        /* \"#utility.yul\":2094:2110   */\n      add\n        /* \"#utility.yul\":2087:2114   */\n      mstore\n        /* \"#utility.yul\":1966:2120   */\n      pop\n      pop\n      pop\n      jump\t// out\n        /* \"#utility.yul\":2126:2538   */\n    tag_181:\n        /* \"#utility.yul\":2204:2209   */\n      0x00\n        /* \"#utility.yul\":2229:2295   */\n      tag_227\n        /* \"#utility.yul\":2245:2294   */\n      tag_228\n        /* \"#utility.yul\":2287:2293   */\n      dup5\n        /* \"#utility.yul\":2245:2294   */\n      tag_179\n      jump\t// in\n    tag_228:\n        /* \"#utility.yul\":2229:2295   */\n      tag_178\n      jump\t// in\n    tag_227:\n        /* \"#utility.yul\":2220:2295   */\n      swap1\n      pop\n        /* \"#utility.yul\":2318:2324   */\n      dup3\n        /* \"#utility.yul\":2311:2316   */\n      dup2\n        /* \"#utility.yul\":2304:2325   */\n      mstore\n        /* \"#utility.yul\":2356:2360   */\n      0x20\n        /* \"#utility.yul\":2349:2354   */\n      dup2\n        /* \"#utility.yul\":2345:2361   */\n      add\n        /* \"#utility.yul\":2394:2397   */\n      dup5\n        /* \"#utility.yul\":2385:2391   */\n      dup5\n        /* \"#utility.yul\":2380:2383   */\n      dup5\n        /* \"#utility.yul\":2376:2392   */\n      add\n        /* \"#utility.yul\":2373:2398   */\n      gt\n        /* \"#utility.yul\":2370:2482   */\n      iszero\n      tag_229\n      jumpi\n        /* \"#utility.yul\":2401:2480   */\n      tag_230\n      tag_174\n      jump\t// in\n    tag_230:\n        /* \"#utility.yul\":2370:2482   */\n    tag_229:\n        /* \"#utility.yul\":2491:2532   */\n      tag_231\n        /* \"#utility.yul\":2525:2531   */\n      dup5\n        /* \"#utility.yul\":2520:2523   */\n      dup3\n        /* \"#utility.yul\":2515:2518   */\n      dup6\n        /* \"#utility.yul\":2491:2532   */\n      tag_180\n      jump\t// in\n    tag_231:\n        /* \"#utility.yul\":2210:2538   */\n      pop\n        /* \"#utility.yul\":2126:2538   */\n      swap4\n      swap3\n      pop\n      pop\n      pop\n      jump\t// out\n        /* \"#utility.yul\":2558:2898   */\n    tag_182:\n        /* \"#utility.yul\":2614:2619   */\n      0x00\n        /* \"#utility.yul\":2663:2666   */\n      dup3\n        /* \"#utility.yul\":2656:2660   */\n      0x1f\n        /* \"#utility.yul\":2648:2654   */\n      dup4\n        /* \"#utility.yul\":2644:2661   */\n      add\n        /* \"#utility.yul\":2640:2667   */\n      slt\n        /* \"#utility.yul\":2630:2752   */\n      tag_233\n      jumpi\n        /* \"#utility.yul\":2671:2750   */\n      tag_234\n      tag_173\n      jump\t// in\n    tag_234:\n        /* \"#utility.yul\":2630:2752   */\n    tag_233:\n        /* \"#utility.yul\":2788:2794   */\n      dup2\n        /* \"#utility.yul\":2775:2795   */\n      calldataload\n        /* \"#utility.yul\":2813:2892   */\n      tag_235\n        /* \"#utility.yul\":2888:2891   */\n      dup5\n        /* \"#utility.yul\":2880:2886   */\n      dup3\n        /* \"#utility.yul\":2873:2877   */\n      0x20\n        /* \"#utility.yul\":2865:2871   */\n      dup7\n        /* \"#utility.yul\":2861:2878   */\n      add\n        /* \"#utility.yul\":2813:2892   */\n      tag_181\n      jump\t// in\n    tag_235:\n        /* \"#utility.yul\":2804:2892   */\n      swap2\n      pop\n        /* \"#utility.yul\":2620:2898   */\n      pop\n        /* \"#utility.yul\":2558:2898   */\n      swap3\n      swap2\n      pop\n      pop\n      jump\t// out\n        /* \"#utility.yul\":2904:4175   */\n    tag_11:\n        /* \"#utility.yul\":3019:3025   */\n      0x00\n        /* \"#utility.yul\":3027:3033   */\n      dup1\n        /* \"#utility.yul\":3035:3041   */\n      0x00\n        /* \"#utility.yul\":3043:3049   */\n      dup1\n        /* \"#utility.yul\":3051:3057   */\n      0x00\n        /* \"#utility.yul\":3100:3103   */\n      0xa0\n        /* \"#utility.yul\":3088:3097   */\n      dup7\n        /* \"#utility.yul\":3079:3086   */\n      dup9\n        /* \"#utility.yul\":3075:3098   */\n      sub\n        /* \"#utility.yul\":3071:3104   */\n      slt\n        /* \"#utility.yul\":3068:3188   */\n      iszero\n      tag_237\n      jumpi\n        /* \"#utility.yul\":3107:3186   */\n      tag_238\n      tag_168\n      jump\t// in\n    tag_238:\n        /* \"#utility.yul\":3068:3188   */\n    tag_237:\n        /* \"#utility.yul\":3227:3228   */\n      0x00\n        /* \"#utility.yul\":3252:3305   */\n      tag_239\n        /* \"#utility.yul\":3297:3304   */\n      dup9\n        /* \"#utility.yul\":3288:3294   */\n      dup3\n        /* \"#utility.yul\":3277:3286   */\n      dup10\n        /* \"#utility.yul\":3273:3295   */\n      add\n        /* \"#utility.yul\":3252:3305   */\n      tag_172\n      jump\t// in\n    tag_239:\n        /* \"#utility.yul\":3242:3305   */\n      swap6\n      pop\n        /* \"#utility.yul\":3198:3315   */\n      pop\n        /* \"#utility.yul\":3382:3384   */\n      0x20\n        /* \"#utility.yul\":3371:3380   */\n      dup7\n        /* \"#utility.yul\":3367:3385   */\n      add\n        /* \"#utility.yul\":3354:3386   */\n      calldataload\n        /* \"#utility.yul\":3413:3431   */\n      0xffffffffffffffff\n        /* \"#utility.yul\":3405:3411   */\n      dup2\n        /* \"#utility.yul\":3402:3432   */\n      gt\n        /* \"#utility.yul\":3399:3516   */\n      iszero\n      tag_240\n      jumpi\n        /* \"#utility.yul\":3435:3514   */\n      tag_241\n      tag_169\n      jump\t// in\n    tag_241:\n        /* \"#utility.yul\":3399:3516   */\n    tag_240:\n        /* \"#utility.yul\":3540:3603   */\n      tag_242\n        /* \"#utility.yul\":3595:3602   */\n      dup9\n        /* \"#utility.yul\":3586:3592   */\n      dup3\n        /* \"#utility.yul\":3575:3584   */\n      dup10\n        /* \"#utility.yul\":3571:3593   */\n      add\n        /* \"#utility.yul\":3540:3603   */\n      tag_182\n      jump\t// in\n    tag_242:\n        /* \"#utility.yul\":3530:3603   */\n      swap5\n      pop\n        /* \"#utility.yul\":3325:3613   */\n      pop\n        /* \"#utility.yul\":3652:3654   */\n      0x40\n        /* \"#utility.yul\":3678:3731   */\n      tag_243\n        /* \"#utility.yul\":3723:3730   */\n      dup9\n        /* \"#utility.yul\":3714:3720   */\n      dup3\n        /* \"#utility.yul\":3703:3712   */\n      dup10\n        /* \"#utility.yul\":3699:3721   */\n      add\n        /* \"#utility.yul\":3678:3731   */\n      tag_172\n      jump\t// in\n    tag_243:\n        /* \"#utility.yul\":3668:3731   */\n      swap4\n      pop\n        /* \"#utility.yul\":3623:3741   */\n      pop\n        /* \"#utility.yul\":3808:3810   */\n      0x60\n        /* \"#utility.yul\":3797:3806   */\n      dup7\n        /* \"#utility.yul\":3793:3811   */\n      add\n        /* \"#utility.yul\":3780:3812   */\n      calldataload\n        /* \"#utility.yul\":3839:3857   */\n      0xffffffffffffffff\n        /* \"#utility.yul\":3831:3837   */\n      dup2\n        /* \"#utility.yul\":3828:3858   */\n      gt\n        /* \"#utility.yul\":3825:3942   */\n      iszero\n      tag_244\n      jumpi\n        /* \"#utility.yul\":3861:3940   */\n      tag_245\n      tag_169\n      jump\t// in\n    tag_245:\n        /* \"#utility.yul\":3825:3942   */\n    tag_244:\n        /* \"#utility.yul\":3966:4029   */\n      tag_246\n        /* \"#utility.yul\":4021:4028   */\n      dup9\n        /* \"#utility.yul\":4012:4018   */\n      dup3\n        /* \"#utility.yul\":4001:4010   */\n      dup10\n        /* \"#utility.yul\":3997:4019   */\n      add\n        /* \"#utility.yul\":3966:4029   */\n      tag_182\n      jump\t// in\n    tag_246:\n        /* \"#utility.yul\":3956:4029   */\n      swap3\n      pop\n        /* \"#utility.yul\":3751:4039   */\n      pop\n        /* \"#utility.yul\":4078:4081   */\n      0x80\n        /* \"#utility.yul\":4105:4158   */\n      tag_247\n        /* \"#utility.yul\":4150:4157   */\n      dup9\n        /* \"#utility.yul\":4141:4147   */\n      dup3\n        /* \"#utility.yul\":4130:4139   */\n      dup10\n        /* \"#utility.yul\":4126:4148   */\n      add\n        /* \"#utility.yul\":4105:4158   */\n      tag_172\n      jump\t// in\n    tag_247:\n        /* \"#utility.yul\":4095:4158   */\n      swap2\n      pop\n        /* \"#utility.yul\":4049:4168   */\n      pop\n        /* \"#utility.yul\":2904:4175   */\n      swap3\n      swap6\n      pop\n      swap3\n      swap6\n      swap1\n      swap4\n      pop\n      jump\t// out\n        /* \"#utility.yul\":4181:5160   */\n    tag_15:\n        /* \"#utility.yul\":4278:4284   */\n      0x00\n        /* \"#utility.yul\":4286:4292   */\n      dup1\n        /* \"#utility.yul\":4294:4300   */\n      0x00\n        /* \"#utility.yul\":4343:4345   */\n      0x60\n        /* \"#utility.yul\":4331:4340   */\n      dup5\n        /* \"#utility.yul\":4322:4329   */\n      dup7\n        /* \"#utility.yul\":4318:4341   */\n      sub\n        /* \"#utility.yul\":4314:4346   */\n      slt\n        /* \"#utility.yul\":4311:4430   */\n      iszero\n      tag_249\n      jumpi\n        /* \"#utility.yul\":4349:4428   */\n      tag_250\n      tag_168\n      jump\t// in\n    tag_250:\n        /* \"#utility.yul\":4311:4430   */\n    tag_249:\n        /* \"#utility.yul\":4497:4498   */\n      0x00\n        /* \"#utility.yul\":4486:4495   */\n      dup5\n        /* \"#utility.yul\":4482:4499   */\n      add\n        /* \"#utility.yul\":4469:4500   */\n      calldataload\n        /* \"#utility.yul\":4527:4545   */\n      0xffffffffffffffff\n        /* \"#utility.yul\":4519:4525   */\n      dup2\n        /* \"#utility.yul\":4516:4546   */\n      gt\n        /* \"#utility.yul\":4513:4630   */\n      iszero\n      tag_251\n      jumpi\n        /* \"#utility.yul\":4549:4628   */\n      tag_252\n      tag_169\n      jump\t// in\n    tag_252:\n        /* \"#utility.yul\":4513:4630   */\n    tag_251:\n        /* \"#utility.yul\":4654:4717   */\n      tag_253\n        /* \"#utility.yul\":4709:4716   */\n      dup7\n        /* \"#utility.yul\":4700:4706   */\n      dup3\n        /* \"#utility.yul\":4689:4698   */\n      dup8\n        /* \"#utility.yul\":4685:4707   */\n      add\n        /* \"#utility.yul\":4654:4717   */\n      tag_182\n      jump\t// in\n    tag_253:\n        /* \"#utility.yul\":4644:4717   */\n      swap4\n      pop\n        /* \"#utility.yul\":4440:4727   */\n      pop\n        /* \"#utility.yul\":4766:4768   */\n      0x20\n        /* \"#utility.yul\":4792:4845   */\n      tag_254\n        /* \"#utility.yul\":4837:4844   */\n      dup7\n        /* \"#utility.yul\":4828:4834   */\n      dup3\n        /* \"#utility.yul\":4817:4826   */\n      dup8\n        /* \"#utility.yul\":4813:4835   */\n      add\n        /* \"#utility.yul\":4792:4845   */\n      tag_172\n      jump\t// in\n    tag_254:\n        /* \"#utility.yul\":4782:4845   */\n      swap3\n      pop\n        /* \"#utility.yul\":4737:4855   */\n      pop\n        /* \"#utility.yul\":4922:4924   */\n      0x40\n        /* \"#utility.yul\":4911:4920   */\n      dup5\n        /* \"#utility.yul\":4907:4925   */\n      add\n        /* \"#utility.yul\":4894:4926   */\n      calldataload\n        /* \"#utility.yul\":4953:4971   */\n      0xffffffffffffffff\n        /* \"#utility.yul\":4945:4951   */\n      dup2\n        /* \"#utility.yul\":4942:4972   */\n      gt\n        /* \"#utility.yul\":4939:5056   */\n      iszero\n      tag_255\n      jumpi\n        /* \"#utility.yul\":4975:5054   */\n      tag_256\n      tag_169\n      jump\t// in\n    tag_256:\n        /* \"#utility.yul\":4939:5056   */\n    tag_255:\n        /* \"#utility.yul\":5080:5143   */\n      tag_257\n        /* \"#utility.yul\":5135:5142   */\n      dup7\n        /* \"#utility.yul\":5126:5132   */\n      dup3\n        /* \"#utility.yul\":5115:5124   */\n      dup8\n        /* \"#utility.yul\":5111:5133   */\n      add\n        /* \"#utility.yul\":5080:5143   */\n      tag_182\n      jump\t// in\n    tag_257:\n        /* \"#utility.yul\":5070:5143   */\n      swap2\n      pop\n        /* \"#utility.yul\":4865:5153   */\n      pop\n        /* \"#utility.yul\":4181:5160   */\n      swap3\n      pop\n      swap3\n      pop\n      swap3\n      jump\t// out\n        /* \"#utility.yul\":5166:5495   */\n    tag_19:\n        /* \"#utility.yul\":5225:5231   */\n      0x00\n        /* \"#utility.yul\":5274:5276   */\n      0x20\n        /* \"#utility.yul\":5262:5271   */\n      dup3\n        /* \"#utility.yul\":5253:5260   */\n      dup5\n        /* \"#utility.yul\":5249:5272   */\n      sub\n        /* \"#utility.yul\":5245:5277   */\n      slt\n        /* \"#utility.yul\":5242:5361   */\n      iszero\n      tag_259\n      jumpi\n        /* \"#utility.yul\":5280:5359   */\n      tag_260\n      tag_168\n      jump\t// in\n    tag_260:\n        /* \"#utility.yul\":5242:5361   */\n    tag_259:\n        /* \"#utility.yul\":5400:5401   */\n      0x00\n        /* \"#utility.yul\":5425:5478   */\n      tag_261\n        /* \"#utility.yul\":5470:5477   */\n      dup5\n        /* \"#utility.yul\":5461:5467   */\n      dup3\n        /* \"#utility.yul\":5450:5459   */\n      dup6\n        /* \"#utility.yul\":5446:5468   */\n      add\n        /* \"#utility.yul\":5425:5478   */\n      tag_172\n      jump\t// in\n    tag_261:\n        /* \"#utility.yul\":5415:5478   */\n      swap2\n      pop\n        /* \"#utility.yul\":5371:5488   */\n      pop\n        /* \"#utility.yul\":5166:5495   */\n      swap3\n      swap2\n      pop\n      pop\n      jump\t// out\n        /* \"#utility.yul\":5501:5619   */\n    tag_183:\n        /* \"#utility.yul\":5588:5612   */\n      tag_263\n        /* \"#utility.yul\":5606:5611   */\n      dup2\n        /* \"#utility.yul\":5588:5612   */\n      tag_170\n      jump\t// in\n    tag_263:\n        /* \"#utility.yul\":5583:5586   */\n      dup3\n        /* \"#utility.yul\":5576:5613   */\n      mstore\n        /* \"#utility.yul\":5501:5619   */\n      pop\n      pop\n      jump\t// out\n        /* \"#utility.yul\":5625:5724   */\n    tag_184:\n        /* \"#utility.yul\":5677:5683   */\n      0x00\n        /* \"#utility.yul\":5711:5716   */\n      dup2\n        /* \"#utility.yul\":5705:5717   */\n      mload\n        /* \"#utility.yul\":5695:5717   */\n      swap1\n      pop\n        /* \"#utility.yul\":5625:5724   */\n      swap2\n      swap1\n      pop\n      jump\t// out\n        /* \"#utility.yul\":5730:5899   */\n    tag_185:\n        /* \"#utility.yul\":5814:5825   */\n      0x00\n        /* \"#utility.yul\":5848:5854   */\n      dup3\n        /* \"#utility.yul\":5843:5846   */\n      dup3\n        /* \"#utility.yul\":5836:5855   */\n      mstore\n        /* \"#utility.yul\":5888:5892   */\n      0x20\n        /* \"#utility.yul\":5883:5886   */\n      dup3\n        /* \"#utility.yul\":5879:5893   */\n      add\n        /* \"#utility.yul\":5864:5893   */\n      swap1\n      pop\n        /* \"#utility.yul\":5730:5899   */\n      swap3\n      swap2\n      pop\n      pop\n      jump\t// out\n        /* \"#utility.yul\":5905:6212   */\n    tag_186:\n        /* \"#utility.yul\":5973:5974   */\n      0x00\n        /* \"#utility.yul\":5983:6096   */\n    tag_267:\n        /* \"#utility.yul\":5997:6003   */\n      dup4\n        /* \"#utility.yul\":5994:5995   */\n      dup2\n        /* \"#utility.yul\":5991:6004   */\n      lt\n        /* \"#utility.yul\":5983:6096   */\n      iszero\n      tag_269\n      jumpi\n        /* \"#utility.yul\":6082:6083   */\n      dup1\n        /* \"#utility.yul\":6077:6080   */\n      dup3\n        /* \"#utility.yul\":6073:6084   */\n      add\n        /* \"#utility.yul\":6067:6085   */\n      mload\n        /* \"#utility.yul\":6063:6064   */\n      dup2\n        /* \"#utility.yul\":6058:6061   */\n      dup5\n        /* \"#utility.yul\":6054:6065   */\n      add\n        /* \"#utility.yul\":6047:6086   */\n      mstore\n        /* \"#utility.yul\":6019:6021   */\n      0x20\n        /* \"#utility.yul\":6016:6017   */\n      dup2\n        /* \"#utility.yul\":6012:6022   */\n      add\n        /* \"#utility.yul\":6007:6022   */\n      swap1\n      pop\n        /* \"#utility.yul\":5983:6096   */\n      jump(tag_267)\n    tag_269:\n        /* \"#utility.yul\":6114:6120   */\n      dup4\n        /* \"#utility.yul\":6111:6112   */\n      dup2\n        /* \"#utility.yul\":6108:6121   */\n      gt\n        /* \"#utility.yul\":6105:6206   */\n      iszero\n      tag_270\n      jumpi\n        /* \"#utility.yul\":6194:6195   */\n      0x00\n        /* \"#utility.yul\":6185:6191   */\n      dup5\n        /* \"#utility.yul\":6180:6183   */\n      dup5\n        /* \"#utility.yul\":6176:6192   */\n      add\n        /* \"#utility.yul\":6169:6196   */\n      mstore\n        /* \"#utility.yul\":6105:6206   */\n    tag_270:\n        /* \"#utility.yul\":5954:6212   */\n      pop\n        /* \"#utility.yul\":5905:6212   */\n      pop\n      pop\n      pop\n      jump\t// out\n        /* \"#utility.yul\":6218:6582   */\n    tag_187:\n        /* \"#utility.yul\":6306:6309   */\n      0x00\n        /* \"#utility.yul\":6334:6373   */\n      tag_272\n        /* \"#utility.yul\":6367:6372   */\n      dup3\n        /* \"#utility.yul\":6334:6373   */\n      tag_184\n      jump\t// in\n    tag_272:\n        /* \"#utility.yul\":6389:6460   */\n      tag_273\n        /* \"#utility.yul\":6453:6459   */\n      dup2\n        /* \"#utility.yul\":6448:6451   */\n      dup6\n        /* \"#utility.yul\":6389:6460   */\n      tag_185\n      jump\t// in\n    tag_273:\n        /* \"#utility.yul\":6382:6460   */\n      swap4\n      pop\n        /* \"#utility.yul\":6469:6521   */\n      tag_274\n        /* \"#utility.yul\":6514:6520   */\n      dup2\n        /* \"#utility.yul\":6509:6512   */\n      dup6\n        /* \"#utility.yul\":6502:6506   */\n      0x20\n        /* \"#utility.yul\":6495:6500   */\n      dup7\n        /* \"#utility.yul\":6491:6507   */\n      add\n        /* \"#utility.yul\":6469:6521   */\n      tag_186\n      jump\t// in\n    tag_274:\n        /* \"#utility.yul\":6546:6575   */\n      tag_275\n        /* \"#utility.yul\":6568:6574   */\n      dup2\n        /* \"#utility.yul\":6546:6575   */\n      tag_175\n      jump\t// in\n    tag_275:\n        /* \"#utility.yul\":6541:6544   */\n      dup5\n        /* \"#utility.yul\":6537:6576   */\n      add\n        /* \"#utility.yul\":6530:6576   */\n      swap2\n      pop\n        /* \"#utility.yul\":6310:6582   */\n      pop\n        /* \"#utility.yul\":6218:6582   */\n      swap3\n      swap2\n      pop\n      pop\n      jump\t// out\n        /* \"#utility.yul\":6588:6736   */\n    tag_188:\n        /* \"#utility.yul\":6689:6695   */\n      0x00\n        /* \"#utility.yul\":6723:6728   */\n      dup2\n        /* \"#utility.yul\":6717:6729   */\n      mload\n        /* \"#utility.yul\":6707:6729   */\n      swap1\n      pop\n        /* \"#utility.yul\":6588:6736   */\n      swap2\n      swap1\n      pop\n      jump\t// out\n        /* \"#utility.yul\":6742:6960   */\n    tag_189:\n        /* \"#utility.yul\":6875:6886   */\n      0x00\n        /* \"#utility.yul\":6909:6915   */\n      dup3\n        /* \"#utility.yul\":6904:6907   */\n      dup3\n        /* \"#utility.yul\":6897:6916   */\n      mstore\n        /* \"#utility.yul\":6949:6953   */\n      0x20\n        /* \"#utility.yul\":6944:6947   */\n      dup3\n        /* \"#utility.yul\":6940:6954   */\n      add\n        /* \"#utility.yul\":6925:6954   */\n      swap1\n      pop\n        /* \"#utility.yul\":6742:6960   */\n      swap3\n      swap2\n      pop\n      pop\n      jump\t// out\n        /* \"#utility.yul\":6966:7132   */\n    tag_190:\n        /* \"#utility.yul\":7067:7071   */\n      0x00\n        /* \"#utility.yul\":7090:7093   */\n      dup2\n        /* \"#utility.yul\":7082:7093   */\n      swap1\n      pop\n        /* \"#utility.yul\":7120:7124   */\n      0x20\n        /* \"#utility.yul\":7115:7118   */\n      dup3\n        /* \"#utility.yul\":7111:7125   */\n      add\n        /* \"#utility.yul\":7103:7125   */\n      swap1\n      pop\n        /* \"#utility.yul\":6966:7132   */\n      swap2\n      swap1\n      pop\n      jump\t// out\n        /* \"#utility.yul\":7138:7246   */\n    tag_191:\n        /* \"#utility.yul\":7215:7239   */\n      tag_280\n        /* \"#utility.yul\":7233:7238   */\n      dup2\n        /* \"#utility.yul\":7215:7239   */\n      tag_170\n      jump\t// in\n    tag_280:\n        /* \"#utility.yul\":7210:7213   */\n      dup3\n        /* \"#utility.yul\":7203:7240   */\n      mstore\n        /* \"#utility.yul\":7138:7246   */\n      pop\n      pop\n      jump\t// out\n        /* \"#utility.yul\":7252:7411   */\n    tag_192:\n        /* \"#utility.yul\":7326:7337   */\n      0x00\n        /* \"#utility.yul\":7360:7366   */\n      dup3\n        /* \"#utility.yul\":7355:7358   */\n      dup3\n        /* \"#utility.yul\":7348:7367   */\n      mstore\n        /* \"#utility.yul\":7400:7404   */\n      0x20\n        /* \"#utility.yul\":7395:7398   */\n      dup3\n        /* \"#utility.yul\":7391:7405   */\n      add\n        /* \"#utility.yul\":7376:7405   */\n      swap1\n      pop\n        /* \"#utility.yul\":7252:7411   */\n      swap3\n      swap2\n      pop\n      pop\n      jump\t// out\n        /* \"#utility.yul\":7417:7761   */\n    tag_193:\n        /* \"#utility.yul\":7495:7498   */\n      0x00\n        /* \"#utility.yul\":7523:7562   */\n      tag_283\n        /* \"#utility.yul\":7556:7561   */\n      dup3\n        /* \"#utility.yul\":7523:7562   */\n      tag_184\n      jump\t// in\n    tag_283:\n        /* \"#utility.yul\":7578:7639   */\n      tag_284\n        /* \"#utility.yul\":7632:7638   */\n      dup2\n        /* \"#utility.yul\":7627:7630   */\n      dup6\n        /* \"#utility.yul\":7578:7639   */\n      tag_192\n      jump\t// in\n    tag_284:\n        /* \"#utility.yul\":7571:7639   */\n      swap4\n      pop\n        /* \"#utility.yul\":7648:7700   */\n      tag_285\n        /* \"#utility.yul\":7693:7699   */\n      dup2\n        /* \"#utility.yul\":7688:7691   */\n      dup6\n        /* \"#utility.yul\":7681:7685   */\n      0x20\n        /* \"#utility.yul\":7674:7679   */\n      dup7\n        /* \"#utility.yul\":7670:7686   */\n      add\n        /* \"#utility.yul\":7648:7700   */\n      tag_186\n      jump\t// in\n    tag_285:\n        /* \"#utility.yul\":7725:7754   */\n      tag_286\n        /* \"#utility.yul\":7747:7753   */\n      dup2\n        /* \"#utility.yul\":7725:7754   */\n      tag_175\n      jump\t// in\n    tag_286:\n        /* \"#utility.yul\":7720:7723   */\n      dup5\n        /* \"#utility.yul\":7716:7755   */\n      add\n        /* \"#utility.yul\":7709:7755   */\n      swap2\n      pop\n        /* \"#utility.yul\":7499:7761   */\n      pop\n        /* \"#utility.yul\":7417:7761   */\n      swap3\n      swap2\n      pop\n      pop\n      jump\t// out\n        /* \"#utility.yul\":7855:9260   */\n    tag_194:\n        /* \"#utility.yul\":7982:7985   */\n      0x00\n        /* \"#utility.yul\":8018:8022   */\n      0xc0\n        /* \"#utility.yul\":8013:8016   */\n      dup4\n        /* \"#utility.yul\":8009:8023   */\n      add\n        /* \"#utility.yul\":8103:8107   */\n      0x00\n        /* \"#utility.yul\":8096:8101   */\n      dup4\n        /* \"#utility.yul\":8092:8108   */\n      add\n        /* \"#utility.yul\":8086:8109   */\n      mload\n        /* \"#utility.yul\":8122:8185   */\n      tag_288\n        /* \"#utility.yul\":8179:8183   */\n      0x00\n        /* \"#utility.yul\":8174:8177   */\n      dup7\n        /* \"#utility.yul\":8170:8184   */\n      add\n        /* \"#utility.yul\":8156:8168   */\n      dup3\n        /* \"#utility.yul\":8122:8185   */\n      tag_191\n      jump\t// in\n    tag_288:\n        /* \"#utility.yul\":8033:8195   */\n      pop\n        /* \"#utility.yul\":8277:8281   */\n      0x20\n        /* \"#utility.yul\":8270:8275   */\n      dup4\n        /* \"#utility.yul\":8266:8282   */\n      add\n        /* \"#utility.yul\":8260:8283   */\n      mload\n        /* \"#utility.yul\":8330:8333   */\n      dup5\n        /* \"#utility.yul\":8324:8328   */\n      dup3\n        /* \"#utility.yul\":8320:8334   */\n      sub\n        /* \"#utility.yul\":8313:8317   */\n      0x20\n        /* \"#utility.yul\":8308:8311   */\n      dup7\n        /* \"#utility.yul\":8304:8318   */\n      add\n        /* \"#utility.yul\":8297:8335   */\n      mstore\n        /* \"#utility.yul\":8356:8429   */\n      tag_289\n        /* \"#utility.yul\":8424:8428   */\n      dup3\n        /* \"#utility.yul\":8410:8422   */\n      dup3\n        /* \"#utility.yul\":8356:8429   */\n      tag_193\n      jump\t// in\n    tag_289:\n        /* \"#utility.yul\":8348:8429   */\n      swap2\n      pop\n        /* \"#utility.yul\":8205:8440   */\n      pop\n        /* \"#utility.yul\":8527:8531   */\n      0x40\n        /* \"#utility.yul\":8520:8525   */\n      dup4\n        /* \"#utility.yul\":8516:8532   */\n      add\n        /* \"#utility.yul\":8510:8533   */\n      mload\n        /* \"#utility.yul\":8546:8609   */\n      tag_290\n        /* \"#utility.yul\":8603:8607   */\n      0x40\n        /* \"#utility.yul\":8598:8601   */\n      dup7\n        /* \"#utility.yul\":8594:8608   */\n      add\n        /* \"#utility.yul\":8580:8592   */\n      dup3\n        /* \"#utility.yul\":8546:8609   */\n      tag_191\n      jump\t// in\n    tag_290:\n        /* \"#utility.yul\":8450:8619   */\n      pop\n        /* \"#utility.yul\":8711:8715   */\n      0x60\n        /* \"#utility.yul\":8704:8709   */\n      dup4\n        /* \"#utility.yul\":8700:8716   */\n      add\n        /* \"#utility.yul\":8694:8717   */\n      mload\n        /* \"#utility.yul\":8730:8793   */\n      tag_291\n        /* \"#utility.yul\":8787:8791   */\n      0x60\n        /* \"#utility.yul\":8782:8785   */\n      dup7\n        /* \"#utility.yul\":8778:8792   */\n      add\n        /* \"#utility.yul\":8764:8776   */\n      dup3\n        /* \"#utility.yul\":8730:8793   */\n      tag_191\n      jump\t// in\n    tag_291:\n        /* \"#utility.yul\":8629:8803   */\n      pop\n        /* \"#utility.yul\":8889:8893   */\n      0x80\n        /* \"#utility.yul\":8882:8887   */\n      dup4\n        /* \"#utility.yul\":8878:8894   */\n      add\n        /* \"#utility.yul\":8872:8895   */\n      mload\n        /* \"#utility.yul\":8942:8945   */\n      dup5\n        /* \"#utility.yul\":8936:8940   */\n      dup3\n        /* \"#utility.yul\":8932:8946   */\n      sub\n        /* \"#utility.yul\":8925:8929   */\n      0x80\n        /* \"#utility.yul\":8920:8923   */\n      dup7\n        /* \"#utility.yul\":8916:8930   */\n      add\n        /* \"#utility.yul\":8909:8947   */\n      mstore\n        /* \"#utility.yul\":8968:9041   */\n      tag_292\n        /* \"#utility.yul\":9036:9040   */\n      dup3\n        /* \"#utility.yul\":9022:9034   */\n      dup3\n        /* \"#utility.yul\":8968:9041   */\n      tag_193\n      jump\t// in\n    tag_292:\n        /* \"#utility.yul\":8960:9041   */\n      swap2\n      pop\n        /* \"#utility.yul\":8813:9052   */\n      pop\n        /* \"#utility.yul\":9141:9145   */\n      0xa0\n        /* \"#utility.yul\":9134:9139   */\n      dup4\n        /* \"#utility.yul\":9130:9146   */\n      add\n        /* \"#utility.yul\":9124:9147   */\n      mload\n        /* \"#utility.yul\":9160:9223   */\n      tag_293\n        /* \"#utility.yul\":9217:9221   */\n      0xa0\n        /* \"#utility.yul\":9212:9215   */\n      dup7\n        /* \"#utility.yul\":9208:9222   */\n      add\n        /* \"#utility.yul\":9194:9206   */\n      dup3\n        /* \"#utility.yul\":9160:9223   */\n      tag_191\n      jump\t// in\n    tag_293:\n        /* \"#utility.yul\":9062:9233   */\n      pop\n        /* \"#utility.yul\":9250:9254   */\n      dup1\n        /* \"#utility.yul\":9243:9254   */\n      swap2\n      pop\n        /* \"#utility.yul\":7987:9260   */\n      pop\n        /* \"#utility.yul\":7855:9260   */\n      swap3\n      swap2\n      pop\n      pop\n      jump\t// out\n        /* \"#utility.yul\":9266:9558   */\n    tag_195:\n        /* \"#utility.yul\":9403:9413   */\n      0x00\n        /* \"#utility.yul\":9438:9552   */\n      tag_295\n        /* \"#utility.yul\":9548:9551   */\n      dup4\n        /* \"#utility.yul\":9540:9546   */\n      dup4\n        /* \"#utility.yul\":9438:9552   */\n      tag_194\n      jump\t// in\n    tag_295:\n        /* \"#utility.yul\":9424:9552   */\n      swap1\n      pop\n        /* \"#utility.yul\":9266:9558   */\n      swap3\n      swap2\n      pop\n      pop\n      jump\t// out\n        /* \"#utility.yul\":9564:9711   */\n    tag_196:\n        /* \"#utility.yul\":9668:9672   */\n      0x00\n        /* \"#utility.yul\":9700:9704   */\n      0x20\n        /* \"#utility.yul\":9695:9698   */\n      dup3\n        /* \"#utility.yul\":9691:9705   */\n      add\n        /* \"#utility.yul\":9683:9705   */\n      swap1\n      pop\n        /* \"#utility.yul\":9564:9711   */\n      swap2\n      swap1\n      pop\n      jump\t// out\n        /* \"#utility.yul\":9809:10992   */\n    tag_197:\n        /* \"#utility.yul\":9996:9999   */\n      0x00\n        /* \"#utility.yul\":10025:10113   */\n      tag_298\n        /* \"#utility.yul\":10107:10112   */\n      dup3\n        /* \"#utility.yul\":10025:10113   */\n      tag_188\n      jump\t// in\n    tag_298:\n        /* \"#utility.yul\":10129:10249   */\n      tag_299\n        /* \"#utility.yul\":10242:10248   */\n      dup2\n        /* \"#utility.yul\":10237:10240   */\n      dup6\n        /* \"#utility.yul\":10129:10249   */\n      tag_189\n      jump\t// in\n    tag_299:\n        /* \"#utility.yul\":10122:10249   */\n      swap4\n      pop\n        /* \"#utility.yul\":10275:10278   */\n      dup4\n        /* \"#utility.yul\":10320:10324   */\n      0x20\n        /* \"#utility.yul\":10312:10318   */\n      dup3\n        /* \"#utility.yul\":10308:10325   */\n      mul\n        /* \"#utility.yul\":10303:10306   */\n      dup6\n        /* \"#utility.yul\":10299:10326   */\n      add\n        /* \"#utility.yul\":10350:10440   */\n      tag_300\n        /* \"#utility.yul\":10434:10439   */\n      dup6\n        /* \"#utility.yul\":10350:10440   */\n      tag_190\n      jump\t// in\n    tag_300:\n        /* \"#utility.yul\":10463:10470   */\n      dup1\n        /* \"#utility.yul\":10494:10495   */\n      0x00\n        /* \"#utility.yul\":10479:10947   */\n    tag_301:\n        /* \"#utility.yul\":10504:10510   */\n      dup6\n        /* \"#utility.yul\":10501:10502   */\n      dup2\n        /* \"#utility.yul\":10498:10511   */\n      lt\n        /* \"#utility.yul\":10479:10947   */\n      iszero\n      tag_303\n      jumpi\n        /* \"#utility.yul\":10575:10584   */\n      dup5\n        /* \"#utility.yul\":10569:10573   */\n      dup5\n        /* \"#utility.yul\":10565:10585   */\n      sub\n        /* \"#utility.yul\":10560:10563   */\n      dup10\n        /* \"#utility.yul\":10553:10586   */\n      mstore\n        /* \"#utility.yul\":10626:10632   */\n      dup2\n        /* \"#utility.yul\":10620:10633   */\n      mload\n        /* \"#utility.yul\":10654:10786   */\n      tag_304\n        /* \"#utility.yul\":10781:10785   */\n      dup6\n        /* \"#utility.yul\":10766:10779   */\n      dup3\n        /* \"#utility.yul\":10654:10786   */\n      tag_195\n      jump\t// in\n    tag_304:\n        /* \"#utility.yul\":10646:10786   */\n      swap5\n      pop\n        /* \"#utility.yul\":10809:10903   */\n      tag_305\n        /* \"#utility.yul\":10896:10902   */\n      dup4\n        /* \"#utility.yul\":10809:10903   */\n      tag_196\n      jump\t// in\n    tag_305:\n        /* \"#utility.yul\":10799:10903   */\n      swap3\n      pop\n        /* \"#utility.yul\":10932:10936   */\n      0x20\n        /* \"#utility.yul\":10927:10930   */\n      dup11\n        /* \"#utility.yul\":10923:10937   */\n      add\n        /* \"#utility.yul\":10916:10937   */\n      swap10\n      pop\n        /* \"#utility.yul\":10539:10947   */\n      pop\n        /* \"#utility.yul\":10526:10527   */\n      0x01\n        /* \"#utility.yul\":10523:10524   */\n      dup2\n        /* \"#utility.yul\":10519:10528   */\n      add\n        /* \"#utility.yul\":10514:10528   */\n      swap1\n      pop\n        /* \"#utility.yul\":10479:10947   */\n      jump(tag_301)\n    tag_303:\n        /* \"#utility.yul\":10483:10497   */\n      pop\n        /* \"#utility.yul\":10963:10967   */\n      dup3\n        /* \"#utility.yul\":10956:10967   */\n      swap8\n      pop\n        /* \"#utility.yul\":10983:10986   */\n      dup8\n        /* \"#utility.yul\":10976:10986   */\n      swap6\n      pop\n        /* \"#utility.yul\":10001:10992   */\n      pop\n      pop\n      pop\n      pop\n      pop\n        /* \"#utility.yul\":9809:10992   */\n      swap3\n      swap2\n      pop\n      pop\n      jump\t// out\n        /* \"#utility.yul\":10998:12131   */\n    tag_25:\n        /* \"#utility.yul\":11361:11365   */\n      0x00\n        /* \"#utility.yul\":11399:11402   */\n      0xa0\n        /* \"#utility.yul\":11388:11397   */\n      dup3\n        /* \"#utility.yul\":11384:11403   */\n      add\n        /* \"#utility.yul\":11376:11403   */\n      swap1\n      pop\n        /* \"#utility.yul\":11413:11484   */\n      tag_307\n        /* \"#utility.yul\":11481:11482   */\n      0x00\n        /* \"#utility.yul\":11470:11479   */\n      dup4\n        /* \"#utility.yul\":11466:11483   */\n      add\n        /* \"#utility.yul\":11457:11463   */\n      dup9\n        /* \"#utility.yul\":11413:11484   */\n      tag_183\n      jump\t// in\n    tag_307:\n        /* \"#utility.yul\":11531:11540   */\n      dup2\n        /* \"#utility.yul\":11525:11529   */\n      dup2\n        /* \"#utility.yul\":11521:11541   */\n      sub\n        /* \"#utility.yul\":11516:11518   */\n      0x20\n        /* \"#utility.yul\":11505:11514   */\n      dup4\n        /* \"#utility.yul\":11501:11519   */\n      add\n        /* \"#utility.yul\":11494:11542   */\n      mstore\n        /* \"#utility.yul\":11559:11637   */\n      tag_308\n        /* \"#utility.yul\":11632:11636   */\n      dup2\n        /* \"#utility.yul\":11623:11629   */\n      dup8\n        /* \"#utility.yul\":11559:11637   */\n      tag_187\n      jump\t// in\n    tag_308:\n        /* \"#utility.yul\":11551:11637   */\n      swap1\n      pop\n        /* \"#utility.yul\":11647:11719   */\n      tag_309\n        /* \"#utility.yul\":11715:11717   */\n      0x40\n        /* \"#utility.yul\":11704:11713   */\n      dup4\n        /* \"#utility.yul\":11700:11718   */\n      add\n        /* \"#utility.yul\":11691:11697   */\n      dup7\n        /* \"#utility.yul\":11647:11719   */\n      tag_183\n      jump\t// in\n    tag_309:\n        /* \"#utility.yul\":11766:11775   */\n      dup2\n        /* \"#utility.yul\":11760:11764   */\n      dup2\n        /* \"#utility.yul\":11756:11776   */\n      sub\n        /* \"#utility.yul\":11751:11753   */\n      0x60\n        /* \"#utility.yul\":11740:11749   */\n      dup4\n        /* \"#utility.yul\":11736:11754   */\n      add\n        /* \"#utility.yul\":11729:11777   */\n      mstore\n        /* \"#utility.yul\":11794:11872   */\n      tag_310\n        /* \"#utility.yul\":11867:11871   */\n      dup2\n        /* \"#utility.yul\":11858:11864   */\n      dup6\n        /* \"#utility.yul\":11794:11872   */\n      tag_187\n      jump\t// in\n    tag_310:\n        /* \"#utility.yul\":11786:11872   */\n      swap1\n      pop\n        /* \"#utility.yul\":11920:11929   */\n      dup2\n        /* \"#utility.yul\":11914:11918   */\n      dup2\n        /* \"#utility.yul\":11910:11930   */\n      sub\n        /* \"#utility.yul\":11904:11907   */\n      0x80\n        /* \"#utility.yul\":11893:11902   */\n      dup4\n        /* \"#utility.yul\":11889:11908   */\n      add\n        /* \"#utility.yul\":11882:11931   */\n      mstore\n        /* \"#utility.yul\":11948:12124   */\n      tag_311\n        /* \"#utility.yul\":12119:12123   */\n      dup2\n        /* \"#utility.yul\":12110:12116   */\n      dup5\n        /* \"#utility.yul\":11948:12124   */\n      tag_197\n      jump\t// in\n    tag_311:\n        /* \"#utility.yul\":11940:12124   */\n      swap1\n      pop\n        /* \"#utility.yul\":10998:12131   */\n      swap7\n      swap6\n      pop\n      pop\n      pop\n      pop\n      pop\n      pop\n      jump\t// out\n        /* \"#utility.yul\":12137:12359   */\n    tag_30:\n        /* \"#utility.yul\":12230:12234   */\n      0x00\n        /* \"#utility.yul\":12268:12270   */\n      0x20\n        /* \"#utility.yul\":12257:12266   */\n      dup3\n        /* \"#utility.yul\":12253:12271   */\n      add\n        /* \"#utility.yul\":12245:12271   */\n      swap1\n      pop\n        /* \"#utility.yul\":12281:12352   */\n      tag_313\n        /* \"#utility.yul\":12349:12350   */\n      0x00\n        /* \"#utility.yul\":12338:12347   */\n      dup4\n        /* \"#utility.yul\":12334:12351   */\n      add\n        /* \"#utility.yul\":12325:12331   */\n      dup5\n        /* \"#utility.yul\":12281:12352   */\n      tag_183\n      jump\t// in\n    tag_313:\n        /* \"#utility.yul\":12137:12359   */\n      swap3\n      swap2\n      pop\n      pop\n      jump\t// out\n        /* \"#utility.yul\":12365:12545   */\n    tag_198:\n        /* \"#utility.yul\":12413:12490   */\n      0x4e487b7100000000000000000000000000000000000000000000000000000000\n        /* \"#utility.yul\":12410:12411   */\n      0x00\n        /* \"#utility.yul\":12403:12491   */\n      mstore\n        /* \"#utility.yul\":12510:12514   */\n      0x11\n        /* \"#utility.yul\":12507:12508   */\n      0x04\n        /* \"#utility.yul\":12500:12515   */\n      mstore\n        /* \"#utility.yul\":12534:12538   */\n      0x24\n        /* \"#utility.yul\":12531:12532   */\n      0x00\n        /* \"#utility.yul\":12524:12539   */\n      revert\n        /* \"#utility.yul\":12551:12742   */\n    tag_55:\n        /* \"#utility.yul\":12591:12595   */\n      0x00\n        /* \"#utility.yul\":12611:12631   */\n      tag_316\n        /* \"#utility.yul\":12629:12630   */\n      dup3\n        /* \"#utility.yul\":12611:12631   */\n      tag_170\n      jump\t// in\n    tag_316:\n        /* \"#utility.yul\":12606:12631   */\n      swap2\n      pop\n        /* \"#utility.yul\":12645:12665   */\n      tag_317\n        /* \"#utility.yul\":12663:12664   */\n      dup4\n        /* \"#utility.yul\":12645:12665   */\n      tag_170\n      jump\t// in\n    tag_317:\n        /* \"#utility.yul\":12640:12665   */\n      swap3\n      pop\n        /* \"#utility.yul\":12684:12685   */\n      dup3\n        /* \"#utility.yul\":12681:12682   */\n      dup3\n        /* \"#utility.yul\":12678:12686   */\n      lt\n        /* \"#utility.yul\":12675:12709   */\n      iszero\n      tag_318\n      jumpi\n        /* \"#utility.yul\":12689:12707   */\n      tag_319\n      tag_198\n      jump\t// in\n    tag_319:\n        /* \"#utility.yul\":12675:12709   */\n    tag_318:\n        /* \"#utility.yul\":12734:12735   */\n      dup3\n        /* \"#utility.yul\":12731:12732   */\n      dup3\n        /* \"#utility.yul\":12727:12736   */\n      sub\n        /* \"#utility.yul\":12719:12736   */\n      swap1\n      pop\n        /* \"#utility.yul\":12551:12742   */\n      swap3\n      swap2\n      pop\n      pop\n      jump\t// out\n        /* \"#utility.yul\":12748:12981   */\n    tag_58:\n        /* \"#utility.yul\":12787:12790   */\n      0x00\n        /* \"#utility.yul\":12810:12834   */\n      tag_321\n        /* \"#utility.yul\":12828:12833   */\n      dup3\n        /* \"#utility.yul\":12810:12834   */\n      tag_170\n      jump\t// in\n    tag_321:\n        /* \"#utility.yul\":12801:12834   */\n      swap2\n      pop\n        /* \"#utility.yul\":12856:12922   */\n      0xffffffffffffffffffffffffffffffffffffffffffffffffffffffffffffffff\n        /* \"#utility.yul\":12849:12854   */\n      dup3\n        /* \"#utility.yul\":12846:12923   */\n      sub\n        /* \"#utility.yul\":12843:12946   */\n      tag_322\n      jumpi\n        /* \"#utility.yul\":12926:12944   */\n      tag_323\n      tag_198\n      jump\t// in\n    tag_323:\n        /* \"#utility.yul\":12843:12946   */\n    tag_322:\n        /* \"#utility.yul\":12973:12974   */\n      0x01\n        /* \"#utility.yul\":12966:12971   */\n      dup3\n        /* \"#utility.yul\":12962:12975   */\n      add\n        /* \"#utility.yul\":12955:12975   */\n      swap1\n      pop\n        /* \"#utility.yul\":12748:12981   */\n      swap2\n      swap1\n      pop\n      jump\t// out\n        /* \"#utility.yul\":12987:13167   */\n    tag_199:\n        /* \"#utility.yul\":13035:13112   */\n      0x4e487b7100000000000000000000000000000000000000000000000000000000\n        /* \"#utility.yul\":13032:13033   */\n      0x00\n        /* \"#utility.yul\":13025:13113   */\n      mstore\n        /* \"#utility.yul\":13132:13136   */\n      0x22\n        /* \"#utility.yul\":13129:13130   */\n      0x04\n        /* \"#utility.yul\":13122:13137   */\n      mstore\n        /* \"#utility.yul\":13156:13160   */\n      0x24\n        /* \"#utility.yul\":13153:13154   */\n      0x00\n        /* \"#utility.yul\":13146:13161   */\n      revert\n        /* \"#utility.yul\":13173:13493   */\n    tag_70:\n        /* \"#utility.yul\":13217:13223   */\n      0x00\n        /* \"#utility.yul\":13254:13255   */\n      0x02\n        /* \"#utility.yul\":13248:13252   */\n      dup3\n        /* \"#utility.yul\":13244:13256   */\n      div\n        /* \"#utility.yul\":13234:13256   */\n      swap1\n      pop\n        /* \"#utility.yul\":13301:13302   */\n      0x01\n        /* \"#utility.yul\":13295:13299   */\n      dup3\n        /* \"#utility.yul\":13291:13303   */\n      and\n        /* \"#utility.yul\":13322:13340   */\n      dup1\n        /* \"#utility.yul\":13312:13393   */\n      tag_326\n      jumpi\n        /* \"#utility.yul\":13378:13382   */\n      0x7f\n        /* \"#utility.yul\":13370:13376   */\n      dup3\n        /* \"#utility.yul\":13366:13383   */\n      and\n        /* \"#utility.yul\":13356:13383   */\n      swap2\n      pop\n        /* \"#utility.yul\":13312:13393   */\n    tag_326:\n        /* \"#utility.yul\":13440:13442   */\n      0x20\n        /* \"#utility.yul\":13432:13438   */\n      dup3\n        /* \"#utility.yul\":13429:13443   */\n      lt\n        /* \"#utility.yul\":13409:13427   */\n      dup2\n        /* \"#utility.yul\":13406:13444   */\n      sub\n        /* \"#utility.yul\":13403:13487   */\n      tag_327\n      jumpi\n        /* \"#utility.yul\":13459:13477   */\n      tag_328\n      tag_199\n      jump\t// in\n    tag_328:\n        /* \"#utility.yul\":13403:13487   */\n    tag_327:\n        /* \"#utility.yul\":13224:13493   */\n      pop\n        /* \"#utility.yul\":13173:13493   */\n      swap2\n      swap1\n      pop\n      jump\t// out\n\n    auxdata: 0xa26469706673582212206efd658f4cbe883415955b8aefa22730c808943ef6c26eac9364d133ceeace1264736f6c634300080d0033\n}\n","bytecode":{"linkReferences":{},"object":"60806040523480156200001157600080fd5b5060405162001bea38038062001bea8339818101604052810190620000379190620003f6565b6040518060600160405280600181526020016040518060400160405280600c81526020017f526177204d6174657269616c00000000000000000000000000000000000000008152508152602001600015158152506002600060018152602001908152602001600020600082015181600001556020820151816001019080519060200190620000c7929190620002dc565b5060408201518160020160006101000a81548160ff0219169083151502179055509050506040518060600160405280600281526020016040518060400160405280600e81526020017f50617374657572697a6174696f6e00000000000000000000000000000000000081525081526020016000151581525060026000600281526020019081526020016000206000820151816000015560208201518160010190805190602001906200017b929190620002dc565b5060408201518160020160006101000a81548160ff0219169083151502179055509050506040518060600160405280600381526020016040518060400160405280600f81526020017f4f7574206f662044656c6976657279000000000000000000000000000000000081525081526020016000151581525060026000600381526020019081526020016000206000820151816000015560208201518160010190805190602001906200022f929190620002dc565b5060408201518160020160006101000a81548160ff02191690831515021790555090505033600660006101000a81548173ffffffffffffffffffffffffffffffffffffffff021916908373ffffffffffffffffffffffffffffffffffffffff16021790555080600560006101000a81548173ffffffffffffffffffffffffffffffffffffffff021916908373ffffffffffffffffffffffffffffffffffffffff160217905550506200048c565b828054620002ea9062000457565b90600052602060002090601f0160209004810192826200030e57600085556200035a565b82601f106200032957805160ff19168380011785556200035a565b828001600101855582156200035a579182015b82811115620003595782518255916020019190600101906200033c565b5b5090506200036991906200036d565b5090565b5b80821115620003885760008160009055506001016200036e565b5090565b600080fd5b600073ffffffffffffffffffffffffffffffffffffffff82169050919050565b6000620003be8262000391565b9050919050565b620003d081620003b1565b8114620003dc57600080fd5b50565b600081519050620003f081620003c5565b92915050565b6000602082840312156200040f576200040e6200038c565b5b60006200041f84828501620003df565b91505092915050565b7f4e487b7100000000000000000000000000000000000000000000000000000000600052602260045260246000fd5b600060028204905060018216806200047057607f821691505b60208210810362000486576200048562000428565b5b50919050565b61174e806200049c6000396000f3fe608060405234801561001057600080fd5b50600436106100625760003560e01c8063044373ee146100675780638f29695a14610083578063aa82e6d51461009f578063b9db15b4146100bb578063db34d123146100ef578063e225b6ec1461011f575b600080fd5b610081600480360381019061007c91906111dd565b61014f565b005b61009d60048036038101906100989190611290565b61038e565b005b6100b960048036038101906100b4919061131b565b6105a5565b005b6100d560048036038101906100d0919061131b565b6106de565b6040516100e695949392919061158a565b60405180910390f35b6101096004803603810190610104919061131b565b610914565b60405161011691906115f2565b60405180910390f35b6101396004803603810190610134919061131b565b610a03565b60405161014691906115f2565b60405180910390f35b600660009054906101000a900473ffffffffffffffffffffffffffffffffffffffff1673ffffffffffffffffffffffffffffffffffffffff163373ffffffffffffffffffffffffffffffffffffffff1614806101f85750600560009054906101000a900473ffffffffffffffffffffffffffffffffffffffff1673ffffffffffffffffffffffffffffffffffffffff163373ffffffffffffffffffffffffffffffffffffffff16145b61020157600080fd5b8460008111801561021457506004548111155b61021d57600080fd5b8584600360008381526020019081526020016000206002015481111561024257600080fd5b61024e87878787610a46565b6000610258610acf565b90506000600360008b815260200190815260200160002090508060090161027e83610ad9565b90806001815401808255809150506001900390600052602060002090600602016000909190919091506000820151816000015560208201518160010190805190602001906102cd929190610ee7565b50604082015181600201556060820151816003015560808201518160040190805190602001906102fe929190610ee7565b5060a0820151816005015550508781600201600082825461031f919061163c565b9250508190555060008160020154036103825780600b01600081548092919061034790611670565b9190505550600181600a01600083600b0154815260200190815260200160002060020160006101000a81548160ff0219169083151502179055505b50505050505050505050565b600660009054906101000a900473ffffffffffffffffffffffffffffffffffffffff1673ffffffffffffffffffffffffffffffffffffffff163373ffffffffffffffffffffffffffffffffffffffff1614806104375750600560009054906101000a900473ffffffffffffffffffffffffffffffffffffffff1673ffffffffffffffffffffffffffffffffffffffff163373ffffffffffffffffffffffffffffffffffffffff16145b61044057600080fd5b60006003600060046000815461045590611670565b9190508190558152602001908152602001600020905060045481600001819055508381600101908051906020019061048e929190610ee7565b50828160020181905550818160030190805190602001906104b0929190610ee7565b50600081600801819055506000600190505b6003811161055f576002600082815260200190815260200160002082600a016000838152602001908152602001600020600082015481600001556001820181600101908054610510906116e7565b61051b929190610f6d565b506002820160009054906101000a900460ff168160020160006101000a81548160ff021916908315150217905550905050808061055790611670565b9150506104c2565b50600181600b0181905550600181600a01600083600b0154815260200190815260200160002060020160006101000a81548160ff02191690831515021790555050505050565b600660009054906101000a900473ffffffffffffffffffffffffffffffffffffffff1673ffffffffffffffffffffffffffffffffffffffff163373ffffffffffffffffffffffffffffffffffffffff16148061064e5750600560009054906101000a900473ffffffffffffffffffffffffffffffffffffffff1673ffffffffffffffffffffffffffffffffffffffff163373ffffffffffffffffffffffffffffffffffffffff16145b61065757600080fd5b8060008111801561066a57506004548111155b61067357600080fd5b600060036000848152602001908152602001600020905080600b01600081548092919061069f90611670565b9190505550600181600a01600083600b0154815260200190815260200160002060020160006101000a81548160ff021916908315150217905550505050565b600060606000606080600660009054906101000a900473ffffffffffffffffffffffffffffffffffffffff1673ffffffffffffffffffffffffffffffffffffffff163373ffffffffffffffffffffffffffffffffffffffff1614806107905750600560009054906101000a900473ffffffffffffffffffffffffffffffffffffffff1673ffffffffffffffffffffffffffffffffffffffff163373ffffffffffffffffffffffffffffffffffffffff16145b61079957600080fd5b856000811180156107ac57506004548111155b6107b557600080fd5b60006003600089815260200190815260200160002090508060000154816001018260020154836003016107e78c610c51565b8380546107f3906116e7565b80601f016020809104026020016040519081016040528092919081815260200182805461081f906116e7565b801561086c5780601f106108415761010080835404028352916020019161086c565b820191906000526020600020905b81548152906001019060200180831161084f57829003601f168201915b5050505050935081805461087f906116e7565b80601f01602080910402602001604051908101604052809291908181526020018280546108ab906116e7565b80156108f85780601f106108cd576101008083540402835291602001916108f8565b820191906000526020600020905b8154815290600101906020018083116108db57829003601f168201915b5050505050915096509650965096509650505091939590929450565b6000600660009054906101000a900473ffffffffffffffffffffffffffffffffffffffff1673ffffffffffffffffffffffffffffffffffffffff163373ffffffffffffffffffffffffffffffffffffffff1614806109bf5750600560009054906101000a900473ffffffffffffffffffffffffffffffffffffffff1673ffffffffffffffffffffffffffffffffffffffff163373ffffffffffffffffffffffffffffffffffffffff16145b6109c857600080fd5b816000811180156109db57506004548111155b6109e457600080fd5b6003600084815260200190815260200160002060020154915050919050565b600081600081118015610a1857506004548111155b610a2157600080fd5b600060036000858152602001908152602001600020905080600b015492505050919050565b6000806000600160008154610a5a90611670565b91905081905581526020019081526020016000209050600154816000018190555084816001019080519060200190610a93929190610ee7565b5042816002018190555083816003018190555082816004019080519060200190610abe929190610ee7565b508181600501819055505050505050565b6000600154905090565b610ae1610ffa565b6000808381526020019081526020016000206040518060c001604052908160008201548152602001600182018054610b18906116e7565b80601f0160208091040260200160405190810160405280929190818152602001828054610b44906116e7565b8015610b915780601f10610b6657610100808354040283529160200191610b91565b820191906000526020600020905b815481529060010190602001808311610b7457829003601f168201915b505050505081526020016002820154815260200160038201548152602001600482018054610bbe906116e7565b80601f0160208091040260200160405190810160405280929190818152602001828054610bea906116e7565b8015610c375780601f10610c0c57610100808354040283529160200191610c37565b820191906000526020600020905b815481529060010190602001808311610c1a57829003601f168201915b505050505081526020016005820154815250509050919050565b6060600660009054906101000a900473ffffffffffffffffffffffffffffffffffffffff1673ffffffffffffffffffffffffffffffffffffffff163373ffffffffffffffffffffffffffffffffffffffff161480610cfc5750600560009054906101000a900473ffffffffffffffffffffffffffffffffffffffff1673ffffffffffffffffffffffffffffffffffffffff163373ffffffffffffffffffffffffffffffffffffffff16145b610d0557600080fd5b81600081118015610d1857506004548111155b610d2157600080fd5b600060036000858152602001908152602001600020905080600901805480602002602001604051908101604052809291908181526020016000905b82821015610eda57838290600052602060002090600602016040518060c001604052908160008201548152602001600182018054610d99906116e7565b80601f0160208091040260200160405190810160405280929190818152602001828054610dc5906116e7565b8015610e125780601f10610de757610100808354040283529160200191610e12565b820191906000526020600020905b815481529060010190602001808311610df557829003601f168201915b505050505081526020016002820154815260200160038201548152602001600482018054610e3f906116e7565b80601f0160208091040260200160405190810160405280929190818152602001828054610e6b906116e7565b8015610eb85780601f10610e8d57610100808354040283529160200191610eb8565b820191906000526020600020905b815481529060010190602001808311610e9b57829003601f168201915b5050505050815260200160058201548152505081526020019060010190610d5c565b5050505092505050919050565b828054610ef3906116e7565b90600052602060002090601f016020900481019282610f155760008555610f5c565b82601f10610f2e57805160ff1916838001178555610f5c565b82800160010185558215610f5c579182015b82811115610f5b578251825591602001919060010190610f40565b5b509050610f699190611030565b5090565b828054610f79906116e7565b90600052602060002090601f016020900481019282610f9b5760008555610fe9565b82601f10610fac5780548555610fe9565b82800160010185558215610fe957600052602060002091601f016020900482015b82811115610fe8578254825591600101919060010190610fcd565b5b509050610ff69190611030565b5090565b6040518060c001604052806000815260200160608152602001600081526020016000815260200160608152602001600081525090565b5b80821115611049576000816000905550600101611031565b5090565b6000604051905090565b600080fd5b600080fd5b6000819050919050565b61107481611061565b811461107f57600080fd5b50565b6000813590506110918161106b565b92915050565b600080fd5b600080fd5b6000601f19601f8301169050919050565b7f4e487b7100000000000000000000000000000000000000000000000000000000600052604160045260246000fd5b6110ea826110a1565b810181811067ffffffffffffffff82111715611109576111086110b2565b5b80604052505050565b600061111c61104d565b905061112882826110e1565b919050565b600067ffffffffffffffff821115611148576111476110b2565b5b611151826110a1565b9050602081019050919050565b82818337600083830152505050565b600061118061117b8461112d565b611112565b90508281526020810184848401111561119c5761119b61109c565b5b6111a784828561115e565b509392505050565b600082601f8301126111c4576111c3611097565b5b81356111d484826020860161116d565b91505092915050565b600080600080600060a086880312156111f9576111f8611057565b5b600061120788828901611082565b955050602086013567ffffffffffffffff8111156112285761122761105c565b5b611234888289016111af565b945050604061124588828901611082565b935050606086013567ffffffffffffffff8111156112665761126561105c565b5b611272888289016111af565b925050608061128388828901611082565b9150509295509295909350565b6000806000606084860312156112a9576112a8611057565b5b600084013567ffffffffffffffff8111156112c7576112c661105c565b5b6112d3868287016111af565b93505060206112e486828701611082565b925050604084013567ffffffffffffffff8111156113055761130461105c565b5b611311868287016111af565b9150509250925092565b60006020828403121561133157611330611057565b5b600061133f84828501611082565b91505092915050565b61135181611061565b82525050565b600081519050919050565b600082825260208201905092915050565b60005b83811015611391578082015181840152602081019050611376565b838111156113a0576000848401525b50505050565b60006113b182611357565b6113bb8185611362565b93506113cb818560208601611373565b6113d4816110a1565b840191505092915050565b600081519050919050565b600082825260208201905092915050565b6000819050602082019050919050565b61141481611061565b82525050565b600082825260208201905092915050565b600061143682611357565b611440818561141a565b9350611450818560208601611373565b611459816110a1565b840191505092915050565b600060c08301600083015161147c600086018261140b565b5060208301518482036020860152611494828261142b565b91505060408301516114a9604086018261140b565b5060608301516114bc606086018261140b565b50608083015184820360808601526114d4828261142b565b91505060a08301516114e960a086018261140b565b508091505092915050565b60006115008383611464565b905092915050565b6000602082019050919050565b6000611520826113df565b61152a81856113ea565b93508360208202850161153c856113fb565b8060005b85811015611578578484038952815161155985826114f4565b945061156483611508565b925060208a01995050600181019050611540565b50829750879550505050505092915050565b600060a08201905061159f6000830188611348565b81810360208301526115b181876113a6565b90506115c06040830186611348565b81810360608301526115d281856113a6565b905081810360808301526115e68184611515565b90509695505050505050565b60006020820190506116076000830184611348565b92915050565b7f4e487b7100000000000000000000000000000000000000000000000000000000600052601160045260246000fd5b600061164782611061565b915061165283611061565b9250828210156116655761166461160d565b5b828203905092915050565b600061167b82611061565b91507fffffffffffffffffffffffffffffffffffffffffffffffffffffffffffffffff82036116ad576116ac61160d565b5b600182019050919050565b7f4e487b7100000000000000000000000000000000000000000000000000000000600052602260045260246000fd5b600060028204905060018216806116ff57607f821691505b602082108103611712576117116116b8565b5b5091905056fea26469706673582212206efd658f4cbe883415955b8aefa22730c808943ef6c26eac9364d133ceeace1264736f6c634300080d0033","opcodes":"PUSH1 0x80 PUSH1 0x40 MSTORE CALLVALUE DUP1 ISZERO PUSH3 0x11 JUMPI PUSH1 0x0 DUP1 REVERT JUMPDEST POP PUSH1 0x40 MLOAD PUSH3 0x1BEA CODESIZE SUB DUP1 PUSH3 0x1BEA DUP4 CODECOPY DUP2 DUP2 ADD PUSH1 0x40 MSTORE DUP2 ADD SWAP1 PUSH3 0x37 SWAP2 SWAP1 PUSH3 0x3F6 JUMP JUMPDEST PUSH1 0x40 MLOAD DUP1 PUSH1 0x60 ADD PUSH1 0x40 MSTORE DUP1 PUSH1 0x1 DUP2 MSTORE PUSH1 0x20 ADD PUSH1 0x40 MLOAD DUP1 PUSH1 0x40 ADD PUSH1 0x40 MSTORE DUP1 PUSH1 0xC DUP2 MSTORE PUSH1 0x20 ADD PUSH32 0x526177204D6174657269616C0000000000000000000000000000000000000000 DUP2 MSTORE POP DUP2 MSTORE PUSH1 0x20 ADD PUSH1 0x0 ISZERO ISZERO DUP2 MSTORE POP PUSH1 0x2 PUSH1 0x0 PUSH1 0x1 DUP2 MSTORE PUSH1 0x20 ADD SWAP1 DUP2 MSTORE PUSH1 0x20 ADD PUSH1 0x0 KECCAK256 PUSH1 0x0 DUP3 ADD MLOAD DUP2 PUSH1 0x0 ADD SSTORE PUSH1 0x20 DUP3 ADD MLOAD DUP2 PUSH1 0x1 ADD SWAP1 DUP1 MLOAD SWAP1 PUSH1 0x20 ADD SWAP1 PUSH3 0xC7 SWAP3 SWAP2 SWAP1 PUSH3 0x2DC JUMP JUMPDEST POP PUSH1 0x40 DUP3 ADD MLOAD DUP2 PUSH1 0x2 ADD PUSH1 0x0 PUSH2 0x100 EXP DUP2 SLOAD DUP2 PUSH1 0xFF MUL NOT AND SWAP1 DUP4 ISZERO ISZERO MUL OR SWAP1 SSTORE POP SWAP1 POP POP PUSH1 0x40 MLOAD DUP1 PUSH1 0x60 ADD PUSH1 0x40 MSTORE DUP1 PUSH1 0x2 DUP2 MSTORE PUSH1 0x20 ADD PUSH1 0x40 MLOAD DUP1 PUSH1 0x40 ADD PUSH1 0x40 MSTORE DUP1 PUSH1 0xE DUP2 MSTORE PUSH1 0x20 ADD PUSH32 0x50617374657572697A6174696F6E000000000000000000000000000000000000 DUP2 MSTORE POP DUP2 MSTORE PUSH1 0x20 ADD PUSH1 0x0 ISZERO ISZERO DUP2 MSTORE POP PUSH1 0x2 PUSH1 0x0 PUSH1 0x2 DUP2 MSTORE PUSH1 0x20 ADD SWAP1 DUP2 MSTORE PUSH1 0x20 ADD PUSH1 0x0 KECCAK256 PUSH1 0x0 DUP3 ADD MLOAD DUP2 PUSH1 0x0 ADD SSTORE PUSH1 0x20 DUP3 ADD MLOAD DUP2 PUSH1 0x1 ADD SWAP1 DUP1 MLOAD SWAP1 PUSH1 0x20 ADD SWAP1 PUSH3 0x17B SWAP3 SWAP2 SWAP1 PUSH3 0x2DC JUMP JUMPDEST POP PUSH1 0x40 DUP3 ADD MLOAD DUP2 PUSH1 0x2 ADD PUSH1 0x0 PUSH2 0x100 EXP DUP2 SLOAD DUP2 PUSH1 0xFF MUL NOT AND SWAP1 DUP4 ISZERO ISZERO MUL OR SWAP1 SSTORE POP SWAP1 POP POP PUSH1 0x40 MLOAD DUP1 PUSH1 0x60 ADD PUSH1 0x40 MSTORE DUP1 PUSH1 0x3 DUP2 MSTORE PUSH1 0x20 ADD PUSH1 0x40 MLOAD DUP1 PUSH1 0x40 ADD PUSH1 0x40 MSTORE DUP1 PUSH1 0xF DUP2 MSTORE PUSH1 0x20 ADD PUSH32 0x4F7574206F662044656C69766572790000000000000000000000000000000000 DUP2 MSTORE POP DUP2 MSTORE PUSH1 0x20 ADD PUSH1 0x0 ISZERO ISZERO DUP2 MSTORE POP PUSH1 0x2 PUSH1 0x0 PUSH1 0x3 DUP2 MSTORE PUSH1 0x20 ADD SWAP1 DUP2 MSTORE PUSH1 0x20 ADD PUSH1 0x0 KECCAK256 PUSH1 0x0 DUP3 ADD MLOAD DUP2 PUSH1 0x0 ADD SSTORE PUSH1 0x20 DUP3 ADD MLOAD DUP2 PUSH1 0x1 ADD SWAP1 DUP1 MLOAD SWAP1 PUSH1 0x20 ADD SWAP1 PUSH3 0x22F SWAP3 SWAP2 SWAP1 PUSH3 0x2DC JUMP JUMPDEST POP PUSH1 0x40 DUP3 ADD MLOAD DUP2 PUSH1 0x2 ADD PUSH1 0x0 PUSH2 0x100 EXP DUP2 SLOAD DUP2 PUSH1 0xFF MUL NOT AND SWAP1 DUP4 ISZERO ISZERO MUL OR SWAP1 SSTORE POP SWAP1 POP POP CALLER PUSH1 0x6 PUSH1 0x0 PUSH2 0x100 EXP DUP2 SLOAD DUP2 PUSH20 0xFFFFFFFFFFFFFFFFFFFFFFFFFFFFFFFFFFFFFFFF MUL NOT AND SWAP1 DUP4 PUSH20 0xFFFFFFFFFFFFFFFFFFFFFFFFFFFFFFFFFFFFFFFF AND MUL OR SWAP1 SSTORE POP DUP1 PUSH1 0x5 PUSH1 0x0 PUSH2 0x100 EXP DUP2 SLOAD DUP2 PUSH20 0xFFFFFFFFFFFFFFFFFFFFFFFFFFFFFFFFFFFFFFFF MUL NOT AND SWAP1 DUP4 PUSH20 0xFFFFFFFFFFFFFFFFFFFFFFFFFFFFFFFFFFFFFFFF AND MUL OR SWAP1 SSTORE POP POP PUSH3 0x48C JUMP JUMPDEST DUP3 DUP1 SLOAD PUSH3 0x2EA SWAP1 PUSH3 0x457 JUMP JUMPDEST SWAP1 PUSH1 0x0 MSTORE PUSH1 0x20 PUSH1 0x0 KECCAK256 SWAP1 PUSH1 0x1F ADD PUSH1 0x20 SWAP1 DIV DUP2 ADD SWAP3 DUP3 PUSH3 0x30E JUMPI PUSH1 0x0 DUP6 SSTORE PUSH3 0x35A JUMP JUMPDEST DUP3 PUSH1 0x1F LT PUSH3 0x329 JUMPI DUP1 MLOAD PUSH1 0xFF NOT AND DUP4 DUP1 ADD OR DUP6 SSTORE PUSH3 0x35A JUMP JUMPDEST DUP3 DUP1 ADD PUSH1 0x1 ADD DUP6 SSTORE DUP3 ISZERO PUSH3 0x35A JUMPI SWAP2 DUP3 ADD JUMPDEST DUP3 DUP2 GT ISZERO PUSH3 0x359 JUMPI DUP3 MLOAD DUP3 SSTORE SWAP2 PUSH1 0x20 ADD SWAP2 SWAP1 PUSH1 0x1 ADD SWAP1 PUSH3 0x33C JUMP JUMPDEST JUMPDEST POP SWAP1 POP PUSH3 0x369 SWAP2 SWAP1 PUSH3 0x36D JUMP JUMPDEST POP SWAP1 JUMP JUMPDEST JUMPDEST DUP1 DUP3 GT ISZERO PUSH3 0x388 JUMPI PUSH1 0x0 DUP2 PUSH1 0x0 SWAP1 SSTORE POP PUSH1 0x1 ADD PUSH3 0x36E JUMP JUMPDEST POP SWAP1 JUMP JUMPDEST PUSH1 0x0 DUP1 REVERT JUMPDEST PUSH1 0x0 PUSH20 0xFFFFFFFFFFFFFFFFFFFFFFFFFFFFFFFFFFFFFFFF DUP3 AND SWAP1 POP SWAP2 SWAP1 POP JUMP JUMPDEST PUSH1 0x0 PUSH3 0x3BE DUP3 PUSH3 0x391 JUMP JUMPDEST SWAP1 POP SWAP2 SWAP1 POP JUMP JUMPDEST PUSH3 0x3D0 DUP2 PUSH3 0x3B1 JUMP JUMPDEST DUP2 EQ PUSH3 0x3DC JUMPI PUSH1 0x0 DUP1 REVERT JUMPDEST POP JUMP JUMPDEST PUSH1 0x0 DUP2 MLOAD SWAP1 POP PUSH3 0x3F0 DUP2 PUSH3 0x3C5 JUMP JUMPDEST SWAP3 SWAP2 POP POP JUMP JUMPDEST PUSH1 0x0 PUSH1 0x20 DUP3 DUP5 SUB SLT ISZERO PUSH3 0x40F JUMPI PUSH3 0x40E PUSH3 0x38C JUMP JUMPDEST JUMPDEST PUSH1 0x0 PUSH3 0x41F DUP5 DUP3 DUP6 ADD PUSH3 0x3DF JUMP JUMPDEST SWAP2 POP POP SWAP3 SWAP2 POP POP JUMP JUMPDEST PUSH32 0x4E487B7100000000000000000000000000000000000000000000000000000000 PUSH1 0x0 MSTORE PUSH1 0x22 PUSH1 0x4 MSTORE PUSH1 0x24 PUSH1 0x0 REVERT JUMPDEST PUSH1 0x0 PUSH1 0x2 DUP3 DIV SWAP1 POP PUSH1 0x1 DUP3 AND DUP1 PUSH3 0x470 JUMPI PUSH1 0x7F DUP3 AND SWAP2 POP JUMPDEST PUSH1 0x20 DUP3 LT DUP2 SUB PUSH3 0x486 JUMPI PUSH3 0x485 PUSH3 0x428 JUMP JUMPDEST JUMPDEST POP SWAP2 SWAP1 POP JUMP JUMPDEST PUSH2 0x174E DUP1 PUSH3 0x49C PUSH1 0x0 CODECOPY PUSH1 0x0 RETURN INVALID PUSH1 0x80 PUSH1 0x40 MSTORE CALLVALUE DUP1 ISZERO PUSH2 0x10 JUMPI PUSH1 0x0 DUP1 REVERT JUMPDEST POP PUSH1 0x4 CALLDATASIZE LT PUSH2 0x62 JUMPI PUSH1 0x0 CALLDATALOAD PUSH1 0xE0 SHR DUP1 PUSH4 0x44373EE EQ PUSH2 0x67 JUMPI DUP1 PUSH4 0x8F29695A EQ PUSH2 0x83 JUMPI DUP1 PUSH4 0xAA82E6D5 EQ PUSH2 0x9F JUMPI DUP1 PUSH4 0xB9DB15B4 EQ PUSH2 0xBB JUMPI DUP1 PUSH4 0xDB34D123 EQ PUSH2 0xEF JUMPI DUP1 PUSH4 0xE225B6EC EQ PUSH2 0x11F JUMPI JUMPDEST PUSH1 0x0 DUP1 REVERT JUMPDEST PUSH2 0x81 PUSH1 0x4 DUP1 CALLDATASIZE SUB DUP2 ADD SWAP1 PUSH2 0x7C SWAP2 SWAP1 PUSH2 0x11DD JUMP JUMPDEST PUSH2 0x14F JUMP JUMPDEST STOP JUMPDEST PUSH2 0x9D PUSH1 0x4 DUP1 CALLDATASIZE SUB DUP2 ADD SWAP1 PUSH2 0x98 SWAP2 SWAP1 PUSH2 0x1290 JUMP JUMPDEST PUSH2 0x38E JUMP JUMPDEST STOP JUMPDEST PUSH2 0xB9 PUSH1 0x4 DUP1 CALLDATASIZE SUB DUP2 ADD SWAP1 PUSH2 0xB4 SWAP2 SWAP1 PUSH2 0x131B JUMP JUMPDEST PUSH2 0x5A5 JUMP JUMPDEST STOP JUMPDEST PUSH2 0xD5 PUSH1 0x4 DUP1 CALLDATASIZE SUB DUP2 ADD SWAP1 PUSH2 0xD0 SWAP2 SWAP1 PUSH2 0x131B JUMP JUMPDEST PUSH2 0x6DE JUMP JUMPDEST PUSH1 0x40 MLOAD PUSH2 0xE6 SWAP6 SWAP5 SWAP4 SWAP3 SWAP2 SWAP1 PUSH2 0x158A JUMP JUMPDEST PUSH1 0x40 MLOAD DUP1 SWAP2 SUB SWAP1 RETURN JUMPDEST PUSH2 0x109 PUSH1 0x4 DUP1 CALLDATASIZE SUB DUP2 ADD SWAP1 PUSH2 0x104 SWAP2 SWAP1 PUSH2 0x131B JUMP JUMPDEST PUSH2 0x914 JUMP JUMPDEST PUSH1 0x40 MLOAD PUSH2 0x116 SWAP2 SWAP1 PUSH2 0x15F2 JUMP JUMPDEST PUSH1 0x40 MLOAD DUP1 SWAP2 SUB SWAP1 RETURN JUMPDEST PUSH2 0x139 PUSH1 0x4 DUP1 CALLDATASIZE SUB DUP2 ADD SWAP1 PUSH2 0x134 SWAP2 SWAP1 PUSH2 0x131B JUMP JUMPDEST PUSH2 0xA03 JUMP JUMPDEST PUSH1 0x40 MLOAD PUSH2 0x146 SWAP2 SWAP1 PUSH2 0x15F2 JUMP JUMPDEST PUSH1 0x40 MLOAD DUP1 SWAP2 SUB SWAP1 RETURN JUMPDEST PUSH1 0x6 PUSH1 0x0 SWAP1 SLOAD SWAP1 PUSH2 0x100 EXP SWAP1 DIV PUSH20 0xFFFFFFFFFFFFFFFFFFFFFFFFFFFFFFFFFFFFFFFF AND PUSH20 0xFFFFFFFFFFFFFFFFFFFFFFFFFFFFFFFFFFFFFFFF AND CALLER PUSH20 0xFFFFFFFFFFFFFFFFFFFFFFFFFFFFFFFFFFFFFFFF AND EQ DUP1 PUSH2 0x1F8 JUMPI POP PUSH1 0x5 PUSH1 0x0 SWAP1 SLOAD SWAP1 PUSH2 0x100 EXP SWAP1 DIV PUSH20 0xFFFFFFFFFFFFFFFFFFFFFFFFFFFFFFFFFFFFFFFF AND PUSH20 0xFFFFFFFFFFFFFFFFFFFFFFFFFFFFFFFFFFFFFFFF AND CALLER PUSH20 0xFFFFFFFFFFFFFFFFFFFFFFFFFFFFFFFFFFFFFFFF AND EQ JUMPDEST PUSH2 0x201 JUMPI PUSH1 0x0 DUP1 REVERT JUMPDEST DUP5 PUSH1 0x0 DUP2 GT DUP1 ISZERO PUSH2 0x214 JUMPI POP PUSH1 0x4 SLOAD DUP2 GT ISZERO JUMPDEST PUSH2 0x21D JUMPI PUSH1 0x0 DUP1 REVERT JUMPDEST DUP6 DUP5 PUSH1 0x3 PUSH1 0x0 DUP4 DUP2 MSTORE PUSH1 0x20 ADD SWAP1 DUP2 MSTORE PUSH1 0x20 ADD PUSH1 0x0 KECCAK256 PUSH1 0x2 ADD SLOAD DUP2 GT ISZERO PUSH2 0x242 JUMPI PUSH1 0x0 DUP1 REVERT JUMPDEST PUSH2 0x24E DUP8 DUP8 DUP8 DUP8 PUSH2 0xA46 JUMP JUMPDEST PUSH1 0x0 PUSH2 0x258 PUSH2 0xACF JUMP JUMPDEST SWAP1 POP PUSH1 0x0 PUSH1 0x3 PUSH1 0x0 DUP12 DUP2 MSTORE PUSH1 0x20 ADD SWAP1 DUP2 MSTORE PUSH1 0x20 ADD PUSH1 0x0 KECCAK256 SWAP1 POP DUP1 PUSH1 0x9 ADD PUSH2 0x27E DUP4 PUSH2 0xAD9 JUMP JUMPDEST SWAP1 DUP1 PUSH1 0x1 DUP2 SLOAD ADD DUP1 DUP3 SSTORE DUP1 SWAP2 POP POP PUSH1 0x1 SWAP1 SUB SWAP1 PUSH1 0x0 MSTORE PUSH1 0x20 PUSH1 0x0 KECCAK256 SWAP1 PUSH1 0x6 MUL ADD PUSH1 0x0 SWAP1 SWAP2 SWAP1 SWAP2 SWAP1 SWAP2 POP PUSH1 0x0 DUP3 ADD MLOAD DUP2 PUSH1 0x0 ADD SSTORE PUSH1 0x20 DUP3 ADD MLOAD DUP2 PUSH1 0x1 ADD SWAP1 DUP1 MLOAD SWAP1 PUSH1 0x20 ADD SWAP1 PUSH2 0x2CD SWAP3 SWAP2 SWAP1 PUSH2 0xEE7 JUMP JUMPDEST POP PUSH1 0x40 DUP3 ADD MLOAD DUP2 PUSH1 0x2 ADD SSTORE PUSH1 0x60 DUP3 ADD MLOAD DUP2 PUSH1 0x3 ADD SSTORE PUSH1 0x80 DUP3 ADD MLOAD DUP2 PUSH1 0x4 ADD SWAP1 DUP1 MLOAD SWAP1 PUSH1 0x20 ADD SWAP1 PUSH2 0x2FE SWAP3 SWAP2 SWAP1 PUSH2 0xEE7 JUMP JUMPDEST POP PUSH1 0xA0 DUP3 ADD MLOAD DUP2 PUSH1 0x5 ADD SSTORE POP POP DUP8 DUP2 PUSH1 0x2 ADD PUSH1 0x0 DUP3 DUP3 SLOAD PUSH2 0x31F SWAP2 SWAP1 PUSH2 0x163C JUMP JUMPDEST SWAP3 POP POP DUP2 SWAP1 SSTORE POP PUSH1 0x0 DUP2 PUSH1 0x2 ADD SLOAD SUB PUSH2 0x382 JUMPI DUP1 PUSH1 0xB ADD PUSH1 0x0 DUP2 SLOAD DUP1 SWAP3 SWAP2 SWAP1 PUSH2 0x347 SWAP1 PUSH2 0x1670 JUMP JUMPDEST SWAP2 SWAP1 POP SSTORE POP PUSH1 0x1 DUP2 PUSH1 0xA ADD PUSH1 0x0 DUP4 PUSH1 0xB ADD SLOAD DUP2 MSTORE PUSH1 0x20 ADD SWAP1 DUP2 MSTORE PUSH1 0x20 ADD PUSH1 0x0 KECCAK256 PUSH1 0x2 ADD PUSH1 0x0 PUSH2 0x100 EXP DUP2 SLOAD DUP2 PUSH1 0xFF MUL NOT AND SWAP1 DUP4 ISZERO ISZERO MUL OR SWAP1 SSTORE POP JUMPDEST POP POP POP POP POP POP POP POP POP POP JUMP JUMPDEST PUSH1 0x6 PUSH1 0x0 SWAP1 SLOAD SWAP1 PUSH2 0x100 EXP SWAP1 DIV PUSH20 0xFFFFFFFFFFFFFFFFFFFFFFFFFFFFFFFFFFFFFFFF AND PUSH20 0xFFFFFFFFFFFFFFFFFFFFFFFFFFFFFFFFFFFFFFFF AND CALLER PUSH20 0xFFFFFFFFFFFFFFFFFFFFFFFFFFFFFFFFFFFFFFFF AND EQ DUP1 PUSH2 0x437 JUMPI POP PUSH1 0x5 PUSH1 0x0 SWAP1 SLOAD SWAP1 PUSH2 0x100 EXP SWAP1 DIV PUSH20 0xFFFFFFFFFFFFFFFFFFFFFFFFFFFFFFFFFFFFFFFF AND PUSH20 0xFFFFFFFFFFFFFFFFFFFFFFFFFFFFFFFFFFFFFFFF AND CALLER PUSH20 0xFFFFFFFFFFFFFFFFFFFFFFFFFFFFFFFFFFFFFFFF AND EQ JUMPDEST PUSH2 0x440 JUMPI PUSH1 0x0 DUP1 REVERT JUMPDEST PUSH1 0x0 PUSH1 0x3 PUSH1 0x0 PUSH1 0x4 PUSH1 0x0 DUP2 SLOAD PUSH2 0x455 SWAP1 PUSH2 0x1670 JUMP JUMPDEST SWAP2 SWAP1 POP DUP2 SWAP1 SSTORE DUP2 MSTORE PUSH1 0x20 ADD SWAP1 DUP2 MSTORE PUSH1 0x20 ADD PUSH1 0x0 KECCAK256 SWAP1 POP PUSH1 0x4 SLOAD DUP2 PUSH1 0x0 ADD DUP2 SWAP1 SSTORE POP DUP4 DUP2 PUSH1 0x1 ADD SWAP1 DUP1 MLOAD SWAP1 PUSH1 0x20 ADD SWAP1 PUSH2 0x48E SWAP3 SWAP2 SWAP1 PUSH2 0xEE7 JUMP JUMPDEST POP DUP3 DUP2 PUSH1 0x2 ADD DUP2 SWAP1 SSTORE POP DUP2 DUP2 PUSH1 0x3 ADD SWAP1 DUP1 MLOAD SWAP1 PUSH1 0x20 ADD SWAP1 PUSH2 0x4B0 SWAP3 SWAP2 SWAP1 PUSH2 0xEE7 JUMP JUMPDEST POP PUSH1 0x0 DUP2 PUSH1 0x8 ADD DUP2 SWAP1 SSTORE POP PUSH1 0x0 PUSH1 0x1 SWAP1 POP JUMPDEST PUSH1 0x3 DUP2 GT PUSH2 0x55F JUMPI PUSH1 0x2 PUSH1 0x0 DUP3 DUP2 MSTORE PUSH1 0x20 ADD SWAP1 DUP2 MSTORE PUSH1 0x20 ADD PUSH1 0x0 KECCAK256 DUP3 PUSH1 0xA ADD PUSH1 0x0 DUP4 DUP2 MSTORE PUSH1 0x20 ADD SWAP1 DUP2 MSTORE PUSH1 0x20 ADD PUSH1 0x0 KECCAK256 PUSH1 0x0 DUP3 ADD SLOAD DUP2 PUSH1 0x0 ADD SSTORE PUSH1 0x1 DUP3 ADD DUP2 PUSH1 0x1 ADD SWAP1 DUP1 SLOAD PUSH2 0x510 SWAP1 PUSH2 0x16E7 JUMP JUMPDEST PUSH2 0x51B SWAP3 SWAP2 SWAP1 PUSH2 0xF6D JUMP JUMPDEST POP PUSH1 0x2 DUP3 ADD PUSH1 0x0 SWAP1 SLOAD SWAP1 PUSH2 0x100 EXP SWAP1 DIV PUSH1 0xFF AND DUP2 PUSH1 0x2 ADD PUSH1 0x0 PUSH2 0x100 EXP DUP2 SLOAD DUP2 PUSH1 0xFF MUL NOT AND SWAP1 DUP4 ISZERO ISZERO MUL OR SWAP1 SSTORE POP SWAP1 POP POP DUP1 DUP1 PUSH2 0x557 SWAP1 PUSH2 0x1670 JUMP JUMPDEST SWAP2 POP POP PUSH2 0x4C2 JUMP JUMPDEST POP PUSH1 0x1 DUP2 PUSH1 0xB ADD DUP2 SWAP1 SSTORE POP PUSH1 0x1 DUP2 PUSH1 0xA ADD PUSH1 0x0 DUP4 PUSH1 0xB ADD SLOAD DUP2 MSTORE PUSH1 0x20 ADD SWAP1 DUP2 MSTORE PUSH1 0x20 ADD PUSH1 0x0 KECCAK256 PUSH1 0x2 ADD PUSH1 0x0 PUSH2 0x100 EXP DUP2 SLOAD DUP2 PUSH1 0xFF MUL NOT AND SWAP1 DUP4 ISZERO ISZERO MUL OR SWAP1 SSTORE POP POP POP POP POP JUMP JUMPDEST PUSH1 0x6 PUSH1 0x0 SWAP1 SLOAD SWAP1 PUSH2 0x100 EXP SWAP1 DIV PUSH20 0xFFFFFFFFFFFFFFFFFFFFFFFFFFFFFFFFFFFFFFFF AND PUSH20 0xFFFFFFFFFFFFFFFFFFFFFFFFFFFFFFFFFFFFFFFF AND CALLER PUSH20 0xFFFFFFFFFFFFFFFFFFFFFFFFFFFFFFFFFFFFFFFF AND EQ DUP1 PUSH2 0x64E JUMPI POP PUSH1 0x5 PUSH1 0x0 SWAP1 SLOAD SWAP1 PUSH2 0x100 EXP SWAP1 DIV PUSH20 0xFFFFFFFFFFFFFFFFFFFFFFFFFFFFFFFFFFFFFFFF AND PUSH20 0xFFFFFFFFFFFFFFFFFFFFFFFFFFFFFFFFFFFFFFFF AND CALLER PUSH20 0xFFFFFFFFFFFFFFFFFFFFFFFFFFFFFFFFFFFFFFFF AND EQ JUMPDEST PUSH2 0x657 JUMPI PUSH1 0x0 DUP1 REVERT JUMPDEST DUP1 PUSH1 0x0 DUP2 GT DUP1 ISZERO PUSH2 0x66A JUMPI POP PUSH1 0x4 SLOAD DUP2 GT ISZERO JUMPDEST PUSH2 0x673 JUMPI PUSH1 0x0 DUP1 REVERT JUMPDEST PUSH1 0x0 PUSH1 0x3 PUSH1 0x0 DUP5 DUP2 MSTORE PUSH1 0x20 ADD SWAP1 DUP2 MSTORE PUSH1 0x20 ADD PUSH1 0x0 KECCAK256 SWAP1 POP DUP1 PUSH1 0xB ADD PUSH1 0x0 DUP2 SLOAD DUP1 SWAP3 SWAP2 SWAP1 PUSH2 0x69F SWAP1 PUSH2 0x1670 JUMP JUMPDEST SWAP2 SWAP1 POP SSTORE POP PUSH1 0x1 DUP2 PUSH1 0xA ADD PUSH1 0x0 DUP4 PUSH1 0xB ADD SLOAD DUP2 MSTORE PUSH1 0x20 ADD SWAP1 DUP2 MSTORE PUSH1 0x20 ADD PUSH1 0x0 KECCAK256 PUSH1 0x2 ADD PUSH1 0x0 PUSH2 0x100 EXP DUP2 SLOAD DUP2 PUSH1 0xFF MUL NOT AND SWAP1 DUP4 ISZERO ISZERO MUL OR SWAP1 SSTORE POP POP POP POP JUMP JUMPDEST PUSH1 0x0 PUSH1 0x60 PUSH1 0x0 PUSH1 0x60 DUP1 PUSH1 0x6 PUSH1 0x0 SWAP1 SLOAD SWAP1 PUSH2 0x100 EXP SWAP1 DIV PUSH20 0xFFFFFFFFFFFFFFFFFFFFFFFFFFFFFFFFFFFFFFFF AND PUSH20 0xFFFFFFFFFFFFFFFFFFFFFFFFFFFFFFFFFFFFFFFF AND CALLER PUSH20 0xFFFFFFFFFFFFFFFFFFFFFFFFFFFFFFFFFFFFFFFF AND EQ DUP1 PUSH2 0x790 JUMPI POP PUSH1 0x5 PUSH1 0x0 SWAP1 SLOAD SWAP1 PUSH2 0x100 EXP SWAP1 DIV PUSH20 0xFFFFFFFFFFFFFFFFFFFFFFFFFFFFFFFFFFFFFFFF AND PUSH20 0xFFFFFFFFFFFFFFFFFFFFFFFFFFFFFFFFFFFFFFFF AND CALLER PUSH20 0xFFFFFFFFFFFFFFFFFFFFFFFFFFFFFFFFFFFFFFFF AND EQ JUMPDEST PUSH2 0x799 JUMPI PUSH1 0x0 DUP1 REVERT JUMPDEST DUP6 PUSH1 0x0 DUP2 GT DUP1 ISZERO PUSH2 0x7AC JUMPI POP PUSH1 0x4 SLOAD DUP2 GT ISZERO JUMPDEST PUSH2 0x7B5 JUMPI PUSH1 0x0 DUP1 REVERT JUMPDEST PUSH1 0x0 PUSH1 0x3 PUSH1 0x0 DUP10 DUP2 MSTORE PUSH1 0x20 ADD SWAP1 DUP2 MSTORE PUSH1 0x20 ADD PUSH1 0x0 KECCAK256 SWAP1 POP DUP1 PUSH1 0x0 ADD SLOAD DUP2 PUSH1 0x1 ADD DUP3 PUSH1 0x2 ADD SLOAD DUP4 PUSH1 0x3 ADD PUSH2 0x7E7 DUP13 PUSH2 0xC51 JUMP JUMPDEST DUP4 DUP1 SLOAD PUSH2 0x7F3 SWAP1 PUSH2 0x16E7 JUMP JUMPDEST DUP1 PUSH1 0x1F ADD PUSH1 0x20 DUP1 SWAP2 DIV MUL PUSH1 0x20 ADD PUSH1 0x40 MLOAD SWAP1 DUP2 ADD PUSH1 0x40 MSTORE DUP1 SWAP3 SWAP2 SWAP1 DUP2 DUP2 MSTORE PUSH1 0x20 ADD DUP3 DUP1 SLOAD PUSH2 0x81F SWAP1 PUSH2 0x16E7 JUMP JUMPDEST DUP1 ISZERO PUSH2 0x86C JUMPI DUP1 PUSH1 0x1F LT PUSH2 0x841 JUMPI PUSH2 0x100 DUP1 DUP4 SLOAD DIV MUL DUP4 MSTORE SWAP2 PUSH1 0x20 ADD SWAP2 PUSH2 0x86C JUMP JUMPDEST DUP3 ADD SWAP2 SWAP1 PUSH1 0x0 MSTORE PUSH1 0x20 PUSH1 0x0 KECCAK256 SWAP1 JUMPDEST DUP2 SLOAD DUP2 MSTORE SWAP1 PUSH1 0x1 ADD SWAP1 PUSH1 0x20 ADD DUP1 DUP4 GT PUSH2 0x84F JUMPI DUP3 SWAP1 SUB PUSH1 0x1F AND DUP3 ADD SWAP2 JUMPDEST POP POP POP POP POP SWAP4 POP DUP2 DUP1 SLOAD PUSH2 0x87F SWAP1 PUSH2 0x16E7 JUMP JUMPDEST DUP1 PUSH1 0x1F ADD PUSH1 0x20 DUP1 SWAP2 DIV MUL PUSH1 0x20 ADD PUSH1 0x40 MLOAD SWAP1 DUP2 ADD PUSH1 0x40 MSTORE DUP1 SWAP3 SWAP2 SWAP1 DUP2 DUP2 MSTORE PUSH1 0x20 ADD DUP3 DUP1 SLOAD PUSH2 0x8AB SWAP1 PUSH2 0x16E7 JUMP JUMPDEST DUP1 ISZERO PUSH2 0x8F8 JUMPI DUP1 PUSH1 0x1F LT PUSH2 0x8CD JUMPI PUSH2 0x100 DUP1 DUP4 SLOAD DIV MUL DUP4 MSTORE SWAP2 PUSH1 0x20 ADD SWAP2 PUSH2 0x8F8 JUMP JUMPDEST DUP3 ADD SWAP2 SWAP1 PUSH1 0x0 MSTORE PUSH1 0x20 PUSH1 0x0 KECCAK256 SWAP1 JUMPDEST DUP2 SLOAD DUP2 MSTORE SWAP1 PUSH1 0x1 ADD SWAP1 PUSH1 0x20 ADD DUP1 DUP4 GT PUSH2 0x8DB JUMPI DUP3 SWAP1 SUB PUSH1 0x1F AND DUP3 ADD SWAP2 JUMPDEST POP POP POP POP POP SWAP2 POP SWAP7 POP SWAP7 POP SWAP7 POP SWAP7 POP SWAP7 POP POP POP SWAP2 SWAP4 SWAP6 SWAP1 SWAP3 SWAP5 POP JUMP JUMPDEST PUSH1 0x0 PUSH1 0x6 PUSH1 0x0 SWAP1 SLOAD SWAP1 PUSH2 0x100 EXP SWAP1 DIV PUSH20 0xFFFFFFFFFFFFFFFFFFFFFFFFFFFFFFFFFFFFFFFF AND PUSH20 0xFFFFFFFFFFFFFFFFFFFFFFFFFFFFFFFFFFFFFFFF AND CALLER PUSH20 0xFFFFFFFFFFFFFFFFFFFFFFFFFFFFFFFFFFFFFFFF AND EQ DUP1 PUSH2 0x9BF JUMPI POP PUSH1 0x5 PUSH1 0x0 SWAP1 SLOAD SWAP1 PUSH2 0x100 EXP SWAP1 DIV PUSH20 0xFFFFFFFFFFFFFFFFFFFFFFFFFFFFFFFFFFFFFFFF AND PUSH20 0xFFFFFFFFFFFFFFFFFFFFFFFFFFFFFFFFFFFFFFFF AND CALLER PUSH20 0xFFFFFFFFFFFFFFFFFFFFFFFFFFFFFFFFFFFFFFFF AND EQ JUMPDEST PUSH2 0x9C8 JUMPI PUSH1 0x0 DUP1 REVERT JUMPDEST DUP2 PUSH1 0x0 DUP2 GT DUP1 ISZERO PUSH2 0x9DB JUMPI POP PUSH1 0x4 SLOAD DUP2 GT ISZERO JUMPDEST PUSH2 0x9E4 JUMPI PUSH1 0x0 DUP1 REVERT JUMPDEST PUSH1 0x3 PUSH1 0x0 DUP5 DUP2 MSTORE PUSH1 0x20 ADD SWAP1 DUP2 MSTORE PUSH1 0x20 ADD PUSH1 0x0 KECCAK256 PUSH1 0x2 ADD SLOAD SWAP2 POP POP SWAP2 SWAP1 POP JUMP JUMPDEST PUSH1 0x0 DUP2 PUSH1 0x0 DUP2 GT DUP1 ISZERO PUSH2 0xA18 JUMPI POP PUSH1 0x4 SLOAD DUP2 GT ISZERO JUMPDEST PUSH2 0xA21 JUMPI PUSH1 0x0 DUP1 REVERT JUMPDEST PUSH1 0x0 PUSH1 0x3 PUSH1 0x0 DUP6 DUP2 MSTORE PUSH1 0x20 ADD SWAP1 DUP2 MSTORE PUSH1 0x20 ADD PUSH1 0x0 KECCAK256 SWAP1 POP DUP1 PUSH1 0xB ADD SLOAD SWAP3 POP POP POP SWAP2 SWAP1 POP JUMP JUMPDEST PUSH1 0x0 DUP1 PUSH1 0x0 PUSH1 0x1 PUSH1 0x0 DUP2 SLOAD PUSH2 0xA5A SWAP1 PUSH2 0x1670 JUMP JUMPDEST SWAP2 SWAP1 POP DUP2 SWAP1 SSTORE DUP2 MSTORE PUSH1 0x20 ADD SWAP1 DUP2 MSTORE PUSH1 0x20 ADD PUSH1 0x0 KECCAK256 SWAP1 POP PUSH1 0x1 SLOAD DUP2 PUSH1 0x0 ADD DUP2 SWAP1 SSTORE POP DUP5 DUP2 PUSH1 0x1 ADD SWAP1 DUP1 MLOAD SWAP1 PUSH1 0x20 ADD SWAP1 PUSH2 0xA93 SWAP3 SWAP2 SWAP1 PUSH2 0xEE7 JUMP JUMPDEST POP TIMESTAMP DUP2 PUSH1 0x2 ADD DUP2 SWAP1 SSTORE POP DUP4 DUP2 PUSH1 0x3 ADD DUP2 SWAP1 SSTORE POP DUP3 DUP2 PUSH1 0x4 ADD SWAP1 DUP1 MLOAD SWAP1 PUSH1 0x20 ADD SWAP1 PUSH2 0xABE SWAP3 SWAP2 SWAP1 PUSH2 0xEE7 JUMP JUMPDEST POP DUP2 DUP2 PUSH1 0x5 ADD DUP2 SWAP1 SSTORE POP POP POP POP POP POP JUMP JUMPDEST PUSH1 0x0 PUSH1 0x1 SLOAD SWAP1 POP SWAP1 JUMP JUMPDEST PUSH2 0xAE1 PUSH2 0xFFA JUMP JUMPDEST PUSH1 0x0 DUP1 DUP4 DUP2 MSTORE PUSH1 0x20 ADD SWAP1 DUP2 MSTORE PUSH1 0x20 ADD PUSH1 0x0 KECCAK256 PUSH1 0x40 MLOAD DUP1 PUSH1 0xC0 ADD PUSH1 0x40 MSTORE SWAP1 DUP2 PUSH1 0x0 DUP3 ADD SLOAD DUP2 MSTORE PUSH1 0x20 ADD PUSH1 0x1 DUP3 ADD DUP1 SLOAD PUSH2 0xB18 SWAP1 PUSH2 0x16E7 JUMP JUMPDEST DUP1 PUSH1 0x1F ADD PUSH1 0x20 DUP1 SWAP2 DIV MUL PUSH1 0x20 ADD PUSH1 0x40 MLOAD SWAP1 DUP2 ADD PUSH1 0x40 MSTORE DUP1 SWAP3 SWAP2 SWAP1 DUP2 DUP2 MSTORE PUSH1 0x20 ADD DUP3 DUP1 SLOAD PUSH2 0xB44 SWAP1 PUSH2 0x16E7 JUMP JUMPDEST DUP1 ISZERO PUSH2 0xB91 JUMPI DUP1 PUSH1 0x1F LT PUSH2 0xB66 JUMPI PUSH2 0x100 DUP1 DUP4 SLOAD DIV MUL DUP4 MSTORE SWAP2 PUSH1 0x20 ADD SWAP2 PUSH2 0xB91 JUMP JUMPDEST DUP3 ADD SWAP2 SWAP1 PUSH1 0x0 MSTORE PUSH1 0x20 PUSH1 0x0 KECCAK256 SWAP1 JUMPDEST DUP2 SLOAD DUP2 MSTORE SWAP1 PUSH1 0x1 ADD SWAP1 PUSH1 0x20 ADD DUP1 DUP4 GT PUSH2 0xB74 JUMPI DUP3 SWAP1 SUB PUSH1 0x1F AND DUP3 ADD SWAP2 JUMPDEST POP POP POP POP POP DUP2 MSTORE PUSH1 0x20 ADD PUSH1 0x2 DUP3 ADD SLOAD DUP2 MSTORE PUSH1 0x20 ADD PUSH1 0x3 DUP3 ADD SLOAD DUP2 MSTORE PUSH1 0x20 ADD PUSH1 0x4 DUP3 ADD DUP1 SLOAD PUSH2 0xBBE SWAP1 PUSH2 0x16E7 JUMP JUMPDEST DUP1 PUSH1 0x1F ADD PUSH1 0x20 DUP1 SWAP2 DIV MUL PUSH1 0x20 ADD PUSH1 0x40 MLOAD SWAP1 DUP2 ADD PUSH1 0x40 MSTORE DUP1 SWAP3 SWAP2 SWAP1 DUP2 DUP2 MSTORE PUSH1 0x20 ADD DUP3 DUP1 SLOAD PUSH2 0xBEA SWAP1 PUSH2 0x16E7 JUMP JUMPDEST DUP1 ISZERO PUSH2 0xC37 JUMPI DUP1 PUSH1 0x1F LT PUSH2 0xC0C JUMPI PUSH2 0x100 DUP1 DUP4 SLOAD DIV MUL DUP4 MSTORE SWAP2 PUSH1 0x20 ADD SWAP2 PUSH2 0xC37 JUMP JUMPDEST DUP3 ADD SWAP2 SWAP1 PUSH1 0x0 MSTORE PUSH1 0x20 PUSH1 0x0 KECCAK256 SWAP1 JUMPDEST DUP2 SLOAD DUP2 MSTORE SWAP1 PUSH1 0x1 ADD SWAP1 PUSH1 0x20 ADD DUP1 DUP4 GT PUSH2 0xC1A JUMPI DUP3 SWAP1 SUB PUSH1 0x1F AND DUP3 ADD SWAP2 JUMPDEST POP POP POP POP POP DUP2 MSTORE PUSH1 0x20 ADD PUSH1 0x5 DUP3 ADD SLOAD DUP2 MSTORE POP POP SWAP1 POP SWAP2 SWAP1 POP JUMP JUMPDEST PUSH1 0x60 PUSH1 0x6 PUSH1 0x0 SWAP1 SLOAD SWAP1 PUSH2 0x100 EXP SWAP1 DIV PUSH20 0xFFFFFFFFFFFFFFFFFFFFFFFFFFFFFFFFFFFFFFFF AND PUSH20 0xFFFFFFFFFFFFFFFFFFFFFFFFFFFFFFFFFFFFFFFF AND CALLER PUSH20 0xFFFFFFFFFFFFFFFFFFFFFFFFFFFFFFFFFFFFFFFF AND EQ DUP1 PUSH2 0xCFC JUMPI POP PUSH1 0x5 PUSH1 0x0 SWAP1 SLOAD SWAP1 PUSH2 0x100 EXP SWAP1 DIV PUSH20 0xFFFFFFFFFFFFFFFFFFFFFFFFFFFFFFFFFFFFFFFF AND PUSH20 0xFFFFFFFFFFFFFFFFFFFFFFFFFFFFFFFFFFFFFFFF AND CALLER PUSH20 0xFFFFFFFFFFFFFFFFFFFFFFFFFFFFFFFFFFFFFFFF AND EQ JUMPDEST PUSH2 0xD05 JUMPI PUSH1 0x0 DUP1 REVERT JUMPDEST DUP2 PUSH1 0x0 DUP2 GT DUP1 ISZERO PUSH2 0xD18 JUMPI POP PUSH1 0x4 SLOAD DUP2 GT ISZERO JUMPDEST PUSH2 0xD21 JUMPI PUSH1 0x0 DUP1 REVERT JUMPDEST PUSH1 0x0 PUSH1 0x3 PUSH1 0x0 DUP6 DUP2 MSTORE PUSH1 0x20 ADD SWAP1 DUP2 MSTORE PUSH1 0x20 ADD PUSH1 0x0 KECCAK256 SWAP1 POP DUP1 PUSH1 0x9 ADD DUP1 SLOAD DUP1 PUSH1 0x20 MUL PUSH1 0x20 ADD PUSH1 0x40 MLOAD SWAP1 DUP2 ADD PUSH1 0x40 MSTORE DUP1 SWAP3 SWAP2 SWAP1 DUP2 DUP2 MSTORE PUSH1 0x20 ADD PUSH1 0x0 SWAP1 JUMPDEST DUP3 DUP3 LT ISZERO PUSH2 0xEDA JUMPI DUP4 DUP3 SWAP1 PUSH1 0x0 MSTORE PUSH1 0x20 PUSH1 0x0 KECCAK256 SWAP1 PUSH1 0x6 MUL ADD PUSH1 0x40 MLOAD DUP1 PUSH1 0xC0 ADD PUSH1 0x40 MSTORE SWAP1 DUP2 PUSH1 0x0 DUP3 ADD SLOAD DUP2 MSTORE PUSH1 0x20 ADD PUSH1 0x1 DUP3 ADD DUP1 SLOAD PUSH2 0xD99 SWAP1 PUSH2 0x16E7 JUMP JUMPDEST DUP1 PUSH1 0x1F ADD PUSH1 0x20 DUP1 SWAP2 DIV MUL PUSH1 0x20 ADD PUSH1 0x40 MLOAD SWAP1 DUP2 ADD PUSH1 0x40 MSTORE DUP1 SWAP3 SWAP2 SWAP1 DUP2 DUP2 MSTORE PUSH1 0x20 ADD DUP3 DUP1 SLOAD PUSH2 0xDC5 SWAP1 PUSH2 0x16E7 JUMP JUMPDEST DUP1 ISZERO PUSH2 0xE12 JUMPI DUP1 PUSH1 0x1F LT PUSH2 0xDE7 JUMPI PUSH2 0x100 DUP1 DUP4 SLOAD DIV MUL DUP4 MSTORE SWAP2 PUSH1 0x20 ADD SWAP2 PUSH2 0xE12 JUMP JUMPDEST DUP3 ADD SWAP2 SWAP1 PUSH1 0x0 MSTORE PUSH1 0x20 PUSH1 0x0 KECCAK256 SWAP1 JUMPDEST DUP2 SLOAD DUP2 MSTORE SWAP1 PUSH1 0x1 ADD SWAP1 PUSH1 0x20 ADD DUP1 DUP4 GT PUSH2 0xDF5 JUMPI DUP3 SWAP1 SUB PUSH1 0x1F AND DUP3 ADD SWAP2 JUMPDEST POP POP POP POP POP DUP2 MSTORE PUSH1 0x20 ADD PUSH1 0x2 DUP3 ADD SLOAD DUP2 MSTORE PUSH1 0x20 ADD PUSH1 0x3 DUP3 ADD SLOAD DUP2 MSTORE PUSH1 0x20 ADD PUSH1 0x4 DUP3 ADD DUP1 SLOAD PUSH2 0xE3F SWAP1 PUSH2 0x16E7 JUMP JUMPDEST DUP1 PUSH1 0x1F ADD PUSH1 0x20 DUP1 SWAP2 DIV MUL PUSH1 0x20 ADD PUSH1 0x40 MLOAD SWAP1 DUP2 ADD PUSH1 0x40 MSTORE DUP1 SWAP3 SWAP2 SWAP1 DUP2 DUP2 MSTORE PUSH1 0x20 ADD DUP3 DUP1 SLOAD PUSH2 0xE6B SWAP1 PUSH2 0x16E7 JUMP JUMPDEST DUP1 ISZERO PUSH2 0xEB8 JUMPI DUP1 PUSH1 0x1F LT PUSH2 0xE8D JUMPI PUSH2 0x100 DUP1 DUP4 SLOAD DIV MUL DUP4 MSTORE SWAP2 PUSH1 0x20 ADD SWAP2 PUSH2 0xEB8 JUMP JUMPDEST DUP3 ADD SWAP2 SWAP1 PUSH1 0x0 MSTORE PUSH1 0x20 PUSH1 0x0 KECCAK256 SWAP1 JUMPDEST DUP2 SLOAD DUP2 MSTORE SWAP1 PUSH1 0x1 ADD SWAP1 PUSH1 0x20 ADD DUP1 DUP4 GT PUSH2 0xE9B JUMPI DUP3 SWAP1 SUB PUSH1 0x1F AND DUP3 ADD SWAP2 JUMPDEST POP POP POP POP POP DUP2 MSTORE PUSH1 0x20 ADD PUSH1 0x5 DUP3 ADD SLOAD DUP2 MSTORE POP POP DUP2 MSTORE PUSH1 0x20 ADD SWAP1 PUSH1 0x1 ADD SWAP1 PUSH2 0xD5C JUMP JUMPDEST POP POP POP POP SWAP3 POP POP POP SWAP2 SWAP1 POP JUMP JUMPDEST DUP3 DUP1 SLOAD PUSH2 0xEF3 SWAP1 PUSH2 0x16E7 JUMP JUMPDEST SWAP1 PUSH1 0x0 MSTORE PUSH1 0x20 PUSH1 0x0 KECCAK256 SWAP1 PUSH1 0x1F ADD PUSH1 0x20 SWAP1 DIV DUP2 ADD SWAP3 DUP3 PUSH2 0xF15 JUMPI PUSH1 0x0 DUP6 SSTORE PUSH2 0xF5C JUMP JUMPDEST DUP3 PUSH1 0x1F LT PUSH2 0xF2E JUMPI DUP1 MLOAD PUSH1 0xFF NOT AND DUP4 DUP1 ADD OR DUP6 SSTORE PUSH2 0xF5C JUMP JUMPDEST DUP3 DUP1 ADD PUSH1 0x1 ADD DUP6 SSTORE DUP3 ISZERO PUSH2 0xF5C JUMPI SWAP2 DUP3 ADD JUMPDEST DUP3 DUP2 GT ISZERO PUSH2 0xF5B JUMPI DUP3 MLOAD DUP3 SSTORE SWAP2 PUSH1 0x20 ADD SWAP2 SWAP1 PUSH1 0x1 ADD SWAP1 PUSH2 0xF40 JUMP JUMPDEST JUMPDEST POP SWAP1 POP PUSH2 0xF69 SWAP2 SWAP1 PUSH2 0x1030 JUMP JUMPDEST POP SWAP1 JUMP JUMPDEST DUP3 DUP1 SLOAD PUSH2 0xF79 SWAP1 PUSH2 0x16E7 JUMP JUMPDEST SWAP1 PUSH1 0x0 MSTORE PUSH1 0x20 PUSH1 0x0 KECCAK256 SWAP1 PUSH1 0x1F ADD PUSH1 0x20 SWAP1 DIV DUP2 ADD SWAP3 DUP3 PUSH2 0xF9B JUMPI PUSH1 0x0 DUP6 SSTORE PUSH2 0xFE9 JUMP JUMPDEST DUP3 PUSH1 0x1F LT PUSH2 0xFAC JUMPI DUP1 SLOAD DUP6 SSTORE PUSH2 0xFE9 JUMP JUMPDEST DUP3 DUP1 ADD PUSH1 0x1 ADD DUP6 SSTORE DUP3 ISZERO PUSH2 0xFE9 JUMPI PUSH1 0x0 MSTORE PUSH1 0x20 PUSH1 0x0 KECCAK256 SWAP2 PUSH1 0x1F ADD PUSH1 0x20 SWAP1 DIV DUP3 ADD JUMPDEST DUP3 DUP2 GT ISZERO PUSH2 0xFE8 JUMPI DUP3 SLOAD DUP3 SSTORE SWAP2 PUSH1 0x1 ADD SWAP2 SWAP1 PUSH1 0x1 ADD SWAP1 PUSH2 0xFCD JUMP JUMPDEST JUMPDEST POP SWAP1 POP PUSH2 0xFF6 SWAP2 SWAP1 PUSH2 0x1030 JUMP JUMPDEST POP SWAP1 JUMP JUMPDEST PUSH1 0x40 MLOAD DUP1 PUSH1 0xC0 ADD PUSH1 0x40 MSTORE DUP1 PUSH1 0x0 DUP2 MSTORE PUSH1 0x20 ADD PUSH1 0x60 DUP2 MSTORE PUSH1 0x20 ADD PUSH1 0x0 DUP2 MSTORE PUSH1 0x20 ADD PUSH1 0x0 DUP2 MSTORE PUSH1 0x20 ADD PUSH1 0x60 DUP2 MSTORE PUSH1 0x20 ADD PUSH1 0x0 DUP2 MSTORE POP SWAP1 JUMP JUMPDEST JUMPDEST DUP1 DUP3 GT ISZERO PUSH2 0x1049 JUMPI PUSH1 0x0 DUP2 PUSH1 0x0 SWAP1 SSTORE POP PUSH1 0x1 ADD PUSH2 0x1031 JUMP JUMPDEST POP SWAP1 JUMP JUMPDEST PUSH1 0x0 PUSH1 0x40 MLOAD SWAP1 POP SWAP1 JUMP JUMPDEST PUSH1 0x0 DUP1 REVERT JUMPDEST PUSH1 0x0 DUP1 REVERT JUMPDEST PUSH1 0x0 DUP2 SWAP1 POP SWAP2 SWAP1 POP JUMP JUMPDEST PUSH2 0x1074 DUP2 PUSH2 0x1061 JUMP JUMPDEST DUP2 EQ PUSH2 0x107F JUMPI PUSH1 0x0 DUP1 REVERT JUMPDEST POP JUMP JUMPDEST PUSH1 0x0 DUP2 CALLDATALOAD SWAP1 POP PUSH2 0x1091 DUP2 PUSH2 0x106B JUMP JUMPDEST SWAP3 SWAP2 POP POP JUMP JUMPDEST PUSH1 0x0 DUP1 REVERT JUMPDEST PUSH1 0x0 DUP1 REVERT JUMPDEST PUSH1 0x0 PUSH1 0x1F NOT PUSH1 0x1F DUP4 ADD AND SWAP1 POP SWAP2 SWAP1 POP JUMP JUMPDEST PUSH32 0x4E487B7100000000000000000000000000000000000000000000000000000000 PUSH1 0x0 MSTORE PUSH1 0x41 PUSH1 0x4 MSTORE PUSH1 0x24 PUSH1 0x0 REVERT JUMPDEST PUSH2 0x10EA DUP3 PUSH2 0x10A1 JUMP JUMPDEST DUP2 ADD DUP2 DUP2 LT PUSH8 0xFFFFFFFFFFFFFFFF DUP3 GT OR ISZERO PUSH2 0x1109 JUMPI PUSH2 0x1108 PUSH2 0x10B2 JUMP JUMPDEST JUMPDEST DUP1 PUSH1 0x40 MSTORE POP POP POP JUMP JUMPDEST PUSH1 0x0 PUSH2 0x111C PUSH2 0x104D JUMP JUMPDEST SWAP1 POP PUSH2 0x1128 DUP3 DUP3 PUSH2 0x10E1 JUMP JUMPDEST SWAP2 SWAP1 POP JUMP JUMPDEST PUSH1 0x0 PUSH8 0xFFFFFFFFFFFFFFFF DUP3 GT ISZERO PUSH2 0x1148 JUMPI PUSH2 0x1147 PUSH2 0x10B2 JUMP JUMPDEST JUMPDEST PUSH2 0x1151 DUP3 PUSH2 0x10A1 JUMP JUMPDEST SWAP1 POP PUSH1 0x20 DUP2 ADD SWAP1 POP SWAP2 SWAP1 POP JUMP JUMPDEST DUP3 DUP2 DUP4 CALLDATACOPY PUSH1 0x0 DUP4 DUP4 ADD MSTORE POP POP POP JUMP JUMPDEST PUSH1 0x0 PUSH2 0x1180 PUSH2 0x117B DUP5 PUSH2 0x112D JUMP JUMPDEST PUSH2 0x1112 JUMP JUMPDEST SWAP1 POP DUP3 DUP2 MSTORE PUSH1 0x20 DUP2 ADD DUP5 DUP5 DUP5 ADD GT ISZERO PUSH2 0x119C JUMPI PUSH2 0x119B PUSH2 0x109C JUMP JUMPDEST JUMPDEST PUSH2 0x11A7 DUP5 DUP3 DUP6 PUSH2 0x115E JUMP JUMPDEST POP SWAP4 SWAP3 POP POP POP JUMP JUMPDEST PUSH1 0x0 DUP3 PUSH1 0x1F DUP4 ADD SLT PUSH2 0x11C4 JUMPI PUSH2 0x11C3 PUSH2 0x1097 JUMP JUMPDEST JUMPDEST DUP2 CALLDATALOAD PUSH2 0x11D4 DUP5 DUP3 PUSH1 0x20 DUP7 ADD PUSH2 0x116D JUMP JUMPDEST SWAP2 POP POP SWAP3 SWAP2 POP POP JUMP JUMPDEST PUSH1 0x0 DUP1 PUSH1 0x0 DUP1 PUSH1 0x0 PUSH1 0xA0 DUP7 DUP9 SUB SLT ISZERO PUSH2 0x11F9 JUMPI PUSH2 0x11F8 PUSH2 0x1057 JUMP JUMPDEST JUMPDEST PUSH1 0x0 PUSH2 0x1207 DUP9 DUP3 DUP10 ADD PUSH2 0x1082 JUMP JUMPDEST SWAP6 POP POP PUSH1 0x20 DUP7 ADD CALLDATALOAD PUSH8 0xFFFFFFFFFFFFFFFF DUP2 GT ISZERO PUSH2 0x1228 JUMPI PUSH2 0x1227 PUSH2 0x105C JUMP JUMPDEST JUMPDEST PUSH2 0x1234 DUP9 DUP3 DUP10 ADD PUSH2 0x11AF JUMP JUMPDEST SWAP5 POP POP PUSH1 0x40 PUSH2 0x1245 DUP9 DUP3 DUP10 ADD PUSH2 0x1082 JUMP JUMPDEST SWAP4 POP POP PUSH1 0x60 DUP7 ADD CALLDATALOAD PUSH8 0xFFFFFFFFFFFFFFFF DUP2 GT ISZERO PUSH2 0x1266 JUMPI PUSH2 0x1265 PUSH2 0x105C JUMP JUMPDEST JUMPDEST PUSH2 0x1272 DUP9 DUP3 DUP10 ADD PUSH2 0x11AF JUMP JUMPDEST SWAP3 POP POP PUSH1 0x80 PUSH2 0x1283 DUP9 DUP3 DUP10 ADD PUSH2 0x1082 JUMP JUMPDEST SWAP2 POP POP SWAP3 SWAP6 POP SWAP3 SWAP6 SWAP1 SWAP4 POP JUMP JUMPDEST PUSH1 0x0 DUP1 PUSH1 0x0 PUSH1 0x60 DUP5 DUP7 SUB SLT ISZERO PUSH2 0x12A9 JUMPI PUSH2 0x12A8 PUSH2 0x1057 JUMP JUMPDEST JUMPDEST PUSH1 0x0 DUP5 ADD CALLDATALOAD PUSH8 0xFFFFFFFFFFFFFFFF DUP2 GT ISZERO PUSH2 0x12C7 JUMPI PUSH2 0x12C6 PUSH2 0x105C JUMP JUMPDEST JUMPDEST PUSH2 0x12D3 DUP7 DUP3 DUP8 ADD PUSH2 0x11AF JUMP JUMPDEST SWAP4 POP POP PUSH1 0x20 PUSH2 0x12E4 DUP7 DUP3 DUP8 ADD PUSH2 0x1082 JUMP JUMPDEST SWAP3 POP POP PUSH1 0x40 DUP5 ADD CALLDATALOAD PUSH8 0xFFFFFFFFFFFFFFFF DUP2 GT ISZERO PUSH2 0x1305 JUMPI PUSH2 0x1304 PUSH2 0x105C JUMP JUMPDEST JUMPDEST PUSH2 0x1311 DUP7 DUP3 DUP8 ADD PUSH2 0x11AF JUMP JUMPDEST SWAP2 POP POP SWAP3 POP SWAP3 POP SWAP3 JUMP JUMPDEST PUSH1 0x0 PUSH1 0x20 DUP3 DUP5 SUB SLT ISZERO PUSH2 0x1331 JUMPI PUSH2 0x1330 PUSH2 0x1057 JUMP JUMPDEST JUMPDEST PUSH1 0x0 PUSH2 0x133F DUP5 DUP3 DUP6 ADD PUSH2 0x1082 JUMP JUMPDEST SWAP2 POP POP SWAP3 SWAP2 POP POP JUMP JUMPDEST PUSH2 0x1351 DUP2 PUSH2 0x1061 JUMP JUMPDEST DUP3 MSTORE POP POP JUMP JUMPDEST PUSH1 0x0 DUP2 MLOAD SWAP1 POP SWAP2 SWAP1 POP JUMP JUMPDEST PUSH1 0x0 DUP3 DUP3 MSTORE PUSH1 0x20 DUP3 ADD SWAP1 POP SWAP3 SWAP2 POP POP JUMP JUMPDEST PUSH1 0x0 JUMPDEST DUP4 DUP2 LT ISZERO PUSH2 0x1391 JUMPI DUP1 DUP3 ADD MLOAD DUP2 DUP5 ADD MSTORE PUSH1 0x20 DUP2 ADD SWAP1 POP PUSH2 0x1376 JUMP JUMPDEST DUP4 DUP2 GT ISZERO PUSH2 0x13A0 JUMPI PUSH1 0x0 DUP5 DUP5 ADD MSTORE JUMPDEST POP POP POP POP JUMP JUMPDEST PUSH1 0x0 PUSH2 0x13B1 DUP3 PUSH2 0x1357 JUMP JUMPDEST PUSH2 0x13BB DUP2 DUP6 PUSH2 0x1362 JUMP JUMPDEST SWAP4 POP PUSH2 0x13CB DUP2 DUP6 PUSH1 0x20 DUP7 ADD PUSH2 0x1373 JUMP JUMPDEST PUSH2 0x13D4 DUP2 PUSH2 0x10A1 JUMP JUMPDEST DUP5 ADD SWAP2 POP POP SWAP3 SWAP2 POP POP JUMP JUMPDEST PUSH1 0x0 DUP2 MLOAD SWAP1 POP SWAP2 SWAP1 POP JUMP JUMPDEST PUSH1 0x0 DUP3 DUP3 MSTORE PUSH1 0x20 DUP3 ADD SWAP1 POP SWAP3 SWAP2 POP POP JUMP JUMPDEST PUSH1 0x0 DUP2 SWAP1 POP PUSH1 0x20 DUP3 ADD SWAP1 POP SWAP2 SWAP1 POP JUMP JUMPDEST PUSH2 0x1414 DUP2 PUSH2 0x1061 JUMP JUMPDEST DUP3 MSTORE POP POP JUMP JUMPDEST PUSH1 0x0 DUP3 DUP3 MSTORE PUSH1 0x20 DUP3 ADD SWAP1 POP SWAP3 SWAP2 POP POP JUMP JUMPDEST PUSH1 0x0 PUSH2 0x1436 DUP3 PUSH2 0x1357 JUMP JUMPDEST PUSH2 0x1440 DUP2 DUP6 PUSH2 0x141A JUMP JUMPDEST SWAP4 POP PUSH2 0x1450 DUP2 DUP6 PUSH1 0x20 DUP7 ADD PUSH2 0x1373 JUMP JUMPDEST PUSH2 0x1459 DUP2 PUSH2 0x10A1 JUMP JUMPDEST DUP5 ADD SWAP2 POP POP SWAP3 SWAP2 POP POP JUMP JUMPDEST PUSH1 0x0 PUSH1 0xC0 DUP4 ADD PUSH1 0x0 DUP4 ADD MLOAD PUSH2 0x147C PUSH1 0x0 DUP7 ADD DUP3 PUSH2 0x140B JUMP JUMPDEST POP PUSH1 0x20 DUP4 ADD MLOAD DUP5 DUP3 SUB PUSH1 0x20 DUP7 ADD MSTORE PUSH2 0x1494 DUP3 DUP3 PUSH2 0x142B JUMP JUMPDEST SWAP2 POP POP PUSH1 0x40 DUP4 ADD MLOAD PUSH2 0x14A9 PUSH1 0x40 DUP7 ADD DUP3 PUSH2 0x140B JUMP JUMPDEST POP PUSH1 0x60 DUP4 ADD MLOAD PUSH2 0x14BC PUSH1 0x60 DUP7 ADD DUP3 PUSH2 0x140B JUMP JUMPDEST POP PUSH1 0x80 DUP4 ADD MLOAD DUP5 DUP3 SUB PUSH1 0x80 DUP7 ADD MSTORE PUSH2 0x14D4 DUP3 DUP3 PUSH2 0x142B JUMP JUMPDEST SWAP2 POP POP PUSH1 0xA0 DUP4 ADD MLOAD PUSH2 0x14E9 PUSH1 0xA0 DUP7 ADD DUP3 PUSH2 0x140B JUMP JUMPDEST POP DUP1 SWAP2 POP POP SWAP3 SWAP2 POP POP JUMP JUMPDEST PUSH1 0x0 PUSH2 0x1500 DUP4 DUP4 PUSH2 0x1464 JUMP JUMPDEST SWAP1 POP SWAP3 SWAP2 POP POP JUMP JUMPDEST PUSH1 0x0 PUSH1 0x20 DUP3 ADD SWAP1 POP SWAP2 SWAP1 POP JUMP JUMPDEST PUSH1 0x0 PUSH2 0x1520 DUP3 PUSH2 0x13DF JUMP JUMPDEST PUSH2 0x152A DUP2 DUP6 PUSH2 0x13EA JUMP JUMPDEST SWAP4 POP DUP4 PUSH1 0x20 DUP3 MUL DUP6 ADD PUSH2 0x153C DUP6 PUSH2 0x13FB JUMP JUMPDEST DUP1 PUSH1 0x0 JUMPDEST DUP6 DUP2 LT ISZERO PUSH2 0x1578 JUMPI DUP5 DUP5 SUB DUP10 MSTORE DUP2 MLOAD PUSH2 0x1559 DUP6 DUP3 PUSH2 0x14F4 JUMP JUMPDEST SWAP5 POP PUSH2 0x1564 DUP4 PUSH2 0x1508 JUMP JUMPDEST SWAP3 POP PUSH1 0x20 DUP11 ADD SWAP10 POP POP PUSH1 0x1 DUP2 ADD SWAP1 POP PUSH2 0x1540 JUMP JUMPDEST POP DUP3 SWAP8 POP DUP8 SWAP6 POP POP POP POP POP POP SWAP3 SWAP2 POP POP JUMP JUMPDEST PUSH1 0x0 PUSH1 0xA0 DUP3 ADD SWAP1 POP PUSH2 0x159F PUSH1 0x0 DUP4 ADD DUP9 PUSH2 0x1348 JUMP JUMPDEST DUP2 DUP2 SUB PUSH1 0x20 DUP4 ADD MSTORE PUSH2 0x15B1 DUP2 DUP8 PUSH2 0x13A6 JUMP JUMPDEST SWAP1 POP PUSH2 0x15C0 PUSH1 0x40 DUP4 ADD DUP7 PUSH2 0x1348 JUMP JUMPDEST DUP2 DUP2 SUB PUSH1 0x60 DUP4 ADD MSTORE PUSH2 0x15D2 DUP2 DUP6 PUSH2 0x13A6 JUMP JUMPDEST SWAP1 POP DUP2 DUP2 SUB PUSH1 0x80 DUP4 ADD MSTORE PUSH2 0x15E6 DUP2 DUP5 PUSH2 0x1515 JUMP JUMPDEST SWAP1 POP SWAP7 SWAP6 POP POP POP POP POP POP JUMP JUMPDEST PUSH1 0x0 PUSH1 0x20 DUP3 ADD SWAP1 POP PUSH2 0x1607 PUSH1 0x0 DUP4 ADD DUP5 PUSH2 0x1348 JUMP JUMPDEST SWAP3 SWAP2 POP POP JUMP JUMPDEST PUSH32 0x4E487B7100000000000000000000000000000000000000000000000000000000 PUSH1 0x0 MSTORE PUSH1 0x11 PUSH1 0x4 MSTORE PUSH1 0x24 PUSH1 0x0 REVERT JUMPDEST PUSH1 0x0 PUSH2 0x1647 DUP3 PUSH2 0x1061 JUMP JUMPDEST SWAP2 POP PUSH2 0x1652 DUP4 PUSH2 0x1061 JUMP JUMPDEST SWAP3 POP DUP3 DUP3 LT ISZERO PUSH2 0x1665 JUMPI PUSH2 0x1664 PUSH2 0x160D JUMP JUMPDEST JUMPDEST DUP3 DUP3 SUB SWAP1 POP SWAP3 SWAP2 POP POP JUMP JUMPDEST PUSH1 0x0 PUSH2 0x167B DUP3 PUSH2 0x1061 JUMP JUMPDEST SWAP2 POP PUSH32 0xFFFFFFFFFFFFFFFFFFFFFFFFFFFFFFFFFFFFFFFFFFFFFFFFFFFFFFFFFFFFFFFF DUP3 SUB PUSH2 0x16AD JUMPI PUSH2 0x16AC PUSH2 0x160D JUMP JUMPDEST JUMPDEST PUSH1 0x1 DUP3 ADD SWAP1 POP SWAP2 SWAP1 POP JUMP JUMPDEST PUSH32 0x4E487B7100000000000000000000000000000000000000000000000000000000 PUSH1 0x0 MSTORE PUSH1 0x22 PUSH1 0x4 MSTORE PUSH1 0x24 PUSH1 0x0 REVERT JUMPDEST PUSH1 0x0 PUSH1 0x2 DUP3 DIV SWAP1 POP PUSH1 0x1 DUP3 AND DUP1 PUSH2 0x16FF JUMPI PUSH1 0x7F DUP3 AND SWAP2 POP JUMPDEST PUSH1 0x20 DUP3 LT DUP2 SUB PUSH2 0x1712 JUMPI PUSH2 0x1711 PUSH2 0x16B8 JUMP JUMPDEST JUMPDEST POP SWAP2 SWAP1 POP JUMP INVALID LOG2 PUSH5 0x6970667358 0x22 SLT KECCAK256 PUSH15 0xFD658F4CBE883415955B8AEFA22730 0xC8 ADDMOD SWAP5 RETURNDATACOPY 0xF6 0xC2 PUSH15 0xAC9364D133CEEACE1264736F6C6343 STOP ADDMOD 0xD STOP CALLER "},"gasEstimates":{"creation":{"codeDepositCost":"1193200","executionCost":"infinite","totalCost":"infinite"},"external":{"addProduct(string,uint256,string)":"infinite","addStakeholderToProduct(uint256,string,uint256,string,uint256)":"infinite","finishPasteurization(uint256)":"infinite","getCurrStatus(uint256)":"infinite","getProduct(uint256)":"infinite","getProductQuantity(uint256)":"infinite"},"internal":{"getNumberOfProducts()":"infinite","getProductStakeholder(uint256)":"infinite"}},"methodIdentifiers":{"addProduct(string,uint256,string)":"8f29695a","addStakeholderToProduct(uint256,string,uint256,string,uint256)":"044373ee","finishPasteurization(uint256)":"aa82e6d5","getCurrStatus(uint256)":"e225b6ec","getProduct(uint256)":"b9db15b4","getProductQuantity(uint256)":"db34d123"}},"storageLayout":{"storage":[{"astId":19,"contract":"products.sol:Product","label":"stakeholder_details","offset":0,"slot":"0","type":"t_mapping(t_uint256,t_struct(StakeholderDetails)14_storage)"},{"astId":21,"contract":"products.sol:Product","label":"stakeholderCount","offset":0,"slot":"1","type":"t_uint256"},{"astId":112,"contract":"products.sol:Product","label":"process_details","offset":0,"slot":"2","type":"t_mapping(t_uint256,t_struct(Process)107_storage)"},{"astId":232,"contract":"products.sol:Product","label":"product_details","offset":0,"slot":"3","type":"t_mapping(t_uint256,t_struct(ProductDetails)227_storage)"},{"astId":234,"contract":"products.sol:Product","label":"productCount","offset":0,"slot":"4","type":"t_uint256"},{"astId":236,"contract":"products.sol:Product","label":"stakeholder","offset":0,"slot":"5","type":"t_address"},{"astId":238,"contract":"products.sol:Product","label":"admin","offset":0,"slot":"6","type":"t_address"}],"types":{"t_address":{"encoding":"inplace","label":"address","numberOfBytes":"20"},"t_array(t_struct(StakeholderDetails)14_storage)dyn_storage":{"base":"t_struct(StakeholderDetails)14_storage","encoding":"dynamic_array","label":"struct Stakeholders.StakeholderDetails[]","numberOfBytes":"32"},"t_array(t_uint256)dyn_storage":{"base":"t_uint256","encoding":"dynamic_array","label":"uint256[]","numberOfBytes":"32"},"t_bool":{"encoding":"inplace","label":"bool","numberOfBytes":"1"},"t_mapping(t_uint256,t_struct(Process)107_storage)":{"encoding":"mapping","key":"t_uint256","label":"mapping(uint256 => struct Processes.Process)","numberOfBytes":"32","value":"t_struct(Process)107_storage"},"t_mapping(t_uint256,t_struct(ProductDetails)227_storage)":{"encoding":"mapping","key":"t_uint256","label":"mapping(uint256 => struct Product.ProductDetails)","numberOfBytes":"32","value":"t_struct(ProductDetails)227_storage"},"t_mapping(t_uint256,t_struct(StakeholderDetails)14_storage)":{"encoding":"mapping","key":"t_uint256","label":"mapping(uint256 => struct Stakeholders.StakeholderDetails)","numberOfBytes":"32","value":"t_struct(StakeholderDetails)14_storage"},"t_string_storage":{"encoding":"bytes","label":"string","numberOfBytes":"32"},"t_struct(Process)107_storage":{"encoding":"inplace","label":"struct Processes.Process","members":[{"astId":102,"contract":"products.sol:Product","label":"ID","offset":0,"slot":"0","type":"t_uint256"},{"astId":104,"contract":"products.sol:Product","label":"description","offset":0,"slot":"1","type":"t_string_storage"},{"astId":106,"contract":"products.sol:Product","label":"active","offset":0,"slot":"2","type":"t_bool"}],"numberOfBytes":"96"},"t_struct(ProductDetails)227_storage":{"encoding":"inplace","label":"struct Product.ProductDetails","members":[{"astId":197,"contract":"products.sol:Product","label":"ID","offset":0,"slot":"0","type":"t_uint256"},{"astId":199,"contract":"products.sol:Product","label":"name","offset":0,"slot":"1","type":"t_string_storage"},{"astId":201,"contract":"products.sol:Product","label":"quantity","offset":0,"slot":"2","type":"t_uint256"},{"astId":203,"contract":"products.sol:Product","label":"globalID","offset":0,"slot":"3","type":"t_string_storage"},{"astId":206,"contract":"products.sol:Product","label":"traceProducts","offset":0,"slot":"4","type":"t_array(t_uint256)dyn_storage"},{"astId":209,"contract":"products.sol:Product","label":"temperatureProducts","offset":0,"slot":"5","type":"t_array(t_uint256)dyn_storage"},{"astId":211,"contract":"products.sol:Product","label":"traceCount","offset":0,"slot":"6","type":"t_uint256"},{"astId":213,"contract":"products.sol:Product","label":"temperatureCount","offset":0,"slot":"7","type":"t_uint256"},{"astId":215,"contract":"products.sol:Product","label":"stakeholderCount","offset":0,"slot":"8","type":"t_uint256"},{"astId":219,"contract":"products.sol:Product","label":"stakeholderList","offset":0,"slot":"9","type":"t_array(t_struct(StakeholderDetails)14_storage)dyn_storage"},{"astId":224,"contract":"products.sol:Product","label":"processList","offset":0,"slot":"10","type":"t_mapping(t_uint256,t_struct(Process)107_storage)"},{"astId":226,"contract":"products.sol:Product","label":"currStatus","offset":0,"slot":"11","type":"t_uint256"}],"numberOfBytes":"384"},"t_struct(StakeholderDetails)14_storage":{"encoding":"inplace","label":"struct Stakeholders.StakeholderDetails","members":[{"astId":3,"contract":"products.sol:Product","label":"id","offset":0,"slot":"0","type":"t_uint256"},{"astId":5,"contract":"products.sol:Product","label":"name","offset":0,"slot":"1","type":"t_string_storage"},{"astId":7,"contract":"products.sol:Product","label":"timestamp","offset":0,"slot":"2","type":"t_uint256"},{"astId":9,"contract":"products.sol:Product","label":"quantitySupply","offset":0,"slot":"3","type":"t_uint256"},{"astId":11,"contract":"products.sol:Product","label":"location","offset":0,"slot":"4","type":"t_string_storage"},{"astId":13,"contract":"products.sol:Product","label":"temperature","offset":0,"slot":"5","type":"t_uint256"}],"numberOfBytes":"192"},"t_uint256":{"encoding":"inplace","label":"uint256","numberOfBytes":"32"}}},"userdoc":{"kind":"user","methods":{},"version":1}}